{
  "contractName": "Consortium",
  "abi": [
    {
      "constant": true,
      "inputs": [],
      "name": "activeMill",
      "outputs": [
        {
          "name": "associatedAddress",
          "type": "address"
        },
        {
          "name": "GPSLongitude",
          "type": "string"
        },
        {
          "name": "GPSLatitude",
          "type": "string"
        },
        {
          "name": "name",
          "type": "string"
        }
      ],
      "payable": false,
      "stateMutability": "view",
      "type": "function"
    },
    {
      "constant": true,
      "inputs": [
        {
          "name": "",
          "type": "uint256"
        }
      ],
      "name": "plantationAddresses",
      "outputs": [
        {
          "name": "",
          "type": "address"
        }
      ],
      "payable": false,
      "stateMutability": "view",
      "type": "function"
    },
    {
      "constant": true,
      "inputs": [
        {
          "name": "",
          "type": "bytes32"
        }
      ],
      "name": "COExists",
      "outputs": [
        {
          "name": "",
          "type": "bool"
        }
      ],
      "payable": false,
      "stateMutability": "view",
      "type": "function"
    },
    {
      "constant": true,
      "inputs": [
        {
          "name": "",
          "type": "uint256"
        }
      ],
      "name": "pendingPlantationRequestsArray",
      "outputs": [
        {
          "name": "",
          "type": "address"
        }
      ],
      "payable": false,
      "stateMutability": "view",
      "type": "function"
    },
    {
      "constant": true,
      "inputs": [
        {
          "name": "",
          "type": "address"
        }
      ],
      "name": "registeredPlantations",
      "outputs": [
        {
          "name": "",
          "type": "bool"
        }
      ],
      "payable": false,
      "stateMutability": "view",
      "type": "function"
    },
    {
      "constant": true,
      "inputs": [
        {
          "name": "",
          "type": "uint256"
        }
      ],
      "name": "tokensToInclude",
      "outputs": [
        {
          "name": "",
          "type": "uint256"
        }
      ],
      "payable": false,
      "stateMutability": "view",
      "type": "function"
    },
    {
      "constant": true,
      "inputs": [
        {
          "name": "",
          "type": "address"
        }
      ],
      "name": "pendingPlantationRequests",
      "outputs": [
        {
          "name": "",
          "type": "bool"
        }
      ],
      "payable": false,
      "stateMutability": "view",
      "type": "function"
    },
    {
      "constant": true,
      "inputs": [],
      "name": "RSPOAdministrator",
      "outputs": [
        {
          "name": "",
          "type": "address"
        }
      ],
      "payable": false,
      "stateMutability": "view",
      "type": "function"
    },
    {
      "constant": true,
      "inputs": [
        {
          "name": "",
          "type": "bytes32"
        }
      ],
      "name": "FFBExists",
      "outputs": [
        {
          "name": "",
          "type": "bool"
        }
      ],
      "payable": false,
      "stateMutability": "view",
      "type": "function"
    },
    {
      "constant": true,
      "inputs": [
        {
          "name": "",
          "type": "address"
        }
      ],
      "name": "plantations",
      "outputs": [
        {
          "name": "",
          "type": "bool"
        }
      ],
      "payable": false,
      "stateMutability": "view",
      "type": "function"
    },
    {
      "constant": true,
      "inputs": [
        {
          "name": "",
          "type": "uint256"
        }
      ],
      "name": "COTokens",
      "outputs": [
        {
          "name": "weight",
          "type": "uint256"
        },
        {
          "name": "millOrigin",
          "type": "address"
        },
        {
          "name": "owner",
          "type": "address"
        },
        {
          "name": "newOwner",
          "type": "address"
        },
        {
          "name": "RSPOCertified",
          "type": "bool"
        },
        {
          "name": "processed",
          "type": "bool"
        },
        {
          "name": "tokenId",
          "type": "uint256"
        }
      ],
      "payable": false,
      "stateMutability": "view",
      "type": "function"
    },
    {
      "constant": true,
      "inputs": [
        {
          "name": "",
          "type": "uint256"
        }
      ],
      "name": "FFBTokens",
      "outputs": [
        {
          "name": "weight",
          "type": "uint256"
        },
        {
          "name": "plantationOrigin",
          "type": "address"
        },
        {
          "name": "owner",
          "type": "address"
        },
        {
          "name": "newOwner",
          "type": "address"
        },
        {
          "name": "harvestTimeStamp",
          "type": "uint256"
        },
        {
          "name": "RSPOCertified",
          "type": "bool"
        },
        {
          "name": "processed",
          "type": "bool"
        },
        {
          "name": "tokenId",
          "type": "uint256"
        }
      ],
      "payable": false,
      "stateMutability": "view",
      "type": "function"
    },
    {
      "inputs": [
        {
          "name": "RSPOAdmin",
          "type": "address"
        }
      ],
      "payable": false,
      "stateMutability": "nonpayable",
      "type": "constructor"
    },
    {
      "anonymous": false,
      "inputs": [
        {
          "indexed": false,
          "name": "owner",
          "type": "address"
        },
        {
          "indexed": false,
          "name": "newOwner",
          "type": "address"
        },
        {
          "indexed": false,
          "name": "index",
          "type": "uint256"
        }
      ],
      "name": "FFBTokenSubmitted",
      "type": "event"
    },
    {
      "anonymous": false,
      "inputs": [
        {
          "indexed": false,
          "name": "owner",
          "type": "address"
        },
        {
          "indexed": false,
          "name": "newOwner",
          "type": "address"
        },
        {
          "indexed": false,
          "name": "index",
          "type": "uint256"
        }
      ],
      "name": "COTokenSubmitted",
      "type": "event"
    },
    {
      "anonymous": false,
      "inputs": [
        {
          "indexed": false,
          "name": "plantationAddressOrigin",
          "type": "address"
        }
      ],
      "name": "PlantationSubmissionRequested",
      "type": "event"
    },
    {
      "anonymous": false,
      "inputs": [
        {
          "indexed": false,
          "name": "plantationAddressOrigin",
          "type": "address"
        }
      ],
      "name": "PlantationSubmissionApproved",
      "type": "event"
    },
    {
      "constant": false,
      "inputs": [],
      "name": "requestPlantationSubscription",
      "outputs": [],
      "payable": false,
      "stateMutability": "nonpayable",
      "type": "function"
    },
    {
      "constant": false,
      "inputs": [
        {
          "name": "plantationToAdd",
          "type": "address"
        }
      ],
      "name": "approvePlantationRequest",
      "outputs": [],
      "payable": false,
      "stateMutability": "nonpayable",
      "type": "function"
    },
    {
      "constant": false,
      "inputs": [
        {
          "name": "GPSLongitude",
          "type": "string"
        },
        {
          "name": "GPSLatitude",
          "type": "string"
        },
        {
          "name": "name",
          "type": "string"
        },
        {
          "name": "origin",
          "type": "address"
        }
      ],
      "name": "setMill",
      "outputs": [],
      "payable": false,
      "stateMutability": "nonpayable",
      "type": "function"
    },
    {
      "constant": false,
      "inputs": [
        {
          "name": "weight",
          "type": "uint256"
        },
        {
          "name": "harvestTimeStamp",
          "type": "uint256"
        },
        {
          "name": "plantationOwner",
          "type": "address"
        }
      ],
      "name": "submitFFBToken",
      "outputs": [],
      "payable": false,
      "stateMutability": "nonpayable",
      "type": "function"
    },
    {
      "constant": false,
      "inputs": [
        {
          "name": "tokenIndexes",
          "type": "uint256[]"
        }
      ],
      "name": "consumeFFBTokens",
      "outputs": [],
      "payable": false,
      "stateMutability": "nonpayable",
      "type": "function"
    },
    {
      "constant": false,
      "inputs": [
        {
          "name": "plantation",
          "type": "address"
        }
      ],
      "name": "revokePlantationAccess",
      "outputs": [],
      "payable": false,
      "stateMutability": "nonpayable",
      "type": "function"
    },
    {
      "constant": true,
      "inputs": [
        {
          "name": "plantation",
          "type": "address"
        }
      ],
      "name": "getPlantationAtAddress",
      "outputs": [
        {
          "name": "",
          "type": "address"
        }
      ],
      "payable": false,
      "stateMutability": "view",
      "type": "function"
    },
    {
      "constant": true,
      "inputs": [
        {
          "name": "index",
          "type": "uint256"
        }
      ],
      "name": "getFFBTokenAtIndex",
      "outputs": [
        {
          "name": "",
          "type": "uint256"
        },
        {
          "name": "",
          "type": "address"
        },
        {
          "name": "",
          "type": "address"
        },
        {
          "name": "",
          "type": "address"
        },
        {
          "name": "",
          "type": "uint256"
        },
        {
          "name": "",
          "type": "bool"
        },
        {
          "name": "",
          "type": "bool"
        },
        {
          "name": "",
          "type": "uint256"
        }
      ],
      "payable": false,
      "stateMutability": "view",
      "type": "function"
    }
  ],
  "bytecode": "0x608060405234801561001057600080fd5b50604051602080612e188339810180604052810190808051906020019092919050505080600b60006101000a81548173ffffffffffffffffffffffffffffffffffffffff021916908373ffffffffffffffffffffffffffffffffffffffff16021790555050612d94806100846000396000f300608060405260043610610112576000357c0100000000000000000000000000000000000000000000000000000000900463ffffffff16806307ddf8d3146101175780630b4ac9a7146102b25780633e7177e3146102f5578063477ac206146103385780635bbedc22146103a557806366687adf146103ee578063747703c81461050357806379f4c814146105865780637beb8af3146106845780638628d9ee146106f15780638e2e22741461074c5780639aea423c1461078d578063ae33c564146107a4578063b1737de0146107ff578063c03de0f914610856578063df784abd1461089f578063e4f713be146108fa578063eaea3e80146109f1578063ed98c66714610a48578063fa84d76314610b46575b600080fd5b34801561012357600080fd5b5061012c610bac565b604051808573ffffffffffffffffffffffffffffffffffffffff1673ffffffffffffffffffffffffffffffffffffffff168152602001806020018060200180602001848103845287818151815260200191508051906020019080838360005b838110156101a657808201518184015260208101905061018b565b50505050905090810190601f1680156101d35780820380516001836020036101000a031916815260200191505b50848103835286818151815260200191508051906020019080838360005b8381101561020c5780820151818401526020810190506101f1565b50505050905090810190601f1680156102395780820380516001836020036101000a031916815260200191505b50848103825285818151815260200191508051906020019080838360005b83811015610272578082015181840152602081019050610257565b50505050905090810190601f16801561029f5780820380516001836020036101000a031916815260200191505b5097505050505050505060405180910390f35b3480156102be57600080fd5b506102f3600480360381019080803573ffffffffffffffffffffffffffffffffffffffff169060200190929190505050610db2565b005b34801561030157600080fd5b50610336600480360381019080803573ffffffffffffffffffffffffffffffffffffffff169060200190929190505050610f8f565b005b34801561034457600080fd5b50610363600480360381019080803590602001909291905050506112e5565b604051808273ffffffffffffffffffffffffffffffffffffffff1673ffffffffffffffffffffffffffffffffffffffff16815260200191505060405180910390f35b3480156103b157600080fd5b506103d46004803603810190808035600019169060200190929190505050611323565b604051808215151515815260200191505060405180910390f35b3480156103fa57600080fd5b50610501600480360381019080803590602001908201803590602001908080601f0160208091040260200160405190810160405280939291908181526020018383808284378201915050505050509192919290803590602001908201803590602001908080601f0160208091040260200160405190810160405280939291908181526020018383808284378201915050505050509192919290803590602001908201803590602001908080601f0160208091040260200160405190810160405280939291908181526020018383808284378201915050505050509192919290803573ffffffffffffffffffffffffffffffffffffffff169060200190929190505050611343565b005b34801561050f57600080fd5b50610544600480360381019080803573ffffffffffffffffffffffffffffffffffffffff1690602001909291905050506114f4565b604051808273ffffffffffffffffffffffffffffffffffffffff1673ffffffffffffffffffffffffffffffffffffffff16815260200191505060405180910390f35b34801561059257600080fd5b506105b1600480360381019080803590602001909291905050506115c3565b604051808981526020018873ffffffffffffffffffffffffffffffffffffffff1673ffffffffffffffffffffffffffffffffffffffff1681526020018773ffffffffffffffffffffffffffffffffffffffff1673ffffffffffffffffffffffffffffffffffffffff1681526020018673ffffffffffffffffffffffffffffffffffffffff1673ffffffffffffffffffffffffffffffffffffffff16815260200185815260200184151515158152602001831515151581526020018281526020019850505050505050505060405180910390f35b34801561069057600080fd5b506106af6004803603810190808035906020019092919050505061179d565b604051808273ffffffffffffffffffffffffffffffffffffffff1673ffffffffffffffffffffffffffffffffffffffff16815260200191505060405180910390f35b3480156106fd57600080fd5b50610732600480360381019080803573ffffffffffffffffffffffffffffffffffffffff1690602001909291905050506117db565b604051808215151515815260200191505060405180910390f35b34801561075857600080fd5b50610777600480360381019080803590602001909291905050506117fb565b6040518082815260200191505060405180910390f35b34801561079957600080fd5b506107a261181e565b005b3480156107b057600080fd5b506107e5600480360381019080803573ffffffffffffffffffffffffffffffffffffffff16906020019092919050505061199d565b604051808215151515815260200191505060405180910390f35b34801561080b57600080fd5b506108146119bd565b604051808273ffffffffffffffffffffffffffffffffffffffff1673ffffffffffffffffffffffffffffffffffffffff16815260200191505060405180910390f35b34801561086257600080fd5b5061088560048036038101908080356000191690602001909291905050506119e3565b604051808215151515815260200191505060405180910390f35b3480156108ab57600080fd5b506108e0600480360381019080803573ffffffffffffffffffffffffffffffffffffffff169060200190929190505050611a03565b604051808215151515815260200191505060405180910390f35b34801561090657600080fd5b5061092560048036038101908080359060200190929190505050611a23565b604051808881526020018773ffffffffffffffffffffffffffffffffffffffff1673ffffffffffffffffffffffffffffffffffffffff1681526020018673ffffffffffffffffffffffffffffffffffffffff1673ffffffffffffffffffffffffffffffffffffffff1681526020018573ffffffffffffffffffffffffffffffffffffffff1673ffffffffffffffffffffffffffffffffffffffff168152602001841515151581526020018315151515815260200182815260200197505050505050505060405180910390f35b3480156109fd57600080fd5b50610a466004803603810190808035906020019092919080359060200190929190803573ffffffffffffffffffffffffffffffffffffffff169060200190929190505050611aee565b005b348015610a5457600080fd5b50610a736004803603810190808035906020019092919050505061217b565b604051808981526020018873ffffffffffffffffffffffffffffffffffffffff1673ffffffffffffffffffffffffffffffffffffffff1681526020018773ffffffffffffffffffffffffffffffffffffffff1673ffffffffffffffffffffffffffffffffffffffff1681526020018673ffffffffffffffffffffffffffffffffffffffff1673ffffffffffffffffffffffffffffffffffffffff16815260200185815260200184151515158152602001831515151581526020018281526020019850505050505050505060405180910390f35b348015610b5257600080fd5b50610baa6004803603810190808035906020019082018035906020019080806020026020016040519081016040528093929190818152602001838360200280828437820191505050505050919291929050505061224c565b005b60008060000160009054906101000a900473ffffffffffffffffffffffffffffffffffffffff1690806001018054600181600116156101000203166002900480601f016020809104026020016040519081016040528092919081815260200182805460018160011615610100020316600290048015610c6c5780601f10610c4157610100808354040283529160200191610c6c565b820191906000526020600020905b815481529060010190602001808311610c4f57829003601f168201915b505050505090806002018054600181600116156101000203166002900480601f016020809104026020016040519081016040528092919081815260200182805460018160011615610100020316600290048015610d0a5780601f10610cdf57610100808354040283529160200191610d0a565b820191906000526020600020905b815481529060010190602001808311610ced57829003601f168201915b505050505090806003018054600181600116156101000203166002900480601f016020809104026020016040519081016040528092919081815260200182805460018160011615610100020316600290048015610da85780601f10610d7d57610100808354040283529160200191610da8565b820191906000526020600020905b815481529060010190602001808311610d8b57829003601f168201915b5050505050905084565b6000600b60009054906101000a900473ffffffffffffffffffffffffffffffffffffffff1673ffffffffffffffffffffffffffffffffffffffff163373ffffffffffffffffffffffffffffffffffffffff16141515610e79576040517f08c379a000000000000000000000000000000000000000000000000000000000815260040180806020018281038252601c8152602001807f5253504f2061757468656e7469636174696f6e2072657175697265640000000081525060200191505060405180910390fd5b600660008373ffffffffffffffffffffffffffffffffffffffff1673ffffffffffffffffffffffffffffffffffffffff16815260200190815260200160002060006101000a81549060ff02191690558190508073ffffffffffffffffffffffffffffffffffffffff166387395ddc6000336040518363ffffffff167c010000000000000000000000000000000000000000000000000000000002815260040180831515151581526020018273ffffffffffffffffffffffffffffffffffffffff1673ffffffffffffffffffffffffffffffffffffffff16815260200192505050600060405180830381600087803b158015610f7357600080fd5b505af1158015610f87573d6000803e3d6000fd5b505050505050565b6000600b60009054906101000a900473ffffffffffffffffffffffffffffffffffffffff1673ffffffffffffffffffffffffffffffffffffffff163373ffffffffffffffffffffffffffffffffffffffff16141515611056576040517f08c379a000000000000000000000000000000000000000000000000000000000815260040180806020018281038252601c8152602001807f5253504f2061757468656e7469636174696f6e2072657175697265640000000081525060200191505060405180910390fd5b6001600460008473ffffffffffffffffffffffffffffffffffffffff1673ffffffffffffffffffffffffffffffffffffffff16815260200190815260200160002060006101000a81548160ff02191690831515021790555060058290806001815401808255809150509060018203906000526020600020016000909192909190916101000a81548173ffffffffffffffffffffffffffffffffffffffff021916908373ffffffffffffffffffffffffffffffffffffffff160217905550506001600660008473ffffffffffffffffffffffffffffffffffffffff1673ffffffffffffffffffffffffffffffffffffffff16815260200190815260200160002060006101000a81548160ff021916908315150217905550600760008373ffffffffffffffffffffffffffffffffffffffff1673ffffffffffffffffffffffffffffffffffffffff16815260200190815260200160002060006101000a81549060ff02191690557f6cd925231fae3a68dd83317f0efc12f76504daec91ae67222db197d09f83355682604051808273ffffffffffffffffffffffffffffffffffffffff1673ffffffffffffffffffffffffffffffffffffffff16815260200191505060405180910390a18190508073ffffffffffffffffffffffffffffffffffffffff166387395ddc6001336040518363ffffffff167c010000000000000000000000000000000000000000000000000000000002815260040180831515151581526020018273ffffffffffffffffffffffffffffffffffffffff1673ffffffffffffffffffffffffffffffffffffffff16815260200192505050600060405180830381600087803b1580156112c957600080fd5b505af11580156112dd573d6000803e3d6000fd5b505050505050565b6005818154811015156112f457fe5b906000526020600020016000915054906101000a900473ffffffffffffffffffffffffffffffffffffffff1681565b600c6020528060005260406000206000915054906101000a900460ff1681565b61134b612afe565b600b60009054906101000a900473ffffffffffffffffffffffffffffffffffffffff1673ffffffffffffffffffffffffffffffffffffffff163373ffffffffffffffffffffffffffffffffffffffff16141515611410576040517f08c379a000000000000000000000000000000000000000000000000000000000815260040180806020018281038252601c8152602001807f5253504f2061757468656e7469636174696f6e2072657175697265640000000081525060200191505060405180910390fd5b6080604051908101604052808373ffffffffffffffffffffffffffffffffffffffff168152602001868152602001858152602001848152509050806000808201518160000160006101000a81548173ffffffffffffffffffffffffffffffffffffffff021916908373ffffffffffffffffffffffffffffffffffffffff16021790555060208201518160010190805190602001906114af929190612b3d565b5060408201518160020190805190602001906114cc929190612b3d565b5060608201518160030190805190602001906114e9929190612b3d565b509050505050505050565b6000600b60009054906101000a900473ffffffffffffffffffffffffffffffffffffffff1673ffffffffffffffffffffffffffffffffffffffff163373ffffffffffffffffffffffffffffffffffffffff161415156115bb576040517f08c379a000000000000000000000000000000000000000000000000000000000815260040180806020018281038252601c8152602001807f5253504f2061757468656e7469636174696f6e2072657175697265640000000081525060200191505060405180910390fd5b819050919050565b6000806000806000806000806115d7612bbd565b60098a8154811015156115e657fe5b90600052602060002090600702016101006040519081016040529081600082015481526020016001820160009054906101000a900473ffffffffffffffffffffffffffffffffffffffff1673ffffffffffffffffffffffffffffffffffffffff1673ffffffffffffffffffffffffffffffffffffffff1681526020016002820160009054906101000a900473ffffffffffffffffffffffffffffffffffffffff1673ffffffffffffffffffffffffffffffffffffffff1673ffffffffffffffffffffffffffffffffffffffff1681526020016003820160009054906101000a900473ffffffffffffffffffffffffffffffffffffffff1673ffffffffffffffffffffffffffffffffffffffff1673ffffffffffffffffffffffffffffffffffffffff168152602001600482015481526020016005820160009054906101000a900460ff161515151581526020016005820160019054906101000a900460ff161515151581526020016006820154815250509050806000015181602001518260400151836060015184608001518560a001518660c001518760e001519850985098509850985098509850985050919395975091939597565b6008818154811015156117ac57fe5b906000526020600020016000915054906101000a900473ffffffffffffffffffffffffffffffffffffffff1681565b60066020528060005260406000206000915054906101000a900460ff1681565b600e8181548110151561180a57fe5b906000526020600020016000915090505481565b600660003373ffffffffffffffffffffffffffffffffffffffff1673ffffffffffffffffffffffffffffffffffffffff16815260200190815260200160002060009054906101000a900460ff161515156118e0576040517f08c379a00000000000000000000000000000000000000000000000000000000081526004018080602001828103825260208152602001807f506c616e746174696f6e20697320616c7265616479207265676973746572656481525060200191505060405180910390fd5b7f1cb1da47af71799f10f2ac89920e67ec04faa33416f9e5a5b6fad22cf5036f4633604051808273ffffffffffffffffffffffffffffffffffffffff1673ffffffffffffffffffffffffffffffffffffffff16815260200191505060405180910390a16001600760003373ffffffffffffffffffffffffffffffffffffffff1673ffffffffffffffffffffffffffffffffffffffff16815260200190815260200160002060006101000a81548160ff021916908315150217905550565b60076020528060005260406000206000915054906101000a900460ff1681565b600b60009054906101000a900473ffffffffffffffffffffffffffffffffffffffff1681565b600d6020528060005260406000206000915054906101000a900460ff1681565b60046020528060005260406000206000915054906101000a900460ff1681565b600a81815481101515611a3257fe5b90600052602060002090600602016000915090508060000154908060020160009054906101000a900473ffffffffffffffffffffffffffffffffffffffff16908060030160009054906101000a900473ffffffffffffffffffffffffffffffffffffffff16908060040160009054906101000a900473ffffffffffffffffffffffffffffffffffffffff16908060040160149054906101000a900460ff16908060040160159054906101000a900460ff16908060050154905087565b600080611af9612bbd565b6000600660003373ffffffffffffffffffffffffffffffffffffffff1673ffffffffffffffffffffffffffffffffffffffff16815260200190815260200160002060009054906101000a900460ff161515611be2576040517f08c379a00000000000000000000000000000000000000000000000000000000081526004018080602001828103825260258152602001807f4163636573732044656e6965642c206e6f207065726d697373696f6e2064657481526020017f656374656400000000000000000000000000000000000000000000000000000081525060400191505060405180910390fd5b600073ffffffffffffffffffffffffffffffffffffffff166000800160009054906101000a900473ffffffffffffffffffffffffffffffffffffffff1673ffffffffffffffffffffffffffffffffffffffff1614151515611cd1576040517f08c379a00000000000000000000000000000000000000000000000000000000081526004018080602001828103825260288152602001807f4e6f204d696c6c20696e7374616e636520686173206265656e20636f6e66696781526020017f757265642079657400000000000000000000000000000000000000000000000081525060400191505060405180910390fd5b600193506009805490509250610100604051908101604052808881526020013373ffffffffffffffffffffffffffffffffffffffff1681526020013373ffffffffffffffffffffffffffffffffffffffff1681526020016000800160009054906101000a900473ffffffffffffffffffffffffffffffffffffffff1673ffffffffffffffffffffffffffffffffffffffff1681526020018781526020018515158152602001600015158152602001848152509150600982908060018154018082558091505090600182039060005260206000209060070201600090919290919091506000820151816000015560208201518160010160006101000a81548173ffffffffffffffffffffffffffffffffffffffff021916908373ffffffffffffffffffffffffffffffffffffffff16021790555060408201518160020160006101000a81548173ffffffffffffffffffffffffffffffffffffffff021916908373ffffffffffffffffffffffffffffffffffffffff16021790555060608201518160030160006101000a81548173ffffffffffffffffffffffffffffffffffffffff021916908373ffffffffffffffffffffffffffffffffffffffff1602179055506080820151816004015560a08201518160050160006101000a81548160ff02191690831515021790555060c08201518160050160016101000a81548160ff02191690831515021790555060e082015181600601555050503390508073ffffffffffffffffffffffffffffffffffffffff16634e6367c66000800160009054906101000a900473ffffffffffffffffffffffffffffffffffffffff166001600980549050036040518363ffffffff167c0100000000000000000000000000000000000000000000000000000000028152600401808373ffffffffffffffffffffffffffffffffffffffff1673ffffffffffffffffffffffffffffffffffffffff16815260200182815260200192505050600060405180830381600087803b158015611fbb57600080fd5b505af1158015611fcf573d6000803e3d6000fd5b505050508073ffffffffffffffffffffffffffffffffffffffff1663ea9824cf836000015184602001518560400151866060015187608001518860a001518960c001518a60e001518e6040518a63ffffffff167c0100000000000000000000000000000000000000000000000000000000028152600401808a81526020018973ffffffffffffffffffffffffffffffffffffffff1673ffffffffffffffffffffffffffffffffffffffff1681526020018873ffffffffffffffffffffffffffffffffffffffff1673ffffffffffffffffffffffffffffffffffffffff1681526020018773ffffffffffffffffffffffffffffffffffffffff1673ffffffffffffffffffffffffffffffffffffffff16815260200186815260200185151515158152602001841515151581526020018381526020018273ffffffffffffffffffffffffffffffffffffffff1673ffffffffffffffffffffffffffffffffffffffff1681526020019950505050505050505050600060405180830381600087803b15801561215a57600080fd5b505af115801561216e573d6000803e3d6000fd5b5050505050505050505050565b60098181548110151561218a57fe5b90600052602060002090600702016000915090508060000154908060010160009054906101000a900473ffffffffffffffffffffffffffffffffffffffff16908060020160009054906101000a900473ffffffffffffffffffffffffffffffffffffffff16908060030160009054906101000a900473ffffffffffffffffffffffffffffffffffffffff16908060040154908060050160009054906101000a900460ff16908060050160019054906101000a900460ff16908060060154905088565b60008060008061225a612c49565b600080600088511115156122d6576040517f08c379a00000000000000000000000000000000000000000000000000000000081526004018080602001828103825260178152602001807f596f75206d75737420696e636c75646520746f6b656e7300000000000000000081525060200191505060405180910390fd5b6000800160009054906101000a900473ffffffffffffffffffffffffffffffffffffffff1673ffffffffffffffffffffffffffffffffffffffff163373ffffffffffffffffffffffffffffffffffffffff161415156123c3576040517f08c379a00000000000000000000000000000000000000000000000000000000081526004018080602001828103825260348152602001807f4f6e6c7920616374697665206d696c6c206f776e657220697320616c6c6f776581526020017f6420746f2063726561746520434f546f6b656e7300000000000000000000000081525060400191505060405180910390fd5b6001965060009550600094505b87518510156126b5573373ffffffffffffffffffffffffffffffffffffffff166009898781518110151561240057fe5b9060200190602002015181548110151561241657fe5b906000526020600020906007020160030160009054906101000a900473ffffffffffffffffffffffffffffffffffffffff1673ffffffffffffffffffffffffffffffffffffffff161415156124f9576040517f08c379a00000000000000000000000000000000000000000000000000000000081526004018080602001828103825260318152602001807f54686973206973206e6f742074686520696e74656e6465642064657374696e6181526020017f74696f6e206f662074686520746f6b656e00000000000000000000000000000081525060400191505060405180910390fd5b6009888681518110151561250957fe5b9060200190602002015181548110151561251f57fe5b906000526020600020906007020160050160019054906101000a900460ff161515156125d9576040517f08c379a00000000000000000000000000000000000000000000000000000000081526004018080602001828103825260258152602001807f5468697320746f6b656e2068617320616c7265616479206265656e2070726f6381526020017f657373656400000000000000000000000000000000000000000000000000000081525060400191505060405180910390fd5b600e88868151811015156125e957fe5b9060200190602002015190806001815401808255809150509060018203906000526020600020016000909192909190915055506009888681518110151561262c57fe5b9060200190602002015181548110151561264257fe5b906000526020600020906007020160000154860195506009888681518110151561266857fe5b9060200190602002015181548110151561267e57fe5b906000526020600020906007020160050160009054906101000a900460ff1615156126a857600096505b84806001019550506123d0565b6000600e805490501115612af457600a80549050935061010060405190810160405280878152602001600e80548060200260200160405190810160405280929190818152602001828054801561272a57602002820191906000526020600020905b815481526020019060010190808311612716575b505050505081526020016000800160009054906101000a900473ffffffffffffffffffffffffffffffffffffffff1673ffffffffffffffffffffffffffffffffffffffff1681526020013373ffffffffffffffffffffffffffffffffffffffff168152602001600073ffffffffffffffffffffffffffffffffffffffff1681526020018815158152602001600015158152602001858152509250600a8390806001815401808255809150509060018203906000526020600020906006020160009091929091909150600082015181600001556020820151816001019080519060200190612818929190612cd5565b5060408201518160020160006101000a81548173ffffffffffffffffffffffffffffffffffffffff021916908373ffffffffffffffffffffffffffffffffffffffff16021790555060608201518160030160006101000a81548173ffffffffffffffffffffffffffffffffffffffff021916908373ffffffffffffffffffffffffffffffffffffffff16021790555060808201518160040160006101000a81548173ffffffffffffffffffffffffffffffffffffffff021916908373ffffffffffffffffffffffffffffffffffffffff16021790555060a08201518160040160146101000a81548160ff02191690831515021790555060c08201518160040160156101000a81548160ff02191690831515021790555060e082015181600501555050507f30ed1de7eab8b98406ab30ed28da3ce37a6b65508470b47af420d9e49ec7546e836060015184608001516001600a8054905003604051808473ffffffffffffffffffffffffffffffffffffffff1673ffffffffffffffffffffffffffffffffffffffff1681526020018373ffffffffffffffffffffffffffffffffffffffff1673ffffffffffffffffffffffffffffffffffffffff168152602001828152602001935050505060405180910390a1600091505b600e80549050821015612ae5576009600e83815481101515612a0d57fe5b9060005260206000200154815481101515612a2457fe5b9060005260206000209060070201905060018160050160016101000a81548160ff02191690831515021790555060008160030160006101000a81548173ffffffffffffffffffffffffffffffffffffffff021916908373ffffffffffffffffffffffffffffffffffffffff160217905550338160020160006101000a81548173ffffffffffffffffffffffffffffffffffffffff021916908373ffffffffffffffffffffffffffffffffffffffff16021790555081806001019250506129ef565b600e6000612af39190612d22565b5b5050505050505050565b608060405190810160405280600073ffffffffffffffffffffffffffffffffffffffff1681526020016060815260200160608152602001606081525090565b828054600181600116156101000203166002900490600052602060002090601f016020900481019282601f10612b7e57805160ff1916838001178555612bac565b82800160010185558215612bac579182015b82811115612bab578251825591602001919060010190612b90565b5b509050612bb99190612d43565b5090565b6101006040519081016040528060008152602001600073ffffffffffffffffffffffffffffffffffffffff168152602001600073ffffffffffffffffffffffffffffffffffffffff168152602001600073ffffffffffffffffffffffffffffffffffffffff16815260200160008152602001600015158152602001600015158152602001600081525090565b610100604051908101604052806000815260200160608152602001600073ffffffffffffffffffffffffffffffffffffffff168152602001600073ffffffffffffffffffffffffffffffffffffffff168152602001600073ffffffffffffffffffffffffffffffffffffffff168152602001600015158152602001600015158152602001600081525090565b828054828255906000526020600020908101928215612d11579160200282015b82811115612d10578251825591602001919060010190612cf5565b5b509050612d1e9190612d43565b5090565b5080546000825590600052602060002090810190612d409190612d43565b50565b612d6591905b80821115612d61576000816000905550600101612d49565b5090565b905600a165627a7a723058209fa5af1882bd6cb60d9674d245eb5c818badef4e3dfb9936922fbbb0b0b070180029",
  "source": "pragma solidity ^0.4.0;\r\nimport './Plantation.sol';\r\n\r\n\r\nlibrary TokenDefinitions {\r\n        struct FFBToken {\r\n\r\n        uint weight;\r\n        address plantationOrigin;\r\n        address owner;\r\n        address newOwner;\r\n        uint harvestTimeStamp;\r\n        bool RSPOCertified;\r\n        bool processed;\r\n        uint tokenId;\r\n    \r\n\r\n    } \r\n\r\n       struct COToken {\r\n\r\n        uint weight;\r\n        uint[] containedFFB;\r\n        address millOrigin;\r\n        address owner;\r\n        address newOwner;\r\n        bool RSPOCertified;\r\n        bool processed;\r\n        uint tokenId;\r\n    }\r\n}\r\n\r\ncontract Consortium {\r\n    \r\n \r\n\r\n    struct Mill {\r\n        address associatedAddress;\r\n        string GPSLongitude;\r\n        string GPSLatitude;     \r\n        string name;\r\n\r\n    }\r\n    \r\n\r\n    //Events:\r\n    event FFBTokenSubmitted(address owner, address newOwner, uint index);\r\n    event COTokenSubmitted(address owner, address newOwner, uint index);\r\n    event PlantationSubmissionRequested(address plantationAddressOrigin);\r\n    event PlantationSubmissionApproved(address plantationAddressOrigin);\r\n\r\n   // event PlantationSubmissionRequested(address owner, address newOwner, uint index);\r\n    \r\n    Mill public activeMill;\r\n\r\n   mapping (address => bool) public plantations;\r\n\r\n   address[] public plantationAddresses;\r\n    \r\n    mapping (address => bool) public registeredPlantations;\r\n\r\n//    Mapping below has been left out. May be relevant in future implementations. \r\n//    mapping (address => bool) public certifiedPlantations;\r\n\r\n\r\n     mapping (address => bool) public pendingPlantationRequests;\r\n     address[] public pendingPlantationRequestsArray;\r\n\r\n\r\n    TokenDefinitions.FFBToken[] public FFBTokens;\r\n\r\n\r\n   \r\n     TokenDefinitions.COToken[] public COTokens;\r\n    \r\n    address public RSPOAdministrator;\r\n    \r\n    mapping (bytes32 => bool) public COExists;\r\n    \r\n    mapping (bytes32 => bool) public FFBExists;\r\n\r\n    uint[] public tokensToInclude;\r\n    \r\n    modifier onlyRSPOAdmin {\r\n        require(msg.sender == RSPOAdministrator, \"RSPO authentication required\");\r\n         _;\r\n    }\r\n    \r\n    constructor(address RSPOAdmin) public {\r\n        RSPOAdministrator = RSPOAdmin;\r\n    }\r\n\r\n    //Request addition of new Plantation to consortium\r\n    function requestPlantationSubscription() public {\r\n      \r\n                //msg.sender is assumed to be address of plantation\r\n        require(!registeredPlantations[msg.sender], \"Plantation is already registered\");\r\n\r\n        \r\n        emit PlantationSubmissionRequested(msg.sender);\r\n        \r\n        pendingPlantationRequests[msg.sender] = true;\r\n        \r\n        \r\n    }\r\n    \r\n    function approvePlantationRequest(address plantationToAdd) public onlyRSPOAdmin {\r\n        \r\n        //Index may be derived from planatation hash rather than passed with index\r\n\r\n        plantations[plantationToAdd] = true;\r\n        plantationAddresses.push(plantationToAdd);\r\n        \r\n        registeredPlantations[plantationToAdd] = true;\r\n        delete pendingPlantationRequests[plantationToAdd];\r\n        emit PlantationSubmissionApproved(plantationToAdd);\r\n\r\n        Plantation p = Plantation(plantationToAdd);\r\n        p.setPlantationApproved(true, msg.sender);\r\n        \r\n    }\r\n    \r\n    function setMill(string GPSLongitude,\r\n        string GPSLatitude,\r\n        \r\n        string name,\r\n        address origin) public onlyRSPOAdmin {\r\n            \r\n            Mill memory newMill = Mill({\r\n            name: name,\r\n            associatedAddress: origin,\r\n            GPSLatitude:GPSLatitude,\r\n            GPSLongitude:GPSLongitude\r\n        });\r\n        \r\n        activeMill = newMill;\r\n        \r\n    }\r\n    \r\n    \r\n    function submitFFBToken(\r\n        uint weight,\r\n        uint harvestTimeStamp,\r\n        address plantationOwner\r\n        ) public {\r\n\r\n        //Find date lsning\r\n        //Assume call comes from plantation contract => msg.sender is valid\r\n        require(registeredPlantations[msg.sender], \"Access Denied, no permission detected\");\r\n        require(activeMill.associatedAddress != 0x0000000000000000000000000000000000000000, \"No Mill instance has been configured yet\");\r\n        \r\n        // Below may be changed if non certified plantations should be granted access.\r\n        bool isCertified = true; \r\n        uint tokenIndex = FFBTokens.length;\r\n\r\n\r\n        TokenDefinitions.FFBToken memory token = TokenDefinitions.FFBToken({\r\n         weight: weight,\r\n         plantationOrigin: msg.sender,\r\n         owner: msg.sender,\r\n         newOwner: activeMill.associatedAddress,\r\n         harvestTimeStamp: harvestTimeStamp,\r\n         RSPOCertified: isCertified,\r\n         processed: false,\r\n         tokenId: tokenIndex});\r\n\r\n        FFBTokens.push(token);\r\n\r\n             Plantation p = Plantation(msg.sender);\r\n             p.emitFFBEvent( activeMill.associatedAddress, FFBTokens.length -1);\r\n             p.saveFFBToken(\r\n                 token.weight,\r\n                 token.plantationOrigin,\r\n                 token.owner,\r\n                 token.newOwner,\r\n                 token.harvestTimeStamp,\r\n                 token.RSPOCertified,\r\n                 token.processed,\r\n                 token.tokenId,\r\n                 plantationOwner);\r\n        \r\n       \r\n        }\r\n\r\n    \r\n    function consumeFFBTokens( uint[] tokenIndexes) public {\r\n        require(tokenIndexes.length > 0, \"You must include tokens\");\r\n\r\n        //Calculate token weight from FFB tokens\r\n        require(msg.sender == activeMill.associatedAddress, \"Only active mill owner is allowed to create COTokens\");\r\n        bool allTokensCertified = true;\r\n        uint coWeight = 0;\r\n        for (uint i=0; i<tokenIndexes.length; i++) {\r\n\r\n\r\n               require(FFBTokens[tokenIndexes[i]].newOwner == msg.sender, \"This is not the intended destination of the token\");\r\n               require(!FFBTokens[tokenIndexes[i]].processed, \"This token has already been processed\");\r\n                     \r\n                tokensToInclude.push(tokenIndexes[i]);\r\n                coWeight += FFBTokens[tokenIndexes[i]].weight;\r\n                if(!FFBTokens[tokenIndexes[i]].RSPOCertified){\r\n                 \r\n                    allTokensCertified = false;\r\n                }              \r\n                \r\n        }\r\n\r\n        if(tokensToInclude.length > 0){\r\n            uint tokenIndex = COTokens.length;\r\n           \r\n            TokenDefinitions.COToken memory token =  TokenDefinitions.COToken({\r\n             weight: coWeight,\r\n             containedFFB: tokensToInclude,\r\n             owner: msg.sender,\r\n             newOwner:  0,\r\n             millOrigin: activeMill.associatedAddress,\r\n             RSPOCertified: allTokensCertified,\r\n             processed: false,\r\n             tokenId: tokenIndex\r\n    \r\n            });\r\n\r\n            COTokens.push(token);\r\n           emit COTokenSubmitted(token.owner, token.newOwner, COTokens.length-1);\r\n                 for (uint j=0; j<tokensToInclude.length; j++) {\r\n                 TokenDefinitions.FFBToken storage tokenToUpdate =  FFBTokens[tokensToInclude[j]];\r\n                  tokenToUpdate.processed = true;\r\n                  tokenToUpdate.newOwner = 0;\r\n                  tokenToUpdate.owner = msg.sender;\r\n           \r\n                 }\r\n            delete tokensToInclude;\r\n\r\n        }\r\n    }\r\n\r\n    function revokePlantationAccess(address plantation) onlyRSPOAdmin public {\r\n        delete registeredPlantations[plantation];\r\n          Plantation p = Plantation(plantation);\r\n                 p.setPlantationApproved(false, msg.sender);\r\n    }\r\n\r\n    function getPlantationAtAddress(address plantation) onlyRSPOAdmin public view returns(address){\r\n        return plantation;\r\n        \r\n    }\r\n\r\n    function getFFBTokenAtIndex(uint index) public view returns(      \r\n        uint,\r\n        address,\r\n        address,\r\n        address,\r\n        uint,\r\n        bool,\r\n        bool,\r\n        uint){\r\nTokenDefinitions.FFBToken memory token = FFBTokens[index];\r\n\r\nreturn(token.weight, token.plantationOrigin, token.owner, \r\n       token.newOwner, token.harvestTimeStamp,\r\n       token.RSPOCertified, token.processed, token.tokenId);\r\n\r\n            \r\n        }\r\n\r\n \r\n \r\n}",
  "sourcePath": "C:\\Users\\MAG\\source\\repos\\Bachelor\\PalmChain\\Ethereum\\contracts\\Consortium.sol",
  "compiler": {
    "name": "solc",
    "version": "0.4.24+commit.e67f0147.Emscripten.clang"
  },
  "schemaVersion": "2.0.1",
  "updatedAt": "2018-12-03T13:39:06.233Z"
}