{
  "contractName": "Plantation",
  "abi": [
    {
      "constant": true,
      "inputs": [],
      "name": "RSPOAdministratorConsortium",
      "outputs": [
        {
          "name": "",
          "type": "address"
        }
      ],
      "payable": false,
      "stateMutability": "view",
      "type": "function"
    },
    {
      "constant": true,
      "inputs": [],
      "name": "Name",
      "outputs": [
        {
          "name": "",
          "type": "string"
        }
      ],
      "payable": false,
      "stateMutability": "view",
      "type": "function"
    },
    {
      "constant": true,
      "inputs": [],
      "name": "plantationOwner",
      "outputs": [
        {
          "name": "",
          "type": "address"
        }
      ],
      "payable": false,
      "stateMutability": "view",
      "type": "function"
    },
    {
      "constant": true,
      "inputs": [],
      "name": "pendingApproval",
      "outputs": [
        {
          "name": "",
          "type": "bool"
        }
      ],
      "payable": false,
      "stateMutability": "view",
      "type": "function"
    },
    {
      "constant": true,
      "inputs": [],
      "name": "approvedByConsortium",
      "outputs": [
        {
          "name": "",
          "type": "bool"
        }
      ],
      "payable": false,
      "stateMutability": "view",
      "type": "function"
    },
    {
      "constant": true,
      "inputs": [
        {
          "name": "",
          "type": "address"
        }
      ],
      "name": "plantationPermit",
      "outputs": [
        {
          "name": "",
          "type": "address"
        }
      ],
      "payable": false,
      "stateMutability": "view",
      "type": "function"
    },
    {
      "constant": true,
      "inputs": [
        {
          "name": "",
          "type": "uint256"
        }
      ],
      "name": "FFBTokens",
      "outputs": [
        {
          "name": "weight",
          "type": "uint256"
        },
        {
          "name": "plantationOrigin",
          "type": "address"
        },
        {
          "name": "owner",
          "type": "address"
        },
        {
          "name": "newOwner",
          "type": "address"
        },
        {
          "name": "harvestTimeStamp",
          "type": "uint256"
        },
        {
          "name": "RSPOCertified",
          "type": "bool"
        },
        {
          "name": "processed",
          "type": "bool"
        },
        {
          "name": "tokenId",
          "type": "uint256"
        }
      ],
      "payable": false,
      "stateMutability": "view",
      "type": "function"
    },
    {
      "inputs": [
        {
          "name": "_consortiumOwnerAddress",
          "type": "address"
        },
        {
          "name": "assignedPlantationOwner",
          "type": "address"
        },
        {
          "name": "rspoAdmin",
          "type": "address"
        }
      ],
      "payable": false,
      "stateMutability": "nonpayable",
      "type": "constructor"
    },
    {
      "anonymous": false,
      "inputs": [
        {
          "indexed": false,
          "name": "owner",
          "type": "address"
        },
        {
          "indexed": false,
          "name": "newOwner",
          "type": "address"
        },
        {
          "indexed": false,
          "name": "index",
          "type": "uint256"
        }
      ],
      "name": "FFBTokenSubmitted",
      "type": "event"
    },
    {
      "constant": false,
      "inputs": [
        {
          "name": "name",
          "type": "string"
        }
      ],
      "name": "setPlantationName",
      "outputs": [],
      "payable": false,
      "stateMutability": "nonpayable",
      "type": "function"
    },
    {
      "constant": false,
      "inputs": [
        {
          "name": "GPSLongitudeParam",
          "type": "string"
        }
      ],
      "name": "setPlantationLongitude",
      "outputs": [],
      "payable": false,
      "stateMutability": "nonpayable",
      "type": "function"
    },
    {
      "constant": false,
      "inputs": [
        {
          "name": "GPSlatitudeParam",
          "type": "string"
        }
      ],
      "name": "setPlantationLatitude",
      "outputs": [],
      "payable": false,
      "stateMutability": "nonpayable",
      "type": "function"
    },
    {
      "constant": true,
      "inputs": [],
      "name": "getPlantationInformation",
      "outputs": [
        {
          "name": "",
          "type": "string"
        },
        {
          "name": "",
          "type": "bool"
        },
        {
          "name": "",
          "type": "bool"
        },
        {
          "name": "",
          "type": "address"
        }
      ],
      "payable": false,
      "stateMutability": "view",
      "type": "function"
    },
    {
      "constant": false,
      "inputs": [],
      "name": "requestPlantationSubscription",
      "outputs": [],
      "payable": false,
      "stateMutability": "nonpayable",
      "type": "function"
    },
    {
      "constant": false,
      "inputs": [
        {
          "name": "approved",
          "type": "bool"
        },
        {
          "name": "origin",
          "type": "address"
        }
      ],
      "name": "setPlantationApproved",
      "outputs": [],
      "payable": false,
      "stateMutability": "nonpayable",
      "type": "function"
    },
    {
      "constant": false,
      "inputs": [
        {
          "name": "weight",
          "type": "uint256"
        },
        {
          "name": "harvestTimeStamp",
          "type": "uint256"
        }
      ],
      "name": "submitFFBToken",
      "outputs": [],
      "payable": false,
      "stateMutability": "nonpayable",
      "type": "function"
    },
    {
      "constant": false,
      "inputs": [
        {
          "name": "millAddress",
          "type": "address"
        },
        {
          "name": "index",
          "type": "uint256"
        }
      ],
      "name": "emitFFBEvent",
      "outputs": [],
      "payable": false,
      "stateMutability": "nonpayable",
      "type": "function"
    },
    {
      "constant": false,
      "inputs": [
        {
          "name": "weight",
          "type": "uint256"
        },
        {
          "name": "plantationOrigin",
          "type": "address"
        },
        {
          "name": "owner",
          "type": "address"
        },
        {
          "name": "newOwner",
          "type": "address"
        },
        {
          "name": "harvestTimeStamp",
          "type": "uint256"
        },
        {
          "name": "RSPOCertified",
          "type": "bool"
        },
        {
          "name": "processed",
          "type": "bool"
        },
        {
          "name": "tokenId",
          "type": "uint256"
        },
        {
          "name": "callOrigin",
          "type": "address"
        }
      ],
      "name": "saveFFBToken",
      "outputs": [],
      "payable": false,
      "stateMutability": "nonpayable",
      "type": "function"
    },
    {
      "constant": true,
      "inputs": [],
      "name": "getTokenAmount",
      "outputs": [
        {
          "name": "",
          "type": "uint256"
        }
      ],
      "payable": false,
      "stateMutability": "view",
      "type": "function"
    }
  ],
  "bytecode": "0x60806040526000600160146101000a81548160ff0219169083151502179055506000600660146101000a81548160ff0219169083151502179055506040805190810160405280600a81526020017f556e736574204e616d6500000000000000000000000000000000000000000000815250600790805190602001906200008792919062000198565b503480156200009557600080fd5b5060405160608062001aaf83398101806040528101908080519060200190929190805190602001909291908051906020019092919050505081600160006101000a81548173ffffffffffffffffffffffffffffffffffffffff021916908373ffffffffffffffffffffffffffffffffffffffff16021790555080600660006101000a81548173ffffffffffffffffffffffffffffffffffffffff021916908373ffffffffffffffffffffffffffffffffffffffff160217905550826000806101000a81548173ffffffffffffffffffffffffffffffffffffffff021916908373ffffffffffffffffffffffffffffffffffffffff16021790555050505062000247565b828054600181600116156101000203166002900490600052602060002090601f016020900481019282601f10620001db57805160ff19168380011785556200020c565b828001600101855582156200020c579182015b828111156200020b578251825591602001919060010190620001ee565b5b5090506200021b91906200021f565b5090565b6200024491905b808211156200024057600081600090555060010162000226565b5090565b90565b61185880620002576000396000f3006080604052600436106100f1576000357c0100000000000000000000000000000000000000000000000000000000900463ffffffff16806308536ed5146100f657806323a9b7501461015f5780634146a110146101c857806348bcfa3e1461021f57806348cc641e146102885780634e6367c61461036157806375f91ec8146103ae5780638052474d146103d957806387395ddc146104695780639aea423c146104b8578063a30bf02c146104cf578063ad0b2b9f14610526578063ccabd01914610555578063d77d976714610584578063ea9824cf14610607578063ed98c667146106e0578063ef72bd1f146107de575b600080fd5b34801561010257600080fd5b5061015d600480360381019080803590602001908201803590602001908080601f0160208091040260200160405190810160405280939291908181526020018383808284378201915050505050509192919290505050610815565b005b34801561016b57600080fd5b506101c6600480360381019080803590602001908201803590602001908080601f016020809104026020016040519081016040528093929190818152602001838380828437820191505050505050919291929050505061091a565b005b3480156101d457600080fd5b506101dd610a1f565b604051808273ffffffffffffffffffffffffffffffffffffffff1673ffffffffffffffffffffffffffffffffffffffff16815260200191505060405180910390f35b34801561022b57600080fd5b50610286600480360381019080803590602001908201803590602001908080601f0160208091040260200160405190810160405280939291908181526020018383808284378201915050505050509192919290505050610a45565b005b34801561029457600080fd5b5061029d610b4a565b604051808060200185151515158152602001841515151581526020018373ffffffffffffffffffffffffffffffffffffffff1673ffffffffffffffffffffffffffffffffffffffff168152602001828103825286818151815260200191508051906020019080838360005b83811015610323578082015181840152602081019050610308565b50505050905090810190601f1680156103505780820380516001836020036101000a031916815260200191505b509550505050505060405180910390f35b34801561036d57600080fd5b506103ac600480360381019080803573ffffffffffffffffffffffffffffffffffffffff16906020019092919080359060200190929190505050610c40565b005b3480156103ba57600080fd5b506103c3610ce3565b6040518082815260200191505060405180910390f35b3480156103e557600080fd5b506103ee610cf0565b6040518080602001828103825283818151815260200191508051906020019080838360005b8381101561042e578082015181840152602081019050610413565b50505050905090810190601f16801561045b5780820380516001836020036101000a031916815260200191505b509250505060405180910390f35b34801561047557600080fd5b506104b6600480360381019080803515159060200190929190803573ffffffffffffffffffffffffffffffffffffffff169060200190929190505050610d8e565b005b3480156104c457600080fd5b506104cd610ebd565b005b3480156104db57600080fd5b506104e461110d565b604051808273ffffffffffffffffffffffffffffffffffffffff1673ffffffffffffffffffffffffffffffffffffffff16815260200191505060405180910390f35b34801561053257600080fd5b5061053b611133565b604051808215151515815260200191505060405180910390f35b34801561056157600080fd5b5061056a611146565b604051808215151515815260200191505060405180910390f35b34801561059057600080fd5b506105c5600480360381019080803573ffffffffffffffffffffffffffffffffffffffff169060200190929190505050611159565b604051808273ffffffffffffffffffffffffffffffffffffffff1673ffffffffffffffffffffffffffffffffffffffff16815260200191505060405180910390f35b34801561061357600080fd5b506106de60048036038101908080359060200190929190803573ffffffffffffffffffffffffffffffffffffffff169060200190929190803573ffffffffffffffffffffffffffffffffffffffff169060200190929190803573ffffffffffffffffffffffffffffffffffffffff1690602001909291908035906020019092919080351515906020019092919080351515906020019092919080359060200190929190803573ffffffffffffffffffffffffffffffffffffffff16906020019092919050505061118c565b005b3480156106ec57600080fd5b5061070b60048036038101908080359060200190929190505050611498565b604051808981526020018873ffffffffffffffffffffffffffffffffffffffff1673ffffffffffffffffffffffffffffffffffffffff1681526020018773ffffffffffffffffffffffffffffffffffffffff1673ffffffffffffffffffffffffffffffffffffffff1681526020018673ffffffffffffffffffffffffffffffffffffffff1673ffffffffffffffffffffffffffffffffffffffff16815260200185815260200184151515158152602001831515151581526020018281526020019850505050505050505060405180910390f35b3480156107ea57600080fd5b506108136004803603810190808035906020019092919080359060200190929190505050611569565b005b600160009054906101000a900473ffffffffffffffffffffffffffffffffffffffff1673ffffffffffffffffffffffffffffffffffffffff163373ffffffffffffffffffffffffffffffffffffffff16141515610900576040517f08c379a00000000000000000000000000000000000000000000000000000000081526004018080602001828103825260388152602001807f4f6e6c792061646d696e6973747261746f72206d6179206368616e676520746881526020017f652076616c7565206f6620746869732070726f7065727479000000000000000081525060400191505060405180910390fd5b80600790805190602001906109169291906116fb565b5050565b600160009054906101000a900473ffffffffffffffffffffffffffffffffffffffff1673ffffffffffffffffffffffffffffffffffffffff163373ffffffffffffffffffffffffffffffffffffffff16141515610a05576040517f08c379a00000000000000000000000000000000000000000000000000000000081526004018080602001828103825260388152602001807f4f6e6c792061646d696e6973747261746f72206d6179206368616e676520746881526020017f652076616c7565206f6620746869732070726f7065727479000000000000000081525060400191505060405180910390fd5b8060059080519060200190610a1b9291906116fb565b5050565b600660009054906101000a900473ffffffffffffffffffffffffffffffffffffffff1681565b600160009054906101000a900473ffffffffffffffffffffffffffffffffffffffff1673ffffffffffffffffffffffffffffffffffffffff163373ffffffffffffffffffffffffffffffffffffffff16141515610b30576040517f08c379a00000000000000000000000000000000000000000000000000000000081526004018080602001828103825260388152602001807f4f6e6c792061646d696e6973747261746f72206d6179206368616e676520746881526020017f652076616c7565206f6620746869732070726f7065727479000000000000000081525060400191505060405180910390fd5b8060049080519060200190610b469291906116fb565b5050565b606060008060006007600160149054906101000a900460ff16600660149054906101000a900460ff16600160009054906101000a900473ffffffffffffffffffffffffffffffffffffffff16838054600181600116156101000203166002900480601f016020809104026020016040519081016040528092919081815260200182805460018160011615610100020316600290048015610c2b5780601f10610c0057610100808354040283529160200191610c2b565b820191906000526020600020905b815481529060010190602001808311610c0e57829003601f168201915b50505050509350935093509350935090919293565b7f5cdbeeb76e60260c527738fff6709ccbc0a6db2e67575fa29b5a972eeb68cf84308383604051808473ffffffffffffffffffffffffffffffffffffffff1673ffffffffffffffffffffffffffffffffffffffff1681526020018373ffffffffffffffffffffffffffffffffffffffff1673ffffffffffffffffffffffffffffffffffffffff168152602001828152602001935050505060405180910390a15050565b6000600280549050905090565b60078054600181600116156101000203166002900480601f016020809104026020016040519081016040528092919081815260200182805460018160011615610100020316600290048015610d865780601f10610d5b57610100808354040283529160200191610d86565b820191906000526020600020905b815481529060010190602001808311610d6957829003601f168201915b505050505081565b600660009054906101000a900473ffffffffffffffffffffffffffffffffffffffff1673ffffffffffffffffffffffffffffffffffffffff168173ffffffffffffffffffffffffffffffffffffffff16141515610e9f576040517f08c379a00000000000000000000000000000000000000000000000000000000081526004018080602001828103825260438152602001807f6f6e6c79207468652061737369676e656420636f6e736f727469756d2061646d81526020017f696e6973747261746f722063616e20617070726f7665206120706c616e74617481526020017f696f6e000000000000000000000000000000000000000000000000000000000081525060600191505060405180910390fd5b81600160146101000a81548160ff0219169083151502179055505050565b600160149054906101000a900460ff16151515610f68576040517f08c379a00000000000000000000000000000000000000000000000000000000081526004018080602001828103825260298152602001807f5468697320706c616e746174696f6e2068617320616c7265616479206265656e81526020017f20617070726f766564000000000000000000000000000000000000000000000081525060400191505060405180910390fd5b600160009054906101000a900473ffffffffffffffffffffffffffffffffffffffff1673ffffffffffffffffffffffffffffffffffffffff163373ffffffffffffffffffffffffffffffffffffffff16141515611053576040517f08c379a00000000000000000000000000000000000000000000000000000000081526004018080602001828103825260328152602001807f4f6e6c79206f776e6572206d6179207365656b207065726d697373696f6e207481526020017f6f20656e74657220636f6e736f727469756d000000000000000000000000000081525060400191505060405180910390fd5b6000809054906101000a900473ffffffffffffffffffffffffffffffffffffffff1673ffffffffffffffffffffffffffffffffffffffff16639aea423c6040518163ffffffff167c0100000000000000000000000000000000000000000000000000000000028152600401600060405180830381600087803b1580156110d857600080fd5b505af11580156110ec573d6000803e3d6000fd5b505050506001600660146101000a81548160ff021916908315150217905550565b600160009054906101000a900473ffffffffffffffffffffffffffffffffffffffff1681565b600660149054906101000a900460ff1681565b600160149054906101000a900460ff1681565b60086020528060005260406000206000915054906101000a900473ffffffffffffffffffffffffffffffffffffffff1681565b61119461177b565b600160009054906101000a900473ffffffffffffffffffffffffffffffffffffffff1673ffffffffffffffffffffffffffffffffffffffff168273ffffffffffffffffffffffffffffffffffffffff161415156112a5576040517f08c379a00000000000000000000000000000000000000000000000000000000081526004018080602001828103825260538152602001807f746869732066756e6374696f6e206973206f6e6c792063616c6c61626c65206181526020017f73206120726573756c74206f6620616e20616464656420746f6b656e20696e2081526020017f74686520706172656e7420636f6e74726163740000000000000000000000000081525060600191505060405180910390fd5b610100604051908101604052808b81526020018a73ffffffffffffffffffffffffffffffffffffffff1681526020018973ffffffffffffffffffffffffffffffffffffffff1681526020018873ffffffffffffffffffffffffffffffffffffffff16815260200187815260200186151581526020018515158152602001848152509050600281908060018154018082558091505090600182039060005260206000209060070201600090919290919091506000820151816000015560208201518160010160006101000a81548173ffffffffffffffffffffffffffffffffffffffff021916908373ffffffffffffffffffffffffffffffffffffffff16021790555060408201518160020160006101000a81548173ffffffffffffffffffffffffffffffffffffffff021916908373ffffffffffffffffffffffffffffffffffffffff16021790555060608201518160030160006101000a81548173ffffffffffffffffffffffffffffffffffffffff021916908373ffffffffffffffffffffffffffffffffffffffff1602179055506080820151816004015560a08201518160050160006101000a81548160ff02191690831515021790555060c08201518160050160016101000a81548160ff02191690831515021790555060e0820151816006015550505050505050505050505050565b6002818154811015156114a757fe5b90600052602060002090600702016000915090508060000154908060010160009054906101000a900473ffffffffffffffffffffffffffffffffffffffff16908060020160009054906101000a900473ffffffffffffffffffffffffffffffffffffffff16908060030160009054906101000a900473ffffffffffffffffffffffffffffffffffffffff16908060040154908060050160009054906101000a900460ff16908060050160019054906101000a900460ff16908060060154905088565b600160149054906101000a900460ff161515611613576040517f08c379a00000000000000000000000000000000000000000000000000000000081526004018080602001828103825260258152602001807f4163636573732044656e6965642c206e6f207065726d697373696f6e2064657481526020017f656374656400000000000000000000000000000000000000000000000000000081525060400191505060405180910390fd5b6000809054906101000a900473ffffffffffffffffffffffffffffffffffffffff1673ffffffffffffffffffffffffffffffffffffffff1663eaea3e808383336040518463ffffffff167c0100000000000000000000000000000000000000000000000000000000028152600401808481526020018381526020018273ffffffffffffffffffffffffffffffffffffffff1673ffffffffffffffffffffffffffffffffffffffff1681526020019350505050600060405180830381600087803b1580156116df57600080fd5b505af11580156116f3573d6000803e3d6000fd5b505050505050565b828054600181600116156101000203166002900490600052602060002090601f016020900481019282601f1061173c57805160ff191683800117855561176a565b8280016001018555821561176a579182015b8281111561176957825182559160200191906001019061174e565b5b5090506117779190611807565b5090565b6101006040519081016040528060008152602001600073ffffffffffffffffffffffffffffffffffffffff168152602001600073ffffffffffffffffffffffffffffffffffffffff168152602001600073ffffffffffffffffffffffffffffffffffffffff16815260200160008152602001600015158152602001600015158152602001600081525090565b61182991905b8082111561182557600081600090555060010161180d565b5090565b905600a165627a7a72305820b5e4fe0f65ed8b619bdfc8651d0226851a7c0446d1c9771174ccad908406487c0029",
  "source": "pragma solidity ^0.4.24;\r\n\r\n\r\n\r\nimport './Consortium.sol';\r\n\r\n\r\nimport { TokenDefinitions } from \"./Consortium.sol\";\r\n\r\n\r\ncontract Plantation {\r\n\r\n\r\n\r\n    Consortium private consortium;\r\n    address public plantationOwner;\r\n    bool public approvedByConsortium = false;\r\n   // bool public certifiedByConsortium = false;\r\n\r\n\r\n    \r\n    TokenDefinitions.FFBToken[] public FFBTokens;\r\n    uint capacity;\r\n    string GPSLongitude;\r\n    string GPSlatitude; \r\n    address public RSPOAdministratorConsortium;\r\n    bool public pendingApproval = false;\r\n    string public Name = \"Unset Name\";\r\n    \r\n\r\n\r\n    event FFBTokenSubmitted(address owner, address newOwner, uint index);\r\n    mapping (address => address) public plantationPermit;\r\n\r\n\r\n    constructor(address _consortiumOwnerAddress, address assignedPlantationOwner, address rspoAdmin) public {\r\n    plantationOwner = assignedPlantationOwner;\r\n    RSPOAdministratorConsortium = rspoAdmin;\r\n    consortium = Consortium(_consortiumOwnerAddress);\r\n    }  \r\n\r\n    function setPlantationName(string name) public{\r\n        require(msg.sender == plantationOwner, \"Only administrator may change the value of this property\");\r\n        Name = name;\r\n    }\r\n\r\n    \r\n    function setPlantationLongitude(string GPSLongitudeParam) public {\r\n        require(msg.sender == plantationOwner, \"Only administrator may change the value of this property\");\r\n        GPSLongitude = GPSLongitudeParam;\r\n    }\r\n\r\n    \r\n    function setPlantationLatitude(string GPSlatitudeParam) public {\r\n        require(msg.sender == plantationOwner, \"Only administrator may change the value of this property\");\r\n        GPSlatitude = GPSlatitudeParam;\r\n    }\r\n\r\n     function getPlantationInformation() public view returns (string, bool, bool, address) {\r\n        return (Name, approvedByConsortium, pendingApproval, plantationOwner);\r\n    }\r\n\r\n\r\n    //Request addition of this plantation to consortium origin\r\n    function requestPlantationSubscription() public {\r\n      \r\n    require(!approvedByConsortium, \"This plantation has already been approved\");\r\n    require(msg.sender == plantationOwner, \"Only owner may seek permission to enter consortium\");\r\n        consortium.requestPlantationSubscription();\r\n        pendingApproval = true;\r\n    }\r\n\r\n    function setPlantationApproved(bool approved, address origin) public {\r\n\r\n        require(origin == RSPOAdministratorConsortium, \"only the assigned consortium administrator can approve a plantation\");\r\n\r\n        approvedByConsortium = approved;\r\n       \r\n    }\r\n\r\n\r\n        \r\n    function submitFFBToken(\r\n        uint weight,\r\n        uint harvestTimeStamp\r\n        \r\n        ) public {\r\n\r\n        //Find date løsning\r\n        //Assume call comes from plantation contract => msg.sender is valid\r\n        require(approvedByConsortium, \"Access Denied, no permission detected\");\r\n            consortium.submitFFBToken(weight, harvestTimeStamp, msg.sender);\r\n\r\n       \r\n        }\r\n\r\n\r\n    function emitFFBEvent(address millAddress, uint index) public {\r\n        emit FFBTokenSubmitted(this, millAddress, index);\r\n      \r\n    }\r\n\r\n    function saveFFBToken(\r\n        uint weight,\r\n        address plantationOrigin,\r\n        address owner,\r\n        address newOwner,\r\n        uint harvestTimeStamp,\r\n        bool RSPOCertified,\r\n        bool processed,\r\n        uint tokenId,\r\n        address callOrigin) public {\r\n\r\n        require(callOrigin == plantationOwner, \"this function is only callable as a result of an added token in the parent contract\");\r\n\r\n        TokenDefinitions.FFBToken memory token = TokenDefinitions.FFBToken({\r\n         weight: weight,\r\n         plantationOrigin: plantationOrigin,\r\n         owner: owner,\r\n         newOwner: newOwner,\r\n         harvestTimeStamp: harvestTimeStamp,\r\n         RSPOCertified: RSPOCertified,\r\n         processed: processed,\r\n         tokenId: tokenId});\r\n    \r\n        FFBTokens.push(token);\r\n\r\n\r\n    }\r\n\r\n    function getTokenAmount() public view returns (uint) {\r\n\r\n        return FFBTokens.length;\r\n    }\r\n\r\n    //  function getTokenIds() public view  returns (uint[] memory idCollection) {\r\n    //       uint length = FFBTokens.length;\r\n     \r\n\r\n    //      for (uint i=0; i<FFBTokens.length; i++) {\r\n\r\n    //          idCollection[i] = FFBTokens[i].tokenId;\r\n    //       }\r\n    //     return idCollection;\r\n    // }\r\n       \r\n\r\n    \r\n}",
  "sourcePath": "C:\\Users\\MAG\\source\\repos\\Bachelor\\PalmChain\\Ethereum\\contracts\\Plantation.sol",
  "compiler": {
    "name": "solc",
    "version": "0.4.24+commit.e67f0147.Emscripten.clang"
  },
  "schemaVersion": "2.0.1",
  "updatedAt": "2018-12-06T11:47:11.977Z"
}