{
  "contractName": "Plantation",
  "abi": [
    {
      "constant": true,
      "inputs": [],
      "name": "certifiedByConsortium",
      "outputs": [
        {
          "name": "",
          "type": "bool"
        }
      ],
      "payable": false,
      "stateMutability": "view",
      "type": "function"
    },
    {
      "constant": true,
      "inputs": [],
      "name": "RSPOAdministratorConsortium",
      "outputs": [
        {
          "name": "",
          "type": "address"
        }
      ],
      "payable": false,
      "stateMutability": "view",
      "type": "function"
    },
    {
      "constant": true,
      "inputs": [],
      "name": "plantationOwner",
      "outputs": [
        {
          "name": "",
          "type": "address"
        }
      ],
      "payable": false,
      "stateMutability": "view",
      "type": "function"
    },
    {
      "constant": true,
      "inputs": [],
      "name": "approvedByConsortium",
      "outputs": [
        {
          "name": "",
          "type": "bool"
        }
      ],
      "payable": false,
      "stateMutability": "view",
      "type": "function"
    },
    {
      "constant": true,
      "inputs": [
        {
          "name": "",
          "type": "address"
        }
      ],
      "name": "plantationPermit",
      "outputs": [
        {
          "name": "",
          "type": "address"
        }
      ],
      "payable": false,
      "stateMutability": "view",
      "type": "function"
    },
    {
      "inputs": [
        {
          "name": "_consortiumOwnerAddress",
          "type": "address"
        },
        {
          "name": "origin",
          "type": "address"
        },
        {
          "name": "rspoAdmin",
          "type": "address"
        }
      ],
      "payable": false,
      "stateMutability": "nonpayable",
      "type": "constructor"
    },
    {
      "anonymous": false,
      "inputs": [
        {
          "indexed": false,
          "name": "owner",
          "type": "address"
        },
        {
          "indexed": false,
          "name": "newOwner",
          "type": "address"
        },
        {
          "indexed": false,
          "name": "index",
          "type": "uint256"
        }
      ],
      "name": "FFBTokenSubmitted",
      "type": "event"
    },
    {
      "constant": false,
      "inputs": [],
      "name": "requestPlantationSubscription",
      "outputs": [],
      "payable": false,
      "stateMutability": "nonpayable",
      "type": "function"
    },
    {
      "constant": false,
      "inputs": [
        {
          "name": "approved",
          "type": "bool"
        },
        {
          "name": "origin",
          "type": "address"
        }
      ],
      "name": "setPlantationApproved",
      "outputs": [],
      "payable": false,
      "stateMutability": "nonpayable",
      "type": "function"
    },
    {
      "constant": false,
      "inputs": [
        {
          "name": "weight",
          "type": "uint256"
        },
        {
          "name": "harvestTimeStamp",
          "type": "uint256"
        }
      ],
      "name": "submitFFBToken",
      "outputs": [],
      "payable": false,
      "stateMutability": "nonpayable",
      "type": "function"
    },
    {
      "constant": false,
      "inputs": [
        {
          "name": "millAddress",
          "type": "address"
        },
        {
          "name": "index",
          "type": "uint256"
        }
      ],
      "name": "emitFFBEvent",
      "outputs": [],
      "payable": false,
      "stateMutability": "nonpayable",
      "type": "function"
    }
  ],
  "bytecode": "0x608060405234801561001057600080fd5b50604051606080610a6883398101806040528101908080519060200190929190805190602001909291908051906020019092919050505081600160006101000a81548173ffffffffffffffffffffffffffffffffffffffff021916908373ffffffffffffffffffffffffffffffffffffffff16021790555080600660006101000a81548173ffffffffffffffffffffffffffffffffffffffff021916908373ffffffffffffffffffffffffffffffffffffffff160217905550826000806101000a81548173ffffffffffffffffffffffffffffffffffffffff021916908373ffffffffffffffffffffffffffffffffffffffff16021790555050505061094d8061011b6000396000f300608060405260043610610099576000357c0100000000000000000000000000000000000000000000000000000000900463ffffffff168063093ecf701461009e5780634146a110146100cd5780634e6367c61461012457806387395ddc146101715780639aea423c146101c0578063a30bf02c146101d7578063ccabd0191461022e578063d77d97671461025d578063ef72bd1f146102e0575b600080fd5b3480156100aa57600080fd5b506100b3610317565b604051808215151515815260200191505060405180910390f35b3480156100d957600080fd5b506100e261032a565b604051808273ffffffffffffffffffffffffffffffffffffffff1673ffffffffffffffffffffffffffffffffffffffff16815260200191505060405180910390f35b34801561013057600080fd5b5061016f600480360381019080803573ffffffffffffffffffffffffffffffffffffffff16906020019092919080359060200190929190505050610350565b005b34801561017d57600080fd5b506101be600480360381019080803515159060200190929190803573ffffffffffffffffffffffffffffffffffffffff1690602001909291905050506103f3565b005b3480156101cc57600080fd5b506101d5610522565b005b3480156101e357600080fd5b506101ec610757565b604051808273ffffffffffffffffffffffffffffffffffffffff1673ffffffffffffffffffffffffffffffffffffffff16815260200191505060405180910390f35b34801561023a57600080fd5b5061024361077d565b604051808215151515815260200191505060405180910390f35b34801561026957600080fd5b5061029e600480360381019080803573ffffffffffffffffffffffffffffffffffffffff169060200190929190505050610790565b604051808273ffffffffffffffffffffffffffffffffffffffff1673ffffffffffffffffffffffffffffffffffffffff16815260200191505060405180910390f35b3480156102ec57600080fd5b5061031560048036038101908080359060200190929190803590602001909291905050506107c3565b005b600160159054906101000a900460ff1681565b600660009054906101000a900473ffffffffffffffffffffffffffffffffffffffff1681565b7f5cdbeeb76e60260c527738fff6709ccbc0a6db2e67575fa29b5a972eeb68cf84308383604051808473ffffffffffffffffffffffffffffffffffffffff1673ffffffffffffffffffffffffffffffffffffffff1681526020018373ffffffffffffffffffffffffffffffffffffffff1673ffffffffffffffffffffffffffffffffffffffff168152602001828152602001935050505060405180910390a15050565b600660009054906101000a900473ffffffffffffffffffffffffffffffffffffffff1673ffffffffffffffffffffffffffffffffffffffff168173ffffffffffffffffffffffffffffffffffffffff16141515610504576040517f08c379a00000000000000000000000000000000000000000000000000000000081526004018080602001828103825260438152602001807f6f6e6c79207468652061737369676e656420636f6e736f727469756d2061646d81526020017f696e6973747261746f722063616e20617070726f7665206120706c616e74617481526020017f696f6e000000000000000000000000000000000000000000000000000000000081525060600191505060405180910390fd5b81600160146101000a81548160ff0219169083151502179055505050565b600160149054906101000a900460ff161515156105cd576040517f08c379a00000000000000000000000000000000000000000000000000000000081526004018080602001828103825260298152602001807f5468697320706c616e746174696f6e2068617320616c7265616479206265656e81526020017f20617070726f766564000000000000000000000000000000000000000000000081525060400191505060405180910390fd5b600160009054906101000a900473ffffffffffffffffffffffffffffffffffffffff1673ffffffffffffffffffffffffffffffffffffffff163373ffffffffffffffffffffffffffffffffffffffff161415156106b8576040517f08c379a00000000000000000000000000000000000000000000000000000000081526004018080602001828103825260328152602001807f4f6e6c79206f776e6572206d6179207365656b207065726d697373696f6e207481526020017f6f20656e74657220636f6e736f727469756d000000000000000000000000000081525060400191505060405180910390fd5b6000809054906101000a900473ffffffffffffffffffffffffffffffffffffffff1673ffffffffffffffffffffffffffffffffffffffff16639aea423c6040518163ffffffff167c0100000000000000000000000000000000000000000000000000000000028152600401600060405180830381600087803b15801561073d57600080fd5b505af1158015610751573d6000803e3d6000fd5b50505050565b600160009054906101000a900473ffffffffffffffffffffffffffffffffffffffff1681565b600160149054906101000a900460ff1681565b60076020528060005260406000206000915054906101000a900473ffffffffffffffffffffffffffffffffffffffff1681565b600160149054906101000a900460ff16151561086d576040517f08c379a00000000000000000000000000000000000000000000000000000000081526004018080602001828103825260258152602001807f4163636573732044656e6965642c206e6f207065726d697373696f6e2064657481526020017f656374656400000000000000000000000000000000000000000000000000000081525060400191505060405180910390fd5b6000809054906101000a900473ffffffffffffffffffffffffffffffffffffffff1673ffffffffffffffffffffffffffffffffffffffff1663ef72bd1f83836040518363ffffffff167c01000000000000000000000000000000000000000000000000000000000281526004018083815260200182815260200192505050600060405180830381600087803b15801561090557600080fd5b505af1158015610919573d6000803e3d6000fd5b5050505050505600a165627a7a7230582047ce875a10a6eaa2d5069bb3882362dda92cd4eafa1bb27e8d6bd319ef9a15350029",
  "source": "pragma solidity ^0.4.0;\r\n\r\nimport './Consortium.sol';\r\n\r\ncontract Plantation {\r\n\r\n    Consortium private consortium;\r\n    address public plantationOwner;\r\n    bool public approvedByConsortium;\r\n    bool public certifiedByConsortium;\r\n    string name;\r\n    uint capacity;\r\n    string GPSLongitude;\r\n    string GPSlatitude; \r\n    address public RSPOAdministratorConsortium;\r\n\r\n    event FFBTokenSubmitted(address owner, address newOwner, uint index);\r\n    mapping (address => address) public plantationPermit;\r\n\r\n\r\n    constructor(address _consortiumOwnerAddress, address origin, address rspoAdmin) public {\r\n    plantationOwner = origin;\r\n    RSPOAdministratorConsortium =rspoAdmin;\r\n    consortium = Consortium(_consortiumOwnerAddress);\r\n    }  \r\n\r\n\r\n    //Request addition of this plantation to consortium origin\r\n    function requestPlantationSubscription() public {\r\n      \r\n    require(!approvedByConsortium, \"This plantation has already been approved\");\r\n    require(msg.sender == plantationOwner, \"Only owner may seek permission to enter consortium\");\r\n        consortium.requestPlantationSubscription();\r\n    }\r\n\r\n    function setPlantationApproved(bool approved, address origin) public {\r\n\r\n        require(origin == RSPOAdministratorConsortium, \"only the assigned consortium administrator can approve a plantation\");\r\n\r\n        approvedByConsortium = approved;\r\n       \r\n    }\r\n\r\n\r\n        \r\n    function submitFFBToken(\r\n        uint weight,\r\n        uint harvestTimeStamp\r\n        \r\n        ) public {\r\n\r\n        //Find date løsning\r\n        //Assume call comes from plantation contract => msg.sender is valid\r\n        require(approvedByConsortium, \"Access Denied, no permission detected\");\r\n            consortium.submitFFBToken(weight, harvestTimeStamp);\r\n\r\n       \r\n        }\r\n\r\n\r\n    function emitFFBEvent(address millAddress, uint index) public {\r\n        emit FFBTokenSubmitted(this, millAddress, index);\r\n      \r\n    }\r\n       \r\n\r\n    \r\n}",
  "sourcePath": "C:\\Users\\MAG\\source\\repos\\Bachelor\\PalmChain\\Ethereum\\contracts\\Plantation.sol",
  "compiler": {
    "name": "solc",
    "version": "0.4.24+commit.e67f0147.Emscripten.clang"
  },
  "schemaVersion": "2.0.1",
  "updatedAt": "2018-11-16T08:48:20.001Z"
}