{
  "contractName": "ConsortiumDeployer",
  "abi": [
    {
      "constant": true,
      "inputs": [
        {
          "name": "",
          "type": "uint256"
        }
      ],
      "name": "deployedConsortiums",
      "outputs": [
        {
          "name": "",
          "type": "address"
        }
      ],
      "payable": false,
      "stateMutability": "view",
      "type": "function"
    },
    {
      "constant": true,
      "inputs": [
        {
          "name": "",
          "type": "address"
        }
      ],
      "name": "plantationRelations",
      "outputs": [
        {
          "name": "",
          "type": "address"
        }
      ],
      "payable": false,
      "stateMutability": "view",
      "type": "function"
    },
    {
      "constant": true,
      "inputs": [
        {
          "name": "",
          "type": "address"
        }
      ],
      "name": "rspoAdministrators",
      "outputs": [
        {
          "name": "",
          "type": "bool"
        }
      ],
      "payable": false,
      "stateMutability": "view",
      "type": "function"
    },
    {
      "constant": true,
      "inputs": [
        {
          "name": "",
          "type": "address"
        }
      ],
      "name": "plantationOwnerRelation",
      "outputs": [
        {
          "name": "",
          "type": "address"
        }
      ],
      "payable": false,
      "stateMutability": "view",
      "type": "function"
    },
    {
      "constant": true,
      "inputs": [
        {
          "name": "",
          "type": "uint256"
        }
      ],
      "name": "deployedPlantations",
      "outputs": [
        {
          "name": "",
          "type": "address"
        }
      ],
      "payable": false,
      "stateMutability": "view",
      "type": "function"
    },
    {
      "inputs": [],
      "payable": false,
      "stateMutability": "nonpayable",
      "type": "constructor"
    },
    {
      "constant": false,
      "inputs": [],
      "name": "createConsortium",
      "outputs": [],
      "payable": false,
      "stateMutability": "nonpayable",
      "type": "function"
    },
    {
      "constant": false,
      "inputs": [
        {
          "name": "_assignedConsortium",
          "type": "address"
        },
        {
          "name": "administrator",
          "type": "address"
        }
      ],
      "name": "createPlantation",
      "outputs": [],
      "payable": false,
      "stateMutability": "nonpayable",
      "type": "function"
    },
    {
      "constant": true,
      "inputs": [],
      "name": "getDeployedConsortiums",
      "outputs": [
        {
          "name": "",
          "type": "address[]"
        }
      ],
      "payable": false,
      "stateMutability": "view",
      "type": "function"
    },
    {
      "constant": true,
      "inputs": [],
      "name": "getDeployedPlantations",
      "outputs": [
        {
          "name": "",
          "type": "address[]"
        }
      ],
      "payable": false,
      "stateMutability": "view",
      "type": "function"
    },
    {
      "constant": false,
      "inputs": [
        {
          "name": "consortiumFilterInstance",
          "type": "address"
        }
      ],
      "name": "getDeployedPlantationsByConsortium",
      "outputs": [
        {
          "name": "",
          "type": "address[]"
        }
      ],
      "payable": false,
      "stateMutability": "nonpayable",
      "type": "function"
    }
  ],
  "bytecode": "0x608060405234801561001057600080fd5b506001600260003373ffffffffffffffffffffffffffffffffffffffff1673ffffffffffffffffffffffffffffffffffffffff16815260200190815260200160002060006101000a81548160ff0219169083151502179055506149b6806100786000396000f3006080604052600436106100a3576000357c0100000000000000000000000000000000000000000000000000000000900463ffffffff168062ec05ff146100a857806307e5ce3f1461011557806318d505641461012c5780631d9e01de146101af57806321deb5b71461024757806324628f37146102a25780633a240f98146103055780637a7a600014610388578063a4abe3c4146103f4578063d197fcc014610460575b600080fd5b3480156100b457600080fd5b506100d3600480360381019080803590602001909291905050506104cd565b604051808273ffffffffffffffffffffffffffffffffffffffff1673ffffffffffffffffffffffffffffffffffffffff16815260200191505060405180910390f35b34801561012157600080fd5b5061012a61050b565b005b34801561013857600080fd5b5061016d600480360381019080803573ffffffffffffffffffffffffffffffffffffffff1690602001909291905050506106e1565b604051808273ffffffffffffffffffffffffffffffffffffffff1673ffffffffffffffffffffffffffffffffffffffff16815260200191505060405180910390f35b3480156101bb57600080fd5b506101f0600480360381019080803573ffffffffffffffffffffffffffffffffffffffff169060200190929190505050610714565b6040518080602001828103825283818151815260200191508051906020019060200280838360005b83811015610233578082015181840152602081019050610218565b505050509050019250505060405180910390f35b34801561025357600080fd5b50610288600480360381019080803573ffffffffffffffffffffffffffffffffffffffff169060200190929190505050610940565b604051808215151515815260200191505060405180910390f35b3480156102ae57600080fd5b50610303600480360381019080803573ffffffffffffffffffffffffffffffffffffffff169060200190929190803573ffffffffffffffffffffffffffffffffffffffff169060200190929190505050610960565b005b34801561031157600080fd5b50610346600480360381019080803573ffffffffffffffffffffffffffffffffffffffff169060200190929190505050610b8f565b604051808273ffffffffffffffffffffffffffffffffffffffff1673ffffffffffffffffffffffffffffffffffffffff16815260200191505060405180910390f35b34801561039457600080fd5b5061039d610bc2565b6040518080602001828103825283818151815260200191508051906020019060200280838360005b838110156103e05780820151818401526020810190506103c5565b505050509050019250505060405180910390f35b34801561040057600080fd5b50610409610c50565b6040518080602001828103825283818151815260200191508051906020019060200280838360005b8381101561044c578082015181840152602081019050610431565b505050509050019250505060405180910390f35b34801561046c57600080fd5b5061048b60048036038101908080359060200190929190505050610cde565b604051808273ffffffffffffffffffffffffffffffffffffffff1673ffffffffffffffffffffffffffffffffffffffff16815260200191505060405180910390f35b6000818154811015156104dc57fe5b906000526020600020016000915054906101000a900473ffffffffffffffffffffffffffffffffffffffff1681565b6000600260003373ffffffffffffffffffffffffffffffffffffffff1673ffffffffffffffffffffffffffffffffffffffff16815260200190815260200160002060009054906101000a900460ff16151561061a576040517f08c379a00000000000000000000000000000000000000000000000000000000081526004018080602001828103825260428152602001807f4f6e6c7920636572746966696564205253504f2061646d696e6973747261746f81526020017f7273206d617920696e7374616e7469617465206e657720636f6e736f7274697581526020017f6d7300000000000000000000000000000000000000000000000000000000000081525060600191505060405180910390fd5b33610623610d1c565b808273ffffffffffffffffffffffffffffffffffffffff1673ffffffffffffffffffffffffffffffffffffffff168152602001915050604051809103906000f080158015610675573d6000803e3d6000fd5b50905060008190806001815401808255809150509060018203906000526020600020016000909192909190916101000a81548173ffffffffffffffffffffffffffffffffffffffff021916908373ffffffffffffffffffffffffffffffffffffffff1602179055505050565b60046020528060005260406000206000915054906101000a900473ffffffffffffffffffffffffffffffffffffffff1681565b60606000600360006107269190610d2c565b600090505b6001805490508110156108b1578273ffffffffffffffffffffffffffffffffffffffff166004600060018481548110151561076257fe5b9060005260206000200160009054906101000a900473ffffffffffffffffffffffffffffffffffffffff1673ffffffffffffffffffffffffffffffffffffffff1673ffffffffffffffffffffffffffffffffffffffff16815260200190815260200160002060009054906101000a900473ffffffffffffffffffffffffffffffffffffffff1673ffffffffffffffffffffffffffffffffffffffff1614156108a457600360018281548110151561081557fe5b9060005260206000200160009054906101000a900473ffffffffffffffffffffffffffffffffffffffff1690806001815401808255809150509060018203906000526020600020016000909192909190916101000a81548173ffffffffffffffffffffffffffffffffffffffff021916908373ffffffffffffffffffffffffffffffffffffffff160217905550505b808060010191505061072b565b600380548060200260200160405190810160405280929190818152602001828054801561093357602002820191906000526020600020905b8160009054906101000a900473ffffffffffffffffffffffffffffffffffffffff1673ffffffffffffffffffffffffffffffffffffffff16815260200190600101908083116108e9575b5050505050915050919050565b60026020528060005260406000206000915054906101000a900460ff1681565b600082338361096d610d4d565b808473ffffffffffffffffffffffffffffffffffffffff1673ffffffffffffffffffffffffffffffffffffffff1681526020018373ffffffffffffffffffffffffffffffffffffffff1673ffffffffffffffffffffffffffffffffffffffff1681526020018273ffffffffffffffffffffffffffffffffffffffff1673ffffffffffffffffffffffffffffffffffffffff1681526020019350505050604051809103906000f080158015610a25573d6000803e3d6000fd5b50905082600460008373ffffffffffffffffffffffffffffffffffffffff1673ffffffffffffffffffffffffffffffffffffffff16815260200190815260200160002060006101000a81548173ffffffffffffffffffffffffffffffffffffffff021916908373ffffffffffffffffffffffffffffffffffffffff16021790555080600560003373ffffffffffffffffffffffffffffffffffffffff1673ffffffffffffffffffffffffffffffffffffffff16815260200190815260200160002060006101000a81548173ffffffffffffffffffffffffffffffffffffffff021916908373ffffffffffffffffffffffffffffffffffffffff16021790555060018190806001815401808255809150509060018203906000526020600020016000909192909190916101000a81548173ffffffffffffffffffffffffffffffffffffffff021916908373ffffffffffffffffffffffffffffffffffffffff16021790555050505050565b60056020528060005260406000206000915054906101000a900473ffffffffffffffffffffffffffffffffffffffff1681565b60606001805480602002602001604051908101604052809291908181526020018280548015610c4657602002820191906000526020600020905b8160009054906101000a900473ffffffffffffffffffffffffffffffffffffffff1673ffffffffffffffffffffffffffffffffffffffff1681526020019060010190808311610bfc575b5050505050905090565b60606000805480602002602001604051908101604052809291908181526020018280548015610cd457602002820191906000526020600020905b8160009054906101000a900473ffffffffffffffffffffffffffffffffffffffff1673ffffffffffffffffffffffffffffffffffffffff1681526020019060010190808311610c8a575b5050505050905090565b600181815481101515610ced57fe5b906000526020600020016000915054906101000a900473ffffffffffffffffffffffffffffffffffffffff1681565b60405161282680610d8383390190565b5080546000825590600052602060002090810190610d4a9190610d5d565b50565b6040516113e2806135a983390190565b610d7f91905b80821115610d7b576000816000905550600101610d63565b5090565b905600608060405234801561001057600080fd5b506040516020806128268339810180604052810190808051906020019092919050505080600b60006101000a81548173ffffffffffffffffffffffffffffffffffffffff021916908373ffffffffffffffffffffffffffffffffffffffff160217905550506127a2806100846000396000f300608060405260043610610107576000357c0100000000000000000000000000000000000000000000000000000000900463ffffffff16806307ddf8d31461010c5780630b4ac9a7146102a75780633e7177e3146102ea578063477ac2061461032d5780635bbedc221461039a57806366687adf146103e3578063747703c8146104f85780637beb8af31461057b5780638628d9ee146105e85780638e2e2274146106435780639aea423c14610684578063ae33c5641461069b578063b1737de0146106f6578063c03de0f91461074d578063df784abd14610796578063e4f713be146107f1578063ed98c667146108e1578063ef72bd1f146109d8578063fa84d76314610a0f575b600080fd5b34801561011857600080fd5b50610121610a75565b604051808573ffffffffffffffffffffffffffffffffffffffff1673ffffffffffffffffffffffffffffffffffffffff168152602001806020018060200180602001848103845287818151815260200191508051906020019080838360005b8381101561019b578082015181840152602081019050610180565b50505050905090810190601f1680156101c85780820380516001836020036101000a031916815260200191505b50848103835286818151815260200191508051906020019080838360005b838110156102015780820151818401526020810190506101e6565b50505050905090810190601f16801561022e5780820380516001836020036101000a031916815260200191505b50848103825285818151815260200191508051906020019080838360005b8381101561026757808201518184015260208101905061024c565b50505050905090810190601f1680156102945780820380516001836020036101000a031916815260200191505b5097505050505050505060405180910390f35b3480156102b357600080fd5b506102e8600480360381019080803573ffffffffffffffffffffffffffffffffffffffff169060200190929190505050610c7b565b005b3480156102f657600080fd5b5061032b600480360381019080803573ffffffffffffffffffffffffffffffffffffffff169060200190929190505050610e58565b005b34801561033957600080fd5b50610358600480360381019080803590602001909291905050506111ae565b604051808273ffffffffffffffffffffffffffffffffffffffff1673ffffffffffffffffffffffffffffffffffffffff16815260200191505060405180910390f35b3480156103a657600080fd5b506103c960048036038101908080356000191690602001909291905050506111ec565b604051808215151515815260200191505060405180910390f35b3480156103ef57600080fd5b506104f6600480360381019080803590602001908201803590602001908080601f0160208091040260200160405190810160405280939291908181526020018383808284378201915050505050509192919290803590602001908201803590602001908080601f0160208091040260200160405190810160405280939291908181526020018383808284378201915050505050509192919290803590602001908201803590602001908080601f0160208091040260200160405190810160405280939291908181526020018383808284378201915050505050509192919290803573ffffffffffffffffffffffffffffffffffffffff16906020019092919050505061120c565b005b34801561050457600080fd5b50610539600480360381019080803573ffffffffffffffffffffffffffffffffffffffff1690602001909291905050506113bd565b604051808273ffffffffffffffffffffffffffffffffffffffff1673ffffffffffffffffffffffffffffffffffffffff16815260200191505060405180910390f35b34801561058757600080fd5b506105a66004803603810190808035906020019092919050505061148c565b604051808273ffffffffffffffffffffffffffffffffffffffff1673ffffffffffffffffffffffffffffffffffffffff16815260200191505060405180910390f35b3480156105f457600080fd5b50610629600480360381019080803573ffffffffffffffffffffffffffffffffffffffff1690602001909291905050506114ca565b604051808215151515815260200191505060405180910390f35b34801561064f57600080fd5b5061066e600480360381019080803590602001909291905050506114ea565b6040518082815260200191505060405180910390f35b34801561069057600080fd5b5061069961150d565b005b3480156106a757600080fd5b506106dc600480360381019080803573ffffffffffffffffffffffffffffffffffffffff16906020019092919050505061168c565b604051808215151515815260200191505060405180910390f35b34801561070257600080fd5b5061070b6116ac565b604051808273ffffffffffffffffffffffffffffffffffffffff1673ffffffffffffffffffffffffffffffffffffffff16815260200191505060405180910390f35b34801561075957600080fd5b5061077c60048036038101908080356000191690602001909291905050506116d2565b604051808215151515815260200191505060405180910390f35b3480156107a257600080fd5b506107d7600480360381019080803573ffffffffffffffffffffffffffffffffffffffff1690602001909291905050506116f2565b604051808215151515815260200191505060405180910390f35b3480156107fd57600080fd5b5061081c60048036038101908080359060200190929190505050611712565b604051808781526020018673ffffffffffffffffffffffffffffffffffffffff1673ffffffffffffffffffffffffffffffffffffffff1681526020018573ffffffffffffffffffffffffffffffffffffffff1673ffffffffffffffffffffffffffffffffffffffff1681526020018473ffffffffffffffffffffffffffffffffffffffff1673ffffffffffffffffffffffffffffffffffffffff1681526020018315151515815260200182151515158152602001965050505050505060405180910390f35b3480156108ed57600080fd5b5061090c600480360381019080803590602001909291905050506117d7565b604051808881526020018773ffffffffffffffffffffffffffffffffffffffff1673ffffffffffffffffffffffffffffffffffffffff1681526020018673ffffffffffffffffffffffffffffffffffffffff1673ffffffffffffffffffffffffffffffffffffffff1681526020018573ffffffffffffffffffffffffffffffffffffffff1673ffffffffffffffffffffffffffffffffffffffff168152602001848152602001831515151581526020018215151515815260200197505050505050505060405180910390f35b3480156109e457600080fd5b50610a0d60048036038101908080359060200190929190803590602001909291905050506118a2565b005b348015610a1b57600080fd5b50610a7360048036038101908080359060200190820180359060200190808060200260200160405190810160405280939291908181526020018383602002808284378201915050505050509192919290505050611c85565b005b60008060000160009054906101000a900473ffffffffffffffffffffffffffffffffffffffff1690806001018054600181600116156101000203166002900480601f016020809104026020016040519081016040528092919081815260200182805460018160011615610100020316600290048015610b355780601f10610b0a57610100808354040283529160200191610b35565b820191906000526020600020905b815481529060010190602001808311610b1857829003601f168201915b505050505090806002018054600181600116156101000203166002900480601f016020809104026020016040519081016040528092919081815260200182805460018160011615610100020316600290048015610bd35780601f10610ba857610100808354040283529160200191610bd3565b820191906000526020600020905b815481529060010190602001808311610bb657829003601f168201915b505050505090806003018054600181600116156101000203166002900480601f016020809104026020016040519081016040528092919081815260200182805460018160011615610100020316600290048015610c715780601f10610c4657610100808354040283529160200191610c71565b820191906000526020600020905b815481529060010190602001808311610c5457829003601f168201915b5050505050905084565b6000600b60009054906101000a900473ffffffffffffffffffffffffffffffffffffffff1673ffffffffffffffffffffffffffffffffffffffff163373ffffffffffffffffffffffffffffffffffffffff16141515610d42576040517f08c379a000000000000000000000000000000000000000000000000000000000815260040180806020018281038252601c8152602001807f5253504f2061757468656e7469636174696f6e2072657175697265640000000081525060200191505060405180910390fd5b600660008373ffffffffffffffffffffffffffffffffffffffff1673ffffffffffffffffffffffffffffffffffffffff16815260200190815260200160002060006101000a81549060ff02191690558190508073ffffffffffffffffffffffffffffffffffffffff166387395ddc6000336040518363ffffffff167c010000000000000000000000000000000000000000000000000000000002815260040180831515151581526020018273ffffffffffffffffffffffffffffffffffffffff1673ffffffffffffffffffffffffffffffffffffffff16815260200192505050600060405180830381600087803b158015610e3c57600080fd5b505af1158015610e50573d6000803e3d6000fd5b505050505050565b6000600b60009054906101000a900473ffffffffffffffffffffffffffffffffffffffff1673ffffffffffffffffffffffffffffffffffffffff163373ffffffffffffffffffffffffffffffffffffffff16141515610f1f576040517f08c379a000000000000000000000000000000000000000000000000000000000815260040180806020018281038252601c8152602001807f5253504f2061757468656e7469636174696f6e2072657175697265640000000081525060200191505060405180910390fd5b6001600460008473ffffffffffffffffffffffffffffffffffffffff1673ffffffffffffffffffffffffffffffffffffffff16815260200190815260200160002060006101000a81548160ff02191690831515021790555060058290806001815401808255809150509060018203906000526020600020016000909192909190916101000a81548173ffffffffffffffffffffffffffffffffffffffff021916908373ffffffffffffffffffffffffffffffffffffffff160217905550506001600660008473ffffffffffffffffffffffffffffffffffffffff1673ffffffffffffffffffffffffffffffffffffffff16815260200190815260200160002060006101000a81548160ff021916908315150217905550600760008373ffffffffffffffffffffffffffffffffffffffff1673ffffffffffffffffffffffffffffffffffffffff16815260200190815260200160002060006101000a81549060ff02191690557f6cd925231fae3a68dd83317f0efc12f76504daec91ae67222db197d09f83355682604051808273ffffffffffffffffffffffffffffffffffffffff1673ffffffffffffffffffffffffffffffffffffffff16815260200191505060405180910390a18190508073ffffffffffffffffffffffffffffffffffffffff166387395ddc6001336040518363ffffffff167c010000000000000000000000000000000000000000000000000000000002815260040180831515151581526020018273ffffffffffffffffffffffffffffffffffffffff1673ffffffffffffffffffffffffffffffffffffffff16815260200192505050600060405180830381600087803b15801561119257600080fd5b505af11580156111a6573d6000803e3d6000fd5b505050505050565b6005818154811015156111bd57fe5b906000526020600020016000915054906101000a900473ffffffffffffffffffffffffffffffffffffffff1681565b600c6020528060005260406000206000915054906101000a900460ff1681565b61121461251c565b600b60009054906101000a900473ffffffffffffffffffffffffffffffffffffffff1673ffffffffffffffffffffffffffffffffffffffff163373ffffffffffffffffffffffffffffffffffffffff161415156112d9576040517f08c379a000000000000000000000000000000000000000000000000000000000815260040180806020018281038252601c8152602001807f5253504f2061757468656e7469636174696f6e2072657175697265640000000081525060200191505060405180910390fd5b6080604051908101604052808373ffffffffffffffffffffffffffffffffffffffff168152602001868152602001858152602001848152509050806000808201518160000160006101000a81548173ffffffffffffffffffffffffffffffffffffffff021916908373ffffffffffffffffffffffffffffffffffffffff160217905550602082015181600101908051906020019061137892919061255b565b50604082015181600201908051906020019061139592919061255b565b5060608201518160030190805190602001906113b292919061255b565b509050505050505050565b6000600b60009054906101000a900473ffffffffffffffffffffffffffffffffffffffff1673ffffffffffffffffffffffffffffffffffffffff163373ffffffffffffffffffffffffffffffffffffffff16141515611484576040517f08c379a000000000000000000000000000000000000000000000000000000000815260040180806020018281038252601c8152602001807f5253504f2061757468656e7469636174696f6e2072657175697265640000000081525060200191505060405180910390fd5b819050919050565b60088181548110151561149b57fe5b906000526020600020016000915054906101000a900473ffffffffffffffffffffffffffffffffffffffff1681565b60066020528060005260406000206000915054906101000a900460ff1681565b600e818154811015156114f957fe5b906000526020600020016000915090505481565b600660003373ffffffffffffffffffffffffffffffffffffffff1673ffffffffffffffffffffffffffffffffffffffff16815260200190815260200160002060009054906101000a900460ff161515156115cf576040517f08c379a00000000000000000000000000000000000000000000000000000000081526004018080602001828103825260208152602001807f506c616e746174696f6e20697320616c7265616479207265676973746572656481525060200191505060405180910390fd5b7f1cb1da47af71799f10f2ac89920e67ec04faa33416f9e5a5b6fad22cf5036f4633604051808273ffffffffffffffffffffffffffffffffffffffff1673ffffffffffffffffffffffffffffffffffffffff16815260200191505060405180910390a16001600760003373ffffffffffffffffffffffffffffffffffffffff1673ffffffffffffffffffffffffffffffffffffffff16815260200190815260200160002060006101000a81548160ff021916908315150217905550565b60076020528060005260406000206000915054906101000a900460ff1681565b600b60009054906101000a900473ffffffffffffffffffffffffffffffffffffffff1681565b600d6020528060005260406000206000915054906101000a900460ff1681565b60046020528060005260406000206000915054906101000a900460ff1681565b600a8181548110151561172157fe5b90600052602060002090600502016000915090508060000154908060020160009054906101000a900473ffffffffffffffffffffffffffffffffffffffff16908060030160009054906101000a900473ffffffffffffffffffffffffffffffffffffffff16908060040160009054906101000a900473ffffffffffffffffffffffffffffffffffffffff16908060040160149054906101000a900460ff16908060040160159054906101000a900460ff16905086565b6009818154811015156117e657fe5b90600052602060002090600602016000915090508060000154908060010160009054906101000a900473ffffffffffffffffffffffffffffffffffffffff16908060020160009054906101000a900473ffffffffffffffffffffffffffffffffffffffff16908060030160009054906101000a900473ffffffffffffffffffffffffffffffffffffffff16908060040154908060050160009054906101000a900460ff16908060050160019054906101000a900460ff16905087565b60006118ac6125db565b6000600660003373ffffffffffffffffffffffffffffffffffffffff1673ffffffffffffffffffffffffffffffffffffffff16815260200190815260200160002060009054906101000a900460ff161515611995576040517f08c379a00000000000000000000000000000000000000000000000000000000081526004018080602001828103825260258152602001807f4163636573732044656e6965642c206e6f207065726d697373696f6e2064657481526020017f656374656400000000000000000000000000000000000000000000000000000081525060400191505060405180910390fd5b6001925060e0604051908101604052808681526020013373ffffffffffffffffffffffffffffffffffffffff1681526020013373ffffffffffffffffffffffffffffffffffffffff1681526020016000800160009054906101000a900473ffffffffffffffffffffffffffffffffffffffff1673ffffffffffffffffffffffffffffffffffffffff1681526020018581526020018415158152602001600015158152509150600982908060018154018082558091505090600182039060005260206000209060060201600090919290919091506000820151816000015560208201518160010160006101000a81548173ffffffffffffffffffffffffffffffffffffffff021916908373ffffffffffffffffffffffffffffffffffffffff16021790555060408201518160020160006101000a81548173ffffffffffffffffffffffffffffffffffffffff021916908373ffffffffffffffffffffffffffffffffffffffff16021790555060608201518160030160006101000a81548173ffffffffffffffffffffffffffffffffffffffff021916908373ffffffffffffffffffffffffffffffffffffffff1602179055506080820151816004015560a08201518160050160006101000a81548160ff02191690831515021790555060c08201518160050160016101000a81548160ff0219169083151502179055505050503390508073ffffffffffffffffffffffffffffffffffffffff16634e6367c66000800160009054906101000a900473ffffffffffffffffffffffffffffffffffffffff166001600980549050036040518363ffffffff167c0100000000000000000000000000000000000000000000000000000000028152600401808373ffffffffffffffffffffffffffffffffffffffff1673ffffffffffffffffffffffffffffffffffffffff16815260200182815260200192505050600060405180830381600087803b158015611c6657600080fd5b505af1158015611c7a573d6000803e3d6000fd5b505050505050505050565b6000806000611c9261265f565b60008060008751111515611d0e576040517f08c379a00000000000000000000000000000000000000000000000000000000081526004018080602001828103825260178152602001807f596f75206d75737420696e636c75646520746f6b656e7300000000000000000081525060200191505060405180910390fd5b6000800160009054906101000a900473ffffffffffffffffffffffffffffffffffffffff1673ffffffffffffffffffffffffffffffffffffffff163373ffffffffffffffffffffffffffffffffffffffff16141515611dfb576040517f08c379a00000000000000000000000000000000000000000000000000000000081526004018080602001828103825260348152602001807f4f6e6c7920616374697665206d696c6c206f776e657220697320616c6c6f776581526020017f6420746f2063726561746520434f546f6b656e7300000000000000000000000081525060400191505060405180910390fd5b6001955060009450600093505b86518410156120ed573373ffffffffffffffffffffffffffffffffffffffff1660098886815181101515611e3857fe5b90602001906020020151815481101515611e4e57fe5b906000526020600020906006020160030160009054906101000a900473ffffffffffffffffffffffffffffffffffffffff1673ffffffffffffffffffffffffffffffffffffffff16141515611f31576040517f08c379a00000000000000000000000000000000000000000000000000000000081526004018080602001828103825260318152602001807f54686973206973206e6f742074686520696e74656e6465642064657374696e6181526020017f74696f6e206f662074686520746f6b656e00000000000000000000000000000081525060400191505060405180910390fd5b60098785815181101515611f4157fe5b90602001906020020151815481101515611f5757fe5b906000526020600020906006020160050160019054906101000a900460ff16151515612011576040517f08c379a00000000000000000000000000000000000000000000000000000000081526004018080602001828103825260258152602001807f5468697320746f6b656e2068617320616c7265616479206265656e2070726f6381526020017f657373656400000000000000000000000000000000000000000000000000000081525060400191505060405180910390fd5b600e878581518110151561202157fe5b9060200190602002015190806001815401808255809150509060018203906000526020600020016000909192909190915055506009878581518110151561206457fe5b9060200190602002015181548110151561207a57fe5b90600052602060002090600602016000015485019450600987858151811015156120a057fe5b906020019060200201518154811015156120b657fe5b906000526020600020906006020160050160009054906101000a900460ff1615156120e057600095505b8380600101945050611e08565b6000600e8054905011156125135760e060405190810160405280868152602001600e80548060200260200160405190810160405280929190818152602001828054801561215957602002820191906000526020600020905b815481526020019060010190808311612145575b505050505081526020016000800160009054906101000a900473ffffffffffffffffffffffffffffffffffffffff1673ffffffffffffffffffffffffffffffffffffffff1681526020013373ffffffffffffffffffffffffffffffffffffffff168152602001600073ffffffffffffffffffffffffffffffffffffffff1681526020018715158152602001600015158152509250600a83908060018154018082558091505090600182039060005260206000209060050201600090919290919091506000820151816000015560208201518160010190805190602001906122419291906126e3565b5060408201518160020160006101000a81548173ffffffffffffffffffffffffffffffffffffffff021916908373ffffffffffffffffffffffffffffffffffffffff16021790555060608201518160030160006101000a81548173ffffffffffffffffffffffffffffffffffffffff021916908373ffffffffffffffffffffffffffffffffffffffff16021790555060808201518160040160006101000a81548173ffffffffffffffffffffffffffffffffffffffff021916908373ffffffffffffffffffffffffffffffffffffffff16021790555060a08201518160040160146101000a81548160ff02191690831515021790555060c08201518160040160156101000a81548160ff0219169083151502179055505050507f30ed1de7eab8b98406ab30ed28da3ce37a6b65508470b47af420d9e49ec7546e836060015184608001516001600a8054905003604051808473ffffffffffffffffffffffffffffffffffffffff1673ffffffffffffffffffffffffffffffffffffffff1681526020018373ffffffffffffffffffffffffffffffffffffffff1673ffffffffffffffffffffffffffffffffffffffff168152602001828152602001935050505060405180910390a1600091505b600e80549050821015612504576009600e8381548110151561242c57fe5b906000526020600020015481548110151561244357fe5b9060005260206000209060060201905060018160050160016101000a81548160ff02191690831515021790555060008160030160006101000a81548173ffffffffffffffffffffffffffffffffffffffff021916908373ffffffffffffffffffffffffffffffffffffffff160217905550338160020160006101000a81548173ffffffffffffffffffffffffffffffffffffffff021916908373ffffffffffffffffffffffffffffffffffffffff160217905550818060010192505061240e565b600e60006125129190612730565b5b50505050505050565b608060405190810160405280600073ffffffffffffffffffffffffffffffffffffffff1681526020016060815260200160608152602001606081525090565b828054600181600116156101000203166002900490600052602060002090601f016020900481019282601f1061259c57805160ff19168380011785556125ca565b828001600101855582156125ca579182015b828111156125c95782518255916020019190600101906125ae565b5b5090506125d79190612751565b5090565b60e06040519081016040528060008152602001600073ffffffffffffffffffffffffffffffffffffffff168152602001600073ffffffffffffffffffffffffffffffffffffffff168152602001600073ffffffffffffffffffffffffffffffffffffffff168152602001600081526020016000151581526020016000151581525090565b60e0604051908101604052806000815260200160608152602001600073ffffffffffffffffffffffffffffffffffffffff168152602001600073ffffffffffffffffffffffffffffffffffffffff168152602001600073ffffffffffffffffffffffffffffffffffffffff1681526020016000151581526020016000151581525090565b82805482825590600052602060002090810192821561271f579160200282015b8281111561271e578251825591602001919060010190612703565b5b50905061272c9190612751565b5090565b508054600082559060005260206000209081019061274e9190612751565b50565b61277391905b8082111561276f576000816000905550600101612757565b5090565b905600a165627a7a72305820f4ebf830e749f2fc3848144abd33d8eaec81adeba697dc82f82a5fc55ac977df002960806040526000600160146101000a81548160ff0219169083151502179055506000600560146101000a81548160ff0219169083151502179055506040805190810160405280600a81526020017f556e736574204e616d6500000000000000000000000000000000000000000000815250600690805190602001906200008792919062000198565b503480156200009557600080fd5b50604051606080620013e283398101806040528101908080519060200190929190805190602001909291908051906020019092919050505081600160006101000a81548173ffffffffffffffffffffffffffffffffffffffff021916908373ffffffffffffffffffffffffffffffffffffffff16021790555080600560006101000a81548173ffffffffffffffffffffffffffffffffffffffff021916908373ffffffffffffffffffffffffffffffffffffffff160217905550826000806101000a81548173ffffffffffffffffffffffffffffffffffffffff021916908373ffffffffffffffffffffffffffffffffffffffff16021790555050505062000247565b828054600181600116156101000203166002900490600052602060002090601f016020900481019282601f10620001db57805160ff19168380011785556200020c565b828001600101855582156200020c579182015b828111156200020b578251825591602001919060010190620001ee565b5b5090506200021b91906200021f565b5090565b6200024491905b808211156200024057600081600090555060010162000226565b5090565b90565b61118b80620002576000396000f3006080604052600436106100d0576000357c0100000000000000000000000000000000000000000000000000000000900463ffffffff16806308536ed5146100d557806323a9b7501461013e5780634146a110146101a757806348bcfa3e146101fe57806348cc641e146102675780634e6367c6146103405780638052474d1461038d57806387395ddc1461041d5780639aea423c1461046c578063a30bf02c14610483578063ad0b2b9f146104da578063ccabd01914610509578063d77d976714610538578063ef72bd1f146105bb575b600080fd5b3480156100e157600080fd5b5061013c600480360381019080803590602001908201803590602001908080601f01602080910402602001604051908101604052809392919081815260200183838082843782019150505050505091929192905050506105f2565b005b34801561014a57600080fd5b506101a5600480360381019080803590602001908201803590602001908080601f01602080910402602001604051908101604052809392919081815260200183838082843782019150505050505091929192905050506106f7565b005b3480156101b357600080fd5b506101bc6107fc565b604051808273ffffffffffffffffffffffffffffffffffffffff1673ffffffffffffffffffffffffffffffffffffffff16815260200191505060405180910390f35b34801561020a57600080fd5b50610265600480360381019080803590602001908201803590602001908080601f0160208091040260200160405190810160405280939291908181526020018383808284378201915050505050509192919290505050610822565b005b34801561027357600080fd5b5061027c610927565b604051808060200185151515158152602001841515151581526020018373ffffffffffffffffffffffffffffffffffffffff1673ffffffffffffffffffffffffffffffffffffffff168152602001828103825286818151815260200191508051906020019080838360005b838110156103025780820151818401526020810190506102e7565b50505050905090810190601f16801561032f5780820380516001836020036101000a031916815260200191505b509550505050505060405180910390f35b34801561034c57600080fd5b5061038b600480360381019080803573ffffffffffffffffffffffffffffffffffffffff16906020019092919080359060200190929190505050610a1d565b005b34801561039957600080fd5b506103a2610ac0565b6040518080602001828103825283818151815260200191508051906020019080838360005b838110156103e25780820151818401526020810190506103c7565b50505050905090810190601f16801561040f5780820380516001836020036101000a031916815260200191505b509250505060405180910390f35b34801561042957600080fd5b5061046a600480360381019080803515159060200190929190803573ffffffffffffffffffffffffffffffffffffffff169060200190929190505050610b5e565b005b34801561047857600080fd5b50610481610c8d565b005b34801561048f57600080fd5b50610498610edd565b604051808273ffffffffffffffffffffffffffffffffffffffff1673ffffffffffffffffffffffffffffffffffffffff16815260200191505060405180910390f35b3480156104e657600080fd5b506104ef610f03565b604051808215151515815260200191505060405180910390f35b34801561051557600080fd5b5061051e610f16565b604051808215151515815260200191505060405180910390f35b34801561054457600080fd5b50610579600480360381019080803573ffffffffffffffffffffffffffffffffffffffff169060200190929190505050610f29565b604051808273ffffffffffffffffffffffffffffffffffffffff1673ffffffffffffffffffffffffffffffffffffffff16815260200191505060405180910390f35b3480156105c757600080fd5b506105f06004803603810190808035906020019092919080359060200190929190505050610f5c565b005b600560009054906101000a900473ffffffffffffffffffffffffffffffffffffffff1673ffffffffffffffffffffffffffffffffffffffff163373ffffffffffffffffffffffffffffffffffffffff161415156106dd576040517f08c379a00000000000000000000000000000000000000000000000000000000081526004018080602001828103825260388152602001807f4f6e6c792061646d696e6973747261746f72206d6179206368616e676520746881526020017f652076616c7565206f6620746869732070726f7065727479000000000000000081525060400191505060405180910390fd5b80600690805190602001906106f39291906110ba565b5050565b600560009054906101000a900473ffffffffffffffffffffffffffffffffffffffff1673ffffffffffffffffffffffffffffffffffffffff163373ffffffffffffffffffffffffffffffffffffffff161415156107e2576040517f08c379a00000000000000000000000000000000000000000000000000000000081526004018080602001828103825260388152602001807f4f6e6c792061646d696e6973747261746f72206d6179206368616e676520746881526020017f652076616c7565206f6620746869732070726f7065727479000000000000000081525060400191505060405180910390fd5b80600490805190602001906107f89291906110ba565b5050565b600560009054906101000a900473ffffffffffffffffffffffffffffffffffffffff1681565b600560009054906101000a900473ffffffffffffffffffffffffffffffffffffffff1673ffffffffffffffffffffffffffffffffffffffff163373ffffffffffffffffffffffffffffffffffffffff1614151561090d576040517f08c379a00000000000000000000000000000000000000000000000000000000081526004018080602001828103825260388152602001807f4f6e6c792061646d696e6973747261746f72206d6179206368616e676520746881526020017f652076616c7565206f6620746869732070726f7065727479000000000000000081525060400191505060405180910390fd5b80600390805190602001906109239291906110ba565b5050565b606060008060006006600160149054906101000a900460ff16600560149054906101000a900460ff16600160009054906101000a900473ffffffffffffffffffffffffffffffffffffffff16838054600181600116156101000203166002900480601f016020809104026020016040519081016040528092919081815260200182805460018160011615610100020316600290048015610a085780601f106109dd57610100808354040283529160200191610a08565b820191906000526020600020905b8154815290600101906020018083116109eb57829003601f168201915b50505050509350935093509350935090919293565b7f5cdbeeb76e60260c527738fff6709ccbc0a6db2e67575fa29b5a972eeb68cf84308383604051808473ffffffffffffffffffffffffffffffffffffffff1673ffffffffffffffffffffffffffffffffffffffff1681526020018373ffffffffffffffffffffffffffffffffffffffff1673ffffffffffffffffffffffffffffffffffffffff168152602001828152602001935050505060405180910390a15050565b60068054600181600116156101000203166002900480601f016020809104026020016040519081016040528092919081815260200182805460018160011615610100020316600290048015610b565780601f10610b2b57610100808354040283529160200191610b56565b820191906000526020600020905b815481529060010190602001808311610b3957829003601f168201915b505050505081565b600560009054906101000a900473ffffffffffffffffffffffffffffffffffffffff1673ffffffffffffffffffffffffffffffffffffffff168173ffffffffffffffffffffffffffffffffffffffff16141515610c6f576040517f08c379a00000000000000000000000000000000000000000000000000000000081526004018080602001828103825260438152602001807f6f6e6c79207468652061737369676e656420636f6e736f727469756d2061646d81526020017f696e6973747261746f722063616e20617070726f7665206120706c616e74617481526020017f696f6e000000000000000000000000000000000000000000000000000000000081525060600191505060405180910390fd5b81600160146101000a81548160ff0219169083151502179055505050565b600160149054906101000a900460ff16151515610d38576040517f08c379a00000000000000000000000000000000000000000000000000000000081526004018080602001828103825260298152602001807f5468697320706c616e746174696f6e2068617320616c7265616479206265656e81526020017f20617070726f766564000000000000000000000000000000000000000000000081525060400191505060405180910390fd5b600160009054906101000a900473ffffffffffffffffffffffffffffffffffffffff1673ffffffffffffffffffffffffffffffffffffffff163373ffffffffffffffffffffffffffffffffffffffff16141515610e23576040517f08c379a00000000000000000000000000000000000000000000000000000000081526004018080602001828103825260328152602001807f4f6e6c79206f776e6572206d6179207365656b207065726d697373696f6e207481526020017f6f20656e74657220636f6e736f727469756d000000000000000000000000000081525060400191505060405180910390fd5b6000809054906101000a900473ffffffffffffffffffffffffffffffffffffffff1673ffffffffffffffffffffffffffffffffffffffff16639aea423c6040518163ffffffff167c0100000000000000000000000000000000000000000000000000000000028152600401600060405180830381600087803b158015610ea857600080fd5b505af1158015610ebc573d6000803e3d6000fd5b505050506001600560146101000a81548160ff021916908315150217905550565b600160009054906101000a900473ffffffffffffffffffffffffffffffffffffffff1681565b600560149054906101000a900460ff1681565b600160149054906101000a900460ff1681565b60076020528060005260406000206000915054906101000a900473ffffffffffffffffffffffffffffffffffffffff1681565b600160149054906101000a900460ff161515611006576040517f08c379a00000000000000000000000000000000000000000000000000000000081526004018080602001828103825260258152602001807f4163636573732044656e6965642c206e6f207065726d697373696f6e2064657481526020017f656374656400000000000000000000000000000000000000000000000000000081525060400191505060405180910390fd5b6000809054906101000a900473ffffffffffffffffffffffffffffffffffffffff1673ffffffffffffffffffffffffffffffffffffffff1663ef72bd1f83836040518363ffffffff167c01000000000000000000000000000000000000000000000000000000000281526004018083815260200182815260200192505050600060405180830381600087803b15801561109e57600080fd5b505af11580156110b2573d6000803e3d6000fd5b505050505050565b828054600181600116156101000203166002900490600052602060002090601f016020900481019282601f106110fb57805160ff1916838001178555611129565b82800160010185558215611129579182015b8281111561112857825182559160200191906001019061110d565b5b509050611136919061113a565b5090565b61115c91905b80821115611158576000816000905550600101611140565b5090565b905600a165627a7a7230582061d219ad5c6e3ac4048cfcfaaeb01a4574906c08af5e5d0733d95cf297d9976c0029a165627a7a723058206437595795d58b7b8d2e157997a8354dd3d83112837efdcd8f46f2780179a29a0029",
  "source": "pragma solidity ^0.4.0;\r\n\r\nimport './Consortium.sol';\r\nimport './Plantation.sol';\r\n\r\ncontract ConsortiumDeployer {\r\n    address[] public deployedConsortiums;\r\n    address[] public deployedPlantations;\r\n    mapping (address => bool) public rspoAdministrators;\r\n    address[] plantationsToReturn;\r\n   \r\n// plantationAddress => consortiumaddress\r\n    mapping (address => address) public plantationRelations;\r\n\r\n// Mapping: owneraddress => plantationaddress, only enables ownership of one plantation.\r\n    mapping (address => address) public plantationOwnerRelation;\r\n\r\n    constructor() public {\r\n        rspoAdministrators[msg.sender] = true;\r\n    }\r\n\r\n    function createConsortium() public {\r\n        require(rspoAdministrators[msg.sender], \"Only certified RSPO administrators may instantiate new consortiums\");\r\n        address newConsortium = new Consortium(msg.sender);\r\n        deployedConsortiums.push(newConsortium);\r\n    }\r\n    \r\n       function createPlantation(address _assignedConsortium, address administrator) public {\r\n        address newPlantation = new Plantation(_assignedConsortium, msg.sender, administrator);\r\n        plantationRelations[newPlantation] = _assignedConsortium;\r\n        plantationOwnerRelation[msg.sender] = newPlantation;\r\n        deployedPlantations.push(newPlantation);\r\n    }\r\n\r\n\r\n    function getDeployedConsortiums() public view returns (address[]) {\r\n        return deployedConsortiums;\r\n    }\r\n\r\n     function getDeployedPlantations() public view returns (address[]) {\r\n        return deployedPlantations;\r\n    }\r\n\r\n    \r\n     function getDeployedPlantationsByConsortium(address consortiumFilterInstance) public returns (address[]) {\r\n         \r\n            delete plantationsToReturn;\r\n         //MAY NEED TO USE THIS FOR FILTER OPTION, INSTEAD DONE CLIENTSIDE\r\n      \r\n\r\n          for (uint i=0; i<deployedPlantations.length; i++) {\r\n\r\n              if(plantationRelations[deployedPlantations[i]] == consortiumFilterInstance){\r\n                  plantationsToReturn.push(deployedPlantations[i]);\r\n              }\r\n          }\r\n\r\n        return plantationsToReturn;\r\n    }\r\n}",
  "sourcePath": "C:\\Users\\MAG\\source\\repos\\Bachelor\\PalmChain\\Ethereum\\contracts\\ConsortiumDeployer.sol",
  "compiler": {
    "name": "solc",
    "version": "0.4.24+commit.e67f0147.Emscripten.clang"
  },
  "schemaVersion": "2.0.1",
  "updatedAt": "2018-11-20T13:49:16.166Z"
}