{
  "contractName": "Consortium",
  "abi": [
    {
      "constant": true,
      "inputs": [],
      "name": "activeMill",
      "outputs": [
        {
          "name": "associatedAddress",
          "type": "address"
        },
        {
          "name": "GPSLongitude",
          "type": "string"
        },
        {
          "name": "GPSLatitude",
          "type": "string"
        },
        {
          "name": "name",
          "type": "string"
        }
      ],
      "payable": false,
      "stateMutability": "view",
      "type": "function"
    },
    {
      "constant": true,
      "inputs": [
        {
          "name": "",
          "type": "uint256"
        }
      ],
      "name": "plantationAddresses",
      "outputs": [
        {
          "name": "",
          "type": "address"
        }
      ],
      "payable": false,
      "stateMutability": "view",
      "type": "function"
    },
    {
      "constant": true,
      "inputs": [
        {
          "name": "",
          "type": "bytes32"
        }
      ],
      "name": "COExists",
      "outputs": [
        {
          "name": "",
          "type": "bool"
        }
      ],
      "payable": false,
      "stateMutability": "view",
      "type": "function"
    },
    {
      "constant": true,
      "inputs": [
        {
          "name": "",
          "type": "uint256"
        }
      ],
      "name": "pendingPlantationRequestsArray",
      "outputs": [
        {
          "name": "",
          "type": "address"
        }
      ],
      "payable": false,
      "stateMutability": "view",
      "type": "function"
    },
    {
      "constant": true,
      "inputs": [
        {
          "name": "",
          "type": "address"
        }
      ],
      "name": "registeredPlantations",
      "outputs": [
        {
          "name": "",
          "type": "bool"
        }
      ],
      "payable": false,
      "stateMutability": "view",
      "type": "function"
    },
    {
      "constant": true,
      "inputs": [
        {
          "name": "",
          "type": "uint256"
        }
      ],
      "name": "tokensToInclude",
      "outputs": [
        {
          "name": "",
          "type": "uint256"
        }
      ],
      "payable": false,
      "stateMutability": "view",
      "type": "function"
    },
    {
      "constant": true,
      "inputs": [
        {
          "name": "",
          "type": "address"
        }
      ],
      "name": "certifiedPlantations",
      "outputs": [
        {
          "name": "",
          "type": "bool"
        }
      ],
      "payable": false,
      "stateMutability": "view",
      "type": "function"
    },
    {
      "constant": true,
      "inputs": [
        {
          "name": "",
          "type": "address"
        }
      ],
      "name": "pendingPlantationRequests",
      "outputs": [
        {
          "name": "",
          "type": "bool"
        }
      ],
      "payable": false,
      "stateMutability": "view",
      "type": "function"
    },
    {
      "constant": true,
      "inputs": [],
      "name": "RSPOAdministrator",
      "outputs": [
        {
          "name": "",
          "type": "address"
        }
      ],
      "payable": false,
      "stateMutability": "view",
      "type": "function"
    },
    {
      "constant": true,
      "inputs": [
        {
          "name": "",
          "type": "bytes32"
        }
      ],
      "name": "FFBExists",
      "outputs": [
        {
          "name": "",
          "type": "bool"
        }
      ],
      "payable": false,
      "stateMutability": "view",
      "type": "function"
    },
    {
      "constant": true,
      "inputs": [
        {
          "name": "",
          "type": "address"
        }
      ],
      "name": "plantations",
      "outputs": [
        {
          "name": "",
          "type": "bool"
        }
      ],
      "payable": false,
      "stateMutability": "view",
      "type": "function"
    },
    {
      "constant": true,
      "inputs": [
        {
          "name": "",
          "type": "uint256"
        }
      ],
      "name": "COTokens",
      "outputs": [
        {
          "name": "weight",
          "type": "uint256"
        },
        {
          "name": "millOrigin",
          "type": "address"
        },
        {
          "name": "owner",
          "type": "address"
        },
        {
          "name": "newOwner",
          "type": "address"
        },
        {
          "name": "RSPOCertified",
          "type": "bool"
        },
        {
          "name": "processed",
          "type": "bool"
        }
      ],
      "payable": false,
      "stateMutability": "view",
      "type": "function"
    },
    {
      "constant": true,
      "inputs": [
        {
          "name": "",
          "type": "uint256"
        }
      ],
      "name": "FFBTokens",
      "outputs": [
        {
          "name": "weight",
          "type": "uint256"
        },
        {
          "name": "plantationOrigin",
          "type": "address"
        },
        {
          "name": "owner",
          "type": "address"
        },
        {
          "name": "newOwner",
          "type": "address"
        },
        {
          "name": "harvestTimeStamp",
          "type": "uint256"
        },
        {
          "name": "RSPOCertified",
          "type": "bool"
        },
        {
          "name": "processed",
          "type": "bool"
        }
      ],
      "payable": false,
      "stateMutability": "view",
      "type": "function"
    },
    {
      "inputs": [
        {
          "name": "RSPOAdmin",
          "type": "address"
        }
      ],
      "payable": false,
      "stateMutability": "nonpayable",
      "type": "constructor"
    },
    {
      "anonymous": false,
      "inputs": [
        {
          "indexed": false,
          "name": "owner",
          "type": "address"
        },
        {
          "indexed": false,
          "name": "newOwner",
          "type": "address"
        },
        {
          "indexed": false,
          "name": "index",
          "type": "uint256"
        }
      ],
      "name": "FFBTokenSubmitted",
      "type": "event"
    },
    {
      "anonymous": false,
      "inputs": [
        {
          "indexed": false,
          "name": "owner",
          "type": "address"
        },
        {
          "indexed": false,
          "name": "newOwner",
          "type": "address"
        },
        {
          "indexed": false,
          "name": "index",
          "type": "uint256"
        }
      ],
      "name": "COTokenSubmitted",
      "type": "event"
    },
    {
      "anonymous": false,
      "inputs": [
        {
          "indexed": false,
          "name": "plantationAddressOrigin",
          "type": "address"
        }
      ],
      "name": "PlantationSubmissionRequested",
      "type": "event"
    },
    {
      "anonymous": false,
      "inputs": [
        {
          "indexed": false,
          "name": "plantationAddressOrigin",
          "type": "address"
        }
      ],
      "name": "PlantationSubmissionApproved",
      "type": "event"
    },
    {
      "constant": false,
      "inputs": [],
      "name": "requestPlantationSubscription",
      "outputs": [],
      "payable": false,
      "stateMutability": "nonpayable",
      "type": "function"
    },
    {
      "constant": false,
      "inputs": [
        {
          "name": "plantationToAdd",
          "type": "address"
        }
      ],
      "name": "approvePlantationRequest",
      "outputs": [],
      "payable": false,
      "stateMutability": "nonpayable",
      "type": "function"
    },
    {
      "constant": false,
      "inputs": [
        {
          "name": "GPSLongitude",
          "type": "string"
        },
        {
          "name": "GPSLatitude",
          "type": "string"
        },
        {
          "name": "name",
          "type": "string"
        },
        {
          "name": "origin",
          "type": "address"
        }
      ],
      "name": "setMill",
      "outputs": [],
      "payable": false,
      "stateMutability": "nonpayable",
      "type": "function"
    },
    {
      "constant": false,
      "inputs": [
        {
          "name": "weight",
          "type": "uint256"
        },
        {
          "name": "harvestTimeStamp",
          "type": "uint256"
        }
      ],
      "name": "submitFFBToken",
      "outputs": [],
      "payable": false,
      "stateMutability": "nonpayable",
      "type": "function"
    },
    {
      "constant": false,
      "inputs": [
        {
          "name": "tokenIndexes",
          "type": "uint256[]"
        }
      ],
      "name": "consumeFFBTokens",
      "outputs": [],
      "payable": false,
      "stateMutability": "nonpayable",
      "type": "function"
    },
    {
      "constant": false,
      "inputs": [
        {
          "name": "plantation",
          "type": "address"
        }
      ],
      "name": "revokePlantationAccess",
      "outputs": [],
      "payable": false,
      "stateMutability": "nonpayable",
      "type": "function"
    },
    {
      "constant": true,
      "inputs": [
        {
          "name": "plantation",
          "type": "address"
        }
      ],
      "name": "getPlantationAtAddress",
      "outputs": [
        {
          "name": "",
          "type": "address"
        }
      ],
      "payable": false,
      "stateMutability": "view",
      "type": "function"
    }
  ],
  "bytecode": "0x608060405234801561001057600080fd5b506040516020806129598339810180604052810190808051906020019092919050505080600c60006101000a81548173ffffffffffffffffffffffffffffffffffffffff021916908373ffffffffffffffffffffffffffffffffffffffff160217905550506128d5806100846000396000f300608060405260043610610112576000357c0100000000000000000000000000000000000000000000000000000000900463ffffffff16806307ddf8d3146101175780630b4ac9a7146102b25780633e7177e3146102f5578063477ac206146103385780635bbedc22146103a557806366687adf146103ee578063747703c8146105035780637beb8af3146105865780638628d9ee146105f35780638e2e22741461064e5780639aea423c1461068f578063aa841b41146106a6578063ae33c56414610701578063b1737de01461075c578063c03de0f9146107b3578063df784abd146107fc578063e4f713be14610857578063ed98c66714610947578063ef72bd1f14610a3e578063fa84d76314610a75575b600080fd5b34801561012357600080fd5b5061012c610adb565b604051808573ffffffffffffffffffffffffffffffffffffffff1673ffffffffffffffffffffffffffffffffffffffff168152602001806020018060200180602001848103845287818151815260200191508051906020019080838360005b838110156101a657808201518184015260208101905061018b565b50505050905090810190601f1680156101d35780820380516001836020036101000a031916815260200191505b50848103835286818151815260200191508051906020019080838360005b8381101561020c5780820151818401526020810190506101f1565b50505050905090810190601f1680156102395780820380516001836020036101000a031916815260200191505b50848103825285818151815260200191508051906020019080838360005b83811015610272578082015181840152602081019050610257565b50505050905090810190601f16801561029f5780820380516001836020036101000a031916815260200191505b5097505050505050505060405180910390f35b3480156102be57600080fd5b506102f3600480360381019080803573ffffffffffffffffffffffffffffffffffffffff169060200190929190505050610ce1565b005b34801561030157600080fd5b50610336600480360381019080803573ffffffffffffffffffffffffffffffffffffffff169060200190929190505050610ebe565b005b34801561034457600080fd5b506103636004803603810190808035906020019092919050505061126c565b604051808273ffffffffffffffffffffffffffffffffffffffff1673ffffffffffffffffffffffffffffffffffffffff16815260200191505060405180910390f35b3480156103b157600080fd5b506103d460048036038101908080356000191690602001909291905050506112aa565b604051808215151515815260200191505060405180910390f35b3480156103fa57600080fd5b50610501600480360381019080803590602001908201803590602001908080601f0160208091040260200160405190810160405280939291908181526020018383808284378201915050505050509192919290803590602001908201803590602001908080601f0160208091040260200160405190810160405280939291908181526020018383808284378201915050505050509192919290803590602001908201803590602001908080601f0160208091040260200160405190810160405280939291908181526020018383808284378201915050505050509192919290803573ffffffffffffffffffffffffffffffffffffffff1690602001909291905050506112ca565b005b34801561050f57600080fd5b50610544600480360381019080803573ffffffffffffffffffffffffffffffffffffffff16906020019092919050505061147b565b604051808273ffffffffffffffffffffffffffffffffffffffff1673ffffffffffffffffffffffffffffffffffffffff16815260200191505060405180910390f35b34801561059257600080fd5b506105b16004803603810190808035906020019092919050505061154a565b604051808273ffffffffffffffffffffffffffffffffffffffff1673ffffffffffffffffffffffffffffffffffffffff16815260200191505060405180910390f35b3480156105ff57600080fd5b50610634600480360381019080803573ffffffffffffffffffffffffffffffffffffffff169060200190929190505050611588565b604051808215151515815260200191505060405180910390f35b34801561065a57600080fd5b50610679600480360381019080803590602001909291905050506115a8565b6040518082815260200191505060405180910390f35b34801561069b57600080fd5b506106a46115cb565b005b3480156106b257600080fd5b506106e7600480360381019080803573ffffffffffffffffffffffffffffffffffffffff16906020019092919050505061174a565b604051808215151515815260200191505060405180910390f35b34801561070d57600080fd5b50610742600480360381019080803573ffffffffffffffffffffffffffffffffffffffff16906020019092919050505061176a565b604051808215151515815260200191505060405180910390f35b34801561076857600080fd5b5061077161178a565b604051808273ffffffffffffffffffffffffffffffffffffffff1673ffffffffffffffffffffffffffffffffffffffff16815260200191505060405180910390f35b3480156107bf57600080fd5b506107e260048036038101908080356000191690602001909291905050506117b0565b604051808215151515815260200191505060405180910390f35b34801561080857600080fd5b5061083d600480360381019080803573ffffffffffffffffffffffffffffffffffffffff1690602001909291905050506117d0565b604051808215151515815260200191505060405180910390f35b34801561086357600080fd5b50610882600480360381019080803590602001909291905050506117f0565b604051808781526020018673ffffffffffffffffffffffffffffffffffffffff1673ffffffffffffffffffffffffffffffffffffffff1681526020018573ffffffffffffffffffffffffffffffffffffffff1673ffffffffffffffffffffffffffffffffffffffff1681526020018473ffffffffffffffffffffffffffffffffffffffff1673ffffffffffffffffffffffffffffffffffffffff1681526020018315151515815260200182151515158152602001965050505050505060405180910390f35b34801561095357600080fd5b50610972600480360381019080803590602001909291905050506118b5565b604051808881526020018773ffffffffffffffffffffffffffffffffffffffff1673ffffffffffffffffffffffffffffffffffffffff1681526020018673ffffffffffffffffffffffffffffffffffffffff1673ffffffffffffffffffffffffffffffffffffffff1681526020018573ffffffffffffffffffffffffffffffffffffffff1673ffffffffffffffffffffffffffffffffffffffff168152602001848152602001831515151581526020018215151515815260200197505050505050505060405180910390f35b348015610a4a57600080fd5b50610a736004803603810190808035906020019092919080359060200190929190505050611980565b005b348015610a8157600080fd5b50610ad960048036038101908080359060200190820180359060200190808060200260200160405190810160405280939291908181526020018383602002808284378201915050505050509192919290505050611db8565b005b60008060000160009054906101000a900473ffffffffffffffffffffffffffffffffffffffff1690806001018054600181600116156101000203166002900480601f016020809104026020016040519081016040528092919081815260200182805460018160011615610100020316600290048015610b9b5780601f10610b7057610100808354040283529160200191610b9b565b820191906000526020600020905b815481529060010190602001808311610b7e57829003601f168201915b505050505090806002018054600181600116156101000203166002900480601f016020809104026020016040519081016040528092919081815260200182805460018160011615610100020316600290048015610c395780601f10610c0e57610100808354040283529160200191610c39565b820191906000526020600020905b815481529060010190602001808311610c1c57829003601f168201915b505050505090806003018054600181600116156101000203166002900480601f016020809104026020016040519081016040528092919081815260200182805460018160011615610100020316600290048015610cd75780601f10610cac57610100808354040283529160200191610cd7565b820191906000526020600020905b815481529060010190602001808311610cba57829003601f168201915b5050505050905084565b6000600c60009054906101000a900473ffffffffffffffffffffffffffffffffffffffff1673ffffffffffffffffffffffffffffffffffffffff163373ffffffffffffffffffffffffffffffffffffffff16141515610da8576040517f08c379a000000000000000000000000000000000000000000000000000000000815260040180806020018281038252601c8152602001807f5253504f2061757468656e7469636174696f6e2072657175697265640000000081525060200191505060405180910390fd5b600660008373ffffffffffffffffffffffffffffffffffffffff1673ffffffffffffffffffffffffffffffffffffffff16815260200190815260200160002060006101000a81549060ff02191690558190508073ffffffffffffffffffffffffffffffffffffffff166387395ddc6000336040518363ffffffff167c010000000000000000000000000000000000000000000000000000000002815260040180831515151581526020018273ffffffffffffffffffffffffffffffffffffffff1673ffffffffffffffffffffffffffffffffffffffff16815260200192505050600060405180830381600087803b158015610ea257600080fd5b505af1158015610eb6573d6000803e3d6000fd5b505050505050565b6000600c60009054906101000a900473ffffffffffffffffffffffffffffffffffffffff1673ffffffffffffffffffffffffffffffffffffffff163373ffffffffffffffffffffffffffffffffffffffff16141515610f85576040517f08c379a000000000000000000000000000000000000000000000000000000000815260040180806020018281038252601c8152602001807f5253504f2061757468656e7469636174696f6e2072657175697265640000000081525060200191505060405180910390fd5b6001600460008473ffffffffffffffffffffffffffffffffffffffff1673ffffffffffffffffffffffffffffffffffffffff16815260200190815260200160002060006101000a81548160ff02191690831515021790555060058290806001815401808255809150509060018203906000526020600020016000909192909190916101000a81548173ffffffffffffffffffffffffffffffffffffffff021916908373ffffffffffffffffffffffffffffffffffffffff160217905550506001600760008473ffffffffffffffffffffffffffffffffffffffff1673ffffffffffffffffffffffffffffffffffffffff16815260200190815260200160002060006101000a81548160ff0219169083151502179055506001600660008473ffffffffffffffffffffffffffffffffffffffff1673ffffffffffffffffffffffffffffffffffffffff16815260200190815260200160002060006101000a81548160ff021916908315150217905550600860008373ffffffffffffffffffffffffffffffffffffffff1673ffffffffffffffffffffffffffffffffffffffff16815260200190815260200160002060006101000a81549060ff02191690557f6cd925231fae3a68dd83317f0efc12f76504daec91ae67222db197d09f83355682604051808273ffffffffffffffffffffffffffffffffffffffff1673ffffffffffffffffffffffffffffffffffffffff16815260200191505060405180910390a18190508073ffffffffffffffffffffffffffffffffffffffff166387395ddc6001336040518363ffffffff167c010000000000000000000000000000000000000000000000000000000002815260040180831515151581526020018273ffffffffffffffffffffffffffffffffffffffff1673ffffffffffffffffffffffffffffffffffffffff16815260200192505050600060405180830381600087803b15801561125057600080fd5b505af1158015611264573d6000803e3d6000fd5b505050505050565b60058181548110151561127b57fe5b906000526020600020016000915054906101000a900473ffffffffffffffffffffffffffffffffffffffff1681565b600d6020528060005260406000206000915054906101000a900460ff1681565b6112d261264f565b600c60009054906101000a900473ffffffffffffffffffffffffffffffffffffffff1673ffffffffffffffffffffffffffffffffffffffff163373ffffffffffffffffffffffffffffffffffffffff16141515611397576040517f08c379a000000000000000000000000000000000000000000000000000000000815260040180806020018281038252601c8152602001807f5253504f2061757468656e7469636174696f6e2072657175697265640000000081525060200191505060405180910390fd5b6080604051908101604052808373ffffffffffffffffffffffffffffffffffffffff168152602001868152602001858152602001848152509050806000808201518160000160006101000a81548173ffffffffffffffffffffffffffffffffffffffff021916908373ffffffffffffffffffffffffffffffffffffffff160217905550602082015181600101908051906020019061143692919061268e565b50604082015181600201908051906020019061145392919061268e565b50606082015181600301908051906020019061147092919061268e565b509050505050505050565b6000600c60009054906101000a900473ffffffffffffffffffffffffffffffffffffffff1673ffffffffffffffffffffffffffffffffffffffff163373ffffffffffffffffffffffffffffffffffffffff16141515611542576040517f08c379a000000000000000000000000000000000000000000000000000000000815260040180806020018281038252601c8152602001807f5253504f2061757468656e7469636174696f6e2072657175697265640000000081525060200191505060405180910390fd5b819050919050565b60098181548110151561155957fe5b906000526020600020016000915054906101000a900473ffffffffffffffffffffffffffffffffffffffff1681565b60066020528060005260406000206000915054906101000a900460ff1681565b600f818154811015156115b757fe5b906000526020600020016000915090505481565b600660003373ffffffffffffffffffffffffffffffffffffffff1673ffffffffffffffffffffffffffffffffffffffff16815260200190815260200160002060009054906101000a900460ff1615151561168d576040517f08c379a00000000000000000000000000000000000000000000000000000000081526004018080602001828103825260208152602001807f506c616e746174696f6e20697320616c7265616479207265676973746572656481525060200191505060405180910390fd5b7f1cb1da47af71799f10f2ac89920e67ec04faa33416f9e5a5b6fad22cf5036f4633604051808273ffffffffffffffffffffffffffffffffffffffff1673ffffffffffffffffffffffffffffffffffffffff16815260200191505060405180910390a16001600860003373ffffffffffffffffffffffffffffffffffffffff1673ffffffffffffffffffffffffffffffffffffffff16815260200190815260200160002060006101000a81548160ff021916908315150217905550565b60076020528060005260406000206000915054906101000a900460ff1681565b60086020528060005260406000206000915054906101000a900460ff1681565b600c60009054906101000a900473ffffffffffffffffffffffffffffffffffffffff1681565b600e6020528060005260406000206000915054906101000a900460ff1681565b60046020528060005260406000206000915054906101000a900460ff1681565b600b818154811015156117ff57fe5b90600052602060002090600502016000915090508060000154908060020160009054906101000a900473ffffffffffffffffffffffffffffffffffffffff16908060030160009054906101000a900473ffffffffffffffffffffffffffffffffffffffff16908060040160009054906101000a900473ffffffffffffffffffffffffffffffffffffffff16908060040160149054906101000a900460ff16908060040160159054906101000a900460ff16905086565b600a818154811015156118c457fe5b90600052602060002090600602016000915090508060000154908060010160009054906101000a900473ffffffffffffffffffffffffffffffffffffffff16908060020160009054906101000a900473ffffffffffffffffffffffffffffffffffffffff16908060030160009054906101000a900473ffffffffffffffffffffffffffffffffffffffff16908060040154908060050160009054906101000a900460ff16908060050160019054906101000a900460ff16905087565b600061198a61270e565b6000600660003373ffffffffffffffffffffffffffffffffffffffff1673ffffffffffffffffffffffffffffffffffffffff16815260200190815260200160002060009054906101000a900460ff161515611a73576040517f08c379a00000000000000000000000000000000000000000000000000000000081526004018080602001828103825260258152602001807f4163636573732044656e6965642c206e6f207065726d697373696f6e2064657481526020017f656374656400000000000000000000000000000000000000000000000000000081525060400191505060405180910390fd5b6001600760003373ffffffffffffffffffffffffffffffffffffffff1673ffffffffffffffffffffffffffffffffffffffff16815260200190815260200160002060006101000a81548160ff0219169083151502179055925060e0604051908101604052808681526020013373ffffffffffffffffffffffffffffffffffffffff1681526020013373ffffffffffffffffffffffffffffffffffffffff1681526020016000800160009054906101000a900473ffffffffffffffffffffffffffffffffffffffff1673ffffffffffffffffffffffffffffffffffffffff1681526020018581526020018415158152602001600015158152509150600a82908060018154018082558091505090600182039060005260206000209060060201600090919290919091506000820151816000015560208201518160010160006101000a81548173ffffffffffffffffffffffffffffffffffffffff021916908373ffffffffffffffffffffffffffffffffffffffff16021790555060408201518160020160006101000a81548173ffffffffffffffffffffffffffffffffffffffff021916908373ffffffffffffffffffffffffffffffffffffffff16021790555060608201518160030160006101000a81548173ffffffffffffffffffffffffffffffffffffffff021916908373ffffffffffffffffffffffffffffffffffffffff1602179055506080820151816004015560a08201518160050160006101000a81548160ff02191690831515021790555060c08201518160050160016101000a81548160ff0219169083151502179055505050503390508073ffffffffffffffffffffffffffffffffffffffff16634e6367c66000800160009054906101000a900473ffffffffffffffffffffffffffffffffffffffff166001600a80549050036040518363ffffffff167c0100000000000000000000000000000000000000000000000000000000028152600401808373ffffffffffffffffffffffffffffffffffffffff1673ffffffffffffffffffffffffffffffffffffffff16815260200182815260200192505050600060405180830381600087803b158015611d9957600080fd5b505af1158015611dad573d6000803e3d6000fd5b505050505050505050565b6000806000611dc5612792565b60008060008751111515611e41576040517f08c379a00000000000000000000000000000000000000000000000000000000081526004018080602001828103825260178152602001807f596f75206d75737420696e636c75646520746f6b656e7300000000000000000081525060200191505060405180910390fd5b6000800160009054906101000a900473ffffffffffffffffffffffffffffffffffffffff1673ffffffffffffffffffffffffffffffffffffffff163373ffffffffffffffffffffffffffffffffffffffff16141515611f2e576040517f08c379a00000000000000000000000000000000000000000000000000000000081526004018080602001828103825260348152602001807f4f6e6c7920616374697665206d696c6c206f776e657220697320616c6c6f776581526020017f6420746f2063726561746520434f546f6b656e7300000000000000000000000081525060400191505060405180910390fd5b6001955060009450600093505b8651841015612220573373ffffffffffffffffffffffffffffffffffffffff16600a8886815181101515611f6b57fe5b90602001906020020151815481101515611f8157fe5b906000526020600020906006020160030160009054906101000a900473ffffffffffffffffffffffffffffffffffffffff1673ffffffffffffffffffffffffffffffffffffffff16141515612064576040517f08c379a00000000000000000000000000000000000000000000000000000000081526004018080602001828103825260318152602001807f54686973206973206e6f742074686520696e74656e6465642064657374696e6181526020017f74696f6e206f662074686520746f6b656e00000000000000000000000000000081525060400191505060405180910390fd5b600a878581518110151561207457fe5b9060200190602002015181548110151561208a57fe5b906000526020600020906006020160050160019054906101000a900460ff16151515612144576040517f08c379a00000000000000000000000000000000000000000000000000000000081526004018080602001828103825260258152602001807f5468697320746f6b656e2068617320616c7265616479206265656e2070726f6381526020017f657373656400000000000000000000000000000000000000000000000000000081525060400191505060405180910390fd5b600f878581518110151561215457fe5b906020019060200201519080600181540180825580915050906001820390600052602060002001600090919290919091505550600a878581518110151561219757fe5b906020019060200201518154811015156121ad57fe5b90600052602060002090600602016000015485019450600a87858151811015156121d357fe5b906020019060200201518154811015156121e957fe5b906000526020600020906006020160050160009054906101000a900460ff16151561221357600095505b8380600101945050611f3b565b6000600f8054905011156126465760e060405190810160405280868152602001600f80548060200260200160405190810160405280929190818152602001828054801561228c57602002820191906000526020600020905b815481526020019060010190808311612278575b505050505081526020016000800160009054906101000a900473ffffffffffffffffffffffffffffffffffffffff1673ffffffffffffffffffffffffffffffffffffffff1681526020013373ffffffffffffffffffffffffffffffffffffffff168152602001600073ffffffffffffffffffffffffffffffffffffffff1681526020018715158152602001600015158152509250600b8390806001815401808255809150509060018203906000526020600020906005020160009091929091909150600082015181600001556020820151816001019080519060200190612374929190612816565b5060408201518160020160006101000a81548173ffffffffffffffffffffffffffffffffffffffff021916908373ffffffffffffffffffffffffffffffffffffffff16021790555060608201518160030160006101000a81548173ffffffffffffffffffffffffffffffffffffffff021916908373ffffffffffffffffffffffffffffffffffffffff16021790555060808201518160040160006101000a81548173ffffffffffffffffffffffffffffffffffffffff021916908373ffffffffffffffffffffffffffffffffffffffff16021790555060a08201518160040160146101000a81548160ff02191690831515021790555060c08201518160040160156101000a81548160ff0219169083151502179055505050507f30ed1de7eab8b98406ab30ed28da3ce37a6b65508470b47af420d9e49ec7546e836060015184608001516001600b8054905003604051808473ffffffffffffffffffffffffffffffffffffffff1673ffffffffffffffffffffffffffffffffffffffff1681526020018373ffffffffffffffffffffffffffffffffffffffff1673ffffffffffffffffffffffffffffffffffffffff168152602001828152602001935050505060405180910390a1600091505b600f8054905082101561263757600a600f8381548110151561255f57fe5b906000526020600020015481548110151561257657fe5b9060005260206000209060060201905060018160050160016101000a81548160ff02191690831515021790555060008160030160006101000a81548173ffffffffffffffffffffffffffffffffffffffff021916908373ffffffffffffffffffffffffffffffffffffffff160217905550338160020160006101000a81548173ffffffffffffffffffffffffffffffffffffffff021916908373ffffffffffffffffffffffffffffffffffffffff1602179055508180600101925050612541565b600f60006126459190612863565b5b50505050505050565b608060405190810160405280600073ffffffffffffffffffffffffffffffffffffffff1681526020016060815260200160608152602001606081525090565b828054600181600116156101000203166002900490600052602060002090601f016020900481019282601f106126cf57805160ff19168380011785556126fd565b828001600101855582156126fd579182015b828111156126fc5782518255916020019190600101906126e1565b5b50905061270a9190612884565b5090565b60e06040519081016040528060008152602001600073ffffffffffffffffffffffffffffffffffffffff168152602001600073ffffffffffffffffffffffffffffffffffffffff168152602001600073ffffffffffffffffffffffffffffffffffffffff168152602001600081526020016000151581526020016000151581525090565b60e0604051908101604052806000815260200160608152602001600073ffffffffffffffffffffffffffffffffffffffff168152602001600073ffffffffffffffffffffffffffffffffffffffff168152602001600073ffffffffffffffffffffffffffffffffffffffff1681526020016000151581526020016000151581525090565b828054828255906000526020600020908101928215612852579160200282015b82811115612851578251825591602001919060010190612836565b5b50905061285f9190612884565b5090565b50805460008255906000526020600020908101906128819190612884565b50565b6128a691905b808211156128a257600081600090555060010161288a565b5090565b905600a165627a7a723058205472e1b34c0aa0dfc2cffc7f1f52ee5ea8616927bb006ac4f622ed0a1d82a86c0029",
  "source": "pragma solidity ^0.4.0;\r\nimport './Plantation.sol';\r\n\r\ncontract Consortium {\r\n    \r\n    struct FFBToken {\r\n\r\n        uint weight;\r\n        address plantationOrigin;\r\n        address owner;\r\n        address newOwner;\r\n        uint harvestTimeStamp;\r\n        bool RSPOCertified;\r\n        bool processed;\r\n    \r\n\r\n    }\r\n    \r\n    struct COToken {\r\n\r\n        uint weight;\r\n        uint[] containedFFB;\r\n        address millOrigin;\r\n        address owner;\r\n        address newOwner;\r\n        bool RSPOCertified;\r\n        bool processed;\r\n        \r\n    }\r\n\r\n    struct Mill {\r\n        address associatedAddress;\r\n        string GPSLongitude;\r\n        string GPSLatitude;\r\n        \r\n        string name;\r\n\r\n        //Hash may be omitted in favor of address use\r\n     //   bytes32 millHash;\r\n    }\r\n    \r\n\r\n    //Events:\r\n    event FFBTokenSubmitted(address owner, address newOwner, uint index);\r\n    event COTokenSubmitted(address owner, address newOwner, uint index);\r\n    event PlantationSubmissionRequested(address plantationAddressOrigin);\r\n    event PlantationSubmissionApproved(address plantationAddressOrigin);\r\n\r\n   // event PlantationSubmissionRequested(address owner, address newOwner, uint index);\r\n    \r\n    Mill public activeMill;\r\n\r\n   mapping (address => bool) public plantations;\r\n\r\n   address[] public plantationAddresses;\r\n    \r\n    mapping (address => bool) public registeredPlantations;\r\n\r\n    mapping (address => bool) public certifiedPlantations;\r\n\r\n\r\n     mapping (address => bool) public pendingPlantationRequests;\r\n     address[] public pendingPlantationRequestsArray;\r\n    // mapping (bytes32 => FFBToken) public FFBTokens;\r\n\r\n    FFBToken[] public FFBTokens;\r\n\r\n   // mapping (bytes32 => COToken) public COTokens;\r\n   \r\n    COToken[] public COTokens;\r\n    \r\n    address public RSPOAdministrator;\r\n    \r\n    mapping (bytes32 => bool) public COExists;\r\n    \r\n    mapping (bytes32 => bool) public FFBExists;\r\n\r\n    uint[] public tokensToInclude;\r\n    \r\n    modifier onlyRSPOAdmin {\r\n        require(msg.sender == RSPOAdministrator, \"RSPO authentication required\");\r\n         _;\r\n    }\r\n    \r\n    constructor(address RSPOAdmin) public {\r\n        RSPOAdministrator = RSPOAdmin;\r\n    }\r\n    \r\n    // constructor() public {\r\n    //     RSPOAdministrator = msg.sender;\r\n    // }\r\n    \r\n    //Request addition of new Plantation to consortium\r\n    function requestPlantationSubscription() public {\r\n      \r\n                //msg.sender is assumed to be address of plantation\r\n        require(!registeredPlantations[msg.sender], \"Plantation is already registered\");\r\n\r\n        \r\n        emit PlantationSubmissionRequested(msg.sender);\r\n        \r\n        pendingPlantationRequests[msg.sender] = true;\r\n        \r\n        \r\n    }\r\n    \r\n    function approvePlantationRequest(address plantationToAdd) public onlyRSPOAdmin {\r\n        \r\n        //Index may be derived from planatation hash rather than passed with index\r\n\r\n        plantations[plantationToAdd] = true;\r\n        plantationAddresses.push(plantationToAdd);\r\n        certifiedPlantations[plantationToAdd] = true;\r\n        registeredPlantations[plantationToAdd] = true;\r\n        delete pendingPlantationRequests[plantationToAdd];\r\n        emit PlantationSubmissionApproved(plantationToAdd);\r\n\r\n        Plantation p = Plantation(plantationToAdd);\r\n        p.setPlantationApproved(true, msg.sender);\r\n        \r\n    }\r\n    \r\n    function setMill(string GPSLongitude,\r\n        string GPSLatitude,\r\n        \r\n        string name,\r\n        address origin) public onlyRSPOAdmin {\r\n            \r\n            Mill memory newMill = Mill({\r\n            name: name,\r\n            associatedAddress: origin,\r\n            GPSLatitude:GPSLatitude,\r\n            GPSLongitude:GPSLongitude\r\n        });\r\n        \r\n        activeMill = newMill;\r\n        \r\n    }\r\n    \r\n    \r\n    function submitFFBToken(\r\n        uint weight,\r\n        uint harvestTimeStamp\r\n        ) public {\r\n\r\n        //Find date lsning\r\n        //Assume call comes from plantation contract => msg.sender is valid\r\n        require(registeredPlantations[msg.sender], \"Access Denied, no permission detected\");\r\n        bool isCertified = certifiedPlantations[msg.sender] = true;  \r\n\r\n\r\n        FFBToken memory token = FFBToken({\r\n         weight: weight,\r\n         plantationOrigin: msg.sender,\r\n         owner: msg.sender,\r\n         newOwner: activeMill.associatedAddress,\r\n         harvestTimeStamp: harvestTimeStamp,\r\n         RSPOCertified: isCertified,\r\n         processed: false});\r\n\r\n        FFBTokens.push(token);\r\n\r\n                 Plantation p = Plantation(msg.sender);\r\n             p.emitFFBEvent( activeMill.associatedAddress, FFBTokens.length -1);\r\n        //emit FFBTokenSubmitted(msg.sender, activeMill.associatedAddress, FFBTokens.length -1);\r\n       \r\n        }\r\n\r\n    \r\n    function consumeFFBTokens( uint[] tokenIndexes) public {\r\n        require(tokenIndexes.length > 0, \"You must include tokens\");\r\n\r\n        //Calculate token weight from FFB tokens\r\n        require(msg.sender == activeMill.associatedAddress, \"Only active mill owner is allowed to create COTokens\");\r\n        bool allTokensCertified = true;\r\n        uint coWeight = 0;\r\n        for (uint i=0; i<tokenIndexes.length; i++) {\r\n\r\n\r\n               require(FFBTokens[tokenIndexes[i]].newOwner == msg.sender, \"This is not the intended destination of the token\");\r\n               require(!FFBTokens[tokenIndexes[i]].processed, \"This token has already been processed\");\r\n                     \r\n                tokensToInclude.push(tokenIndexes[i]);\r\n                coWeight += FFBTokens[tokenIndexes[i]].weight;\r\n                if(!FFBTokens[tokenIndexes[i]].RSPOCertified){\r\n                 \r\n                    allTokensCertified = false;\r\n                }              \r\n                \r\n        }\r\n\r\n        if(tokensToInclude.length > 0){\r\n           \r\n           COToken memory token = COToken({\r\n             weight: coWeight,\r\n             containedFFB: tokensToInclude,\r\n             owner: msg.sender,\r\n             newOwner:  0,\r\n             millOrigin: activeMill.associatedAddress,\r\n             RSPOCertified: allTokensCertified,\r\n             processed: false\r\n    \r\n            });\r\n\r\n            COTokens.push(token);\r\n           emit COTokenSubmitted(token.owner, token.newOwner, COTokens.length-1);\r\n                 for (uint j=0; j<tokensToInclude.length; j++) {\r\n                 FFBToken storage tokenToUpdate =  FFBTokens[tokensToInclude[j]];\r\n                  tokenToUpdate.processed = true;\r\n                  tokenToUpdate.newOwner = 0;\r\n                  tokenToUpdate.owner = msg.sender;\r\n           \r\n                 }\r\n            delete tokensToInclude;\r\n\r\n        }\r\n\r\n\r\n\r\n    }\r\n\r\n    function revokePlantationAccess(address plantation) onlyRSPOAdmin public {\r\n        delete registeredPlantations[plantation];\r\n          Plantation p = Plantation(plantation);\r\n                 p.setPlantationApproved(false, msg.sender);\r\n    }\r\n\r\n    function getPlantationAtAddress(address plantation) onlyRSPOAdmin public view returns(address){\r\n        return plantation;\r\n        \r\n    }\r\n\r\n \r\n}",
  "sourcePath": "C:\\Users\\MAG\\source\\repos\\Bachelor\\PalmChain\\Ethereum\\contracts\\Consortium.sol",
  "compiler": {
    "name": "solc",
    "version": "0.4.24+commit.e67f0147.Emscripten.clang"
  },
  "schemaVersion": "2.0.1",
  "updatedAt": "2018-11-17T14:52:07.645Z"
}