{
  "contractName": "ConsortiumDeployer",
  "abi": [
    {
      "constant": true,
      "inputs": [
        {
          "name": "",
          "type": "uint256"
        }
      ],
      "name": "deployedConsortiums",
      "outputs": [
        {
          "name": "",
          "type": "address"
        }
      ],
      "payable": false,
      "stateMutability": "view",
      "type": "function"
    },
    {
      "constant": true,
      "inputs": [
        {
          "name": "",
          "type": "address"
        }
      ],
      "name": "plantationRelations",
      "outputs": [
        {
          "name": "",
          "type": "address"
        }
      ],
      "payable": false,
      "stateMutability": "view",
      "type": "function"
    },
    {
      "constant": true,
      "inputs": [
        {
          "name": "",
          "type": "address"
        }
      ],
      "name": "rspoAdministrators",
      "outputs": [
        {
          "name": "",
          "type": "bool"
        }
      ],
      "payable": false,
      "stateMutability": "view",
      "type": "function"
    },
    {
      "constant": true,
      "inputs": [
        {
          "name": "",
          "type": "uint256"
        }
      ],
      "name": "deployedPlantations",
      "outputs": [
        {
          "name": "",
          "type": "address"
        }
      ],
      "payable": false,
      "stateMutability": "view",
      "type": "function"
    },
    {
      "inputs": [],
      "payable": false,
      "stateMutability": "nonpayable",
      "type": "constructor"
    },
    {
      "constant": false,
      "inputs": [],
      "name": "createConsortium",
      "outputs": [],
      "payable": false,
      "stateMutability": "nonpayable",
      "type": "function"
    },
    {
      "constant": false,
      "inputs": [
        {
          "name": "_assignedConsortium",
          "type": "address"
        },
        {
          "name": "administrator",
          "type": "address"
        }
      ],
      "name": "createPlantation",
      "outputs": [],
      "payable": false,
      "stateMutability": "nonpayable",
      "type": "function"
    },
    {
      "constant": true,
      "inputs": [],
      "name": "getDeployedConsortiums",
      "outputs": [
        {
          "name": "",
          "type": "address[]"
        }
      ],
      "payable": false,
      "stateMutability": "view",
      "type": "function"
    },
    {
      "constant": true,
      "inputs": [],
      "name": "getDeployedPlantations",
      "outputs": [
        {
          "name": "",
          "type": "address[]"
        }
      ],
      "payable": false,
      "stateMutability": "view",
      "type": "function"
    },
    {
      "constant": false,
      "inputs": [
        {
          "name": "consortiumFilterInstance",
          "type": "address"
        }
      ],
      "name": "getDeployedPlantationsByConsortium",
      "outputs": [
        {
          "name": "",
          "type": "address[]"
        }
      ],
      "payable": false,
      "stateMutability": "nonpayable",
      "type": "function"
    }
  ],
  "bytecode": "0x608060405234801561001057600080fd5b506001600260003373ffffffffffffffffffffffffffffffffffffffff1673ffffffffffffffffffffffffffffffffffffffff16815260200190815260200160002060006101000a81548160ff021916908315150217905550614926806100786000396000f300608060405260043610610098576000357c0100000000000000000000000000000000000000000000000000000000900463ffffffff168062ec05ff1461009d57806307e5ce3f1461010a57806318d50564146101215780631d9e01de146101a457806321deb5b71461023c57806324628f37146102975780637a7a6000146102fa578063a4abe3c414610366578063d197fcc0146103d2575b600080fd5b3480156100a957600080fd5b506100c86004803603810190808035906020019092919050505061043f565b604051808273ffffffffffffffffffffffffffffffffffffffff1673ffffffffffffffffffffffffffffffffffffffff16815260200191505060405180910390f35b34801561011657600080fd5b5061011f61047d565b005b34801561012d57600080fd5b50610162600480360381019080803573ffffffffffffffffffffffffffffffffffffffff169060200190929190505050610653565b604051808273ffffffffffffffffffffffffffffffffffffffff1673ffffffffffffffffffffffffffffffffffffffff16815260200191505060405180910390f35b3480156101b057600080fd5b506101e5600480360381019080803573ffffffffffffffffffffffffffffffffffffffff169060200190929190505050610686565b6040518080602001828103825283818151815260200191508051906020019060200280838360005b8381101561022857808201518184015260208101905061020d565b505050509050019250505060405180910390f35b34801561024857600080fd5b5061027d600480360381019080803573ffffffffffffffffffffffffffffffffffffffff1690602001909291905050506108b2565b604051808215151515815260200191505060405180910390f35b3480156102a357600080fd5b506102f8600480360381019080803573ffffffffffffffffffffffffffffffffffffffff169060200190929190803573ffffffffffffffffffffffffffffffffffffffff1690602001909291905050506108d2565b005b34801561030657600080fd5b5061030f610a83565b6040518080602001828103825283818151815260200191508051906020019060200280838360005b83811015610352578082015181840152602081019050610337565b505050509050019250505060405180910390f35b34801561037257600080fd5b5061037b610b11565b6040518080602001828103825283818151815260200191508051906020019060200280838360005b838110156103be5780820151818401526020810190506103a3565b505050509050019250505060405180910390f35b3480156103de57600080fd5b506103fd60048036038101908080359060200190929190505050610b9f565b604051808273ffffffffffffffffffffffffffffffffffffffff1673ffffffffffffffffffffffffffffffffffffffff16815260200191505060405180910390f35b60008181548110151561044e57fe5b906000526020600020016000915054906101000a900473ffffffffffffffffffffffffffffffffffffffff1681565b6000600260003373ffffffffffffffffffffffffffffffffffffffff1673ffffffffffffffffffffffffffffffffffffffff16815260200190815260200160002060009054906101000a900460ff16151561058c576040517f08c379a00000000000000000000000000000000000000000000000000000000081526004018080602001828103825260428152602001807f4f6e6c7920636572746966696564205253504f2061646d696e6973747261746f81526020017f7273206d617920696e7374616e7469617465206e657720636f6e736f7274697581526020017f6d7300000000000000000000000000000000000000000000000000000000000081525060600191505060405180910390fd5b33610595610bdd565b808273ffffffffffffffffffffffffffffffffffffffff1673ffffffffffffffffffffffffffffffffffffffff168152602001915050604051809103906000f0801580156105e7573d6000803e3d6000fd5b50905060008190806001815401808255809150509060018203906000526020600020016000909192909190916101000a81548173ffffffffffffffffffffffffffffffffffffffff021916908373ffffffffffffffffffffffffffffffffffffffff1602179055505050565b60046020528060005260406000206000915054906101000a900473ffffffffffffffffffffffffffffffffffffffff1681565b60606000600360006106989190610bed565b600090505b600180549050811015610823578273ffffffffffffffffffffffffffffffffffffffff16600460006001848154811015156106d457fe5b9060005260206000200160009054906101000a900473ffffffffffffffffffffffffffffffffffffffff1673ffffffffffffffffffffffffffffffffffffffff1673ffffffffffffffffffffffffffffffffffffffff16815260200190815260200160002060009054906101000a900473ffffffffffffffffffffffffffffffffffffffff1673ffffffffffffffffffffffffffffffffffffffff16141561081657600360018281548110151561078757fe5b9060005260206000200160009054906101000a900473ffffffffffffffffffffffffffffffffffffffff1690806001815401808255809150509060018203906000526020600020016000909192909190916101000a81548173ffffffffffffffffffffffffffffffffffffffff021916908373ffffffffffffffffffffffffffffffffffffffff160217905550505b808060010191505061069d565b60038054806020026020016040519081016040528092919081815260200182805480156108a557602002820191906000526020600020905b8160009054906101000a900473ffffffffffffffffffffffffffffffffffffffff1673ffffffffffffffffffffffffffffffffffffffff168152602001906001019080831161085b575b5050505050915050919050565b60026020528060005260406000206000915054906101000a900460ff1681565b60008233836108df610c0e565b808473ffffffffffffffffffffffffffffffffffffffff1673ffffffffffffffffffffffffffffffffffffffff1681526020018373ffffffffffffffffffffffffffffffffffffffff1673ffffffffffffffffffffffffffffffffffffffff1681526020018273ffffffffffffffffffffffffffffffffffffffff1673ffffffffffffffffffffffffffffffffffffffff1681526020019350505050604051809103906000f080158015610997573d6000803e3d6000fd5b50905082600460008373ffffffffffffffffffffffffffffffffffffffff1673ffffffffffffffffffffffffffffffffffffffff16815260200190815260200160002060006101000a81548173ffffffffffffffffffffffffffffffffffffffff021916908373ffffffffffffffffffffffffffffffffffffffff16021790555060018190806001815401808255809150509060018203906000526020600020016000909192909190916101000a81548173ffffffffffffffffffffffffffffffffffffffff021916908373ffffffffffffffffffffffffffffffffffffffff16021790555050505050565b60606001805480602002602001604051908101604052809291908181526020018280548015610b0757602002820191906000526020600020905b8160009054906101000a900473ffffffffffffffffffffffffffffffffffffffff1673ffffffffffffffffffffffffffffffffffffffff1681526020019060010190808311610abd575b5050505050905090565b60606000805480602002602001604051908101604052809291908181526020018280548015610b9557602002820191906000526020600020905b8160009054906101000a900473ffffffffffffffffffffffffffffffffffffffff1673ffffffffffffffffffffffffffffffffffffffff1681526020019060010190808311610b4b575b5050505050905090565b600181815481101515610bae57fe5b906000526020600020016000915054906101000a900473ffffffffffffffffffffffffffffffffffffffff1681565b60405161295980610c4483390190565b5080546000825590600052602060002090810190610c0b9190610c1e565b50565b60405161135e8061359d83390190565b610c4091905b80821115610c3c576000816000905550600101610c24565b5090565b905600608060405234801561001057600080fd5b506040516020806129598339810180604052810190808051906020019092919050505080600c60006101000a81548173ffffffffffffffffffffffffffffffffffffffff021916908373ffffffffffffffffffffffffffffffffffffffff160217905550506128d5806100846000396000f300608060405260043610610112576000357c0100000000000000000000000000000000000000000000000000000000900463ffffffff16806307ddf8d3146101175780630b4ac9a7146102b25780633e7177e3146102f5578063477ac206146103385780635bbedc22146103a557806366687adf146103ee578063747703c8146105035780637beb8af3146105865780638628d9ee146105f35780638e2e22741461064e5780639aea423c1461068f578063aa841b41146106a6578063ae33c56414610701578063b1737de01461075c578063c03de0f9146107b3578063df784abd146107fc578063e4f713be14610857578063ed98c66714610947578063ef72bd1f14610a3e578063fa84d76314610a75575b600080fd5b34801561012357600080fd5b5061012c610adb565b604051808573ffffffffffffffffffffffffffffffffffffffff1673ffffffffffffffffffffffffffffffffffffffff168152602001806020018060200180602001848103845287818151815260200191508051906020019080838360005b838110156101a657808201518184015260208101905061018b565b50505050905090810190601f1680156101d35780820380516001836020036101000a031916815260200191505b50848103835286818151815260200191508051906020019080838360005b8381101561020c5780820151818401526020810190506101f1565b50505050905090810190601f1680156102395780820380516001836020036101000a031916815260200191505b50848103825285818151815260200191508051906020019080838360005b83811015610272578082015181840152602081019050610257565b50505050905090810190601f16801561029f5780820380516001836020036101000a031916815260200191505b5097505050505050505060405180910390f35b3480156102be57600080fd5b506102f3600480360381019080803573ffffffffffffffffffffffffffffffffffffffff169060200190929190505050610ce1565b005b34801561030157600080fd5b50610336600480360381019080803573ffffffffffffffffffffffffffffffffffffffff169060200190929190505050610ebe565b005b34801561034457600080fd5b506103636004803603810190808035906020019092919050505061126c565b604051808273ffffffffffffffffffffffffffffffffffffffff1673ffffffffffffffffffffffffffffffffffffffff16815260200191505060405180910390f35b3480156103b157600080fd5b506103d460048036038101908080356000191690602001909291905050506112aa565b604051808215151515815260200191505060405180910390f35b3480156103fa57600080fd5b50610501600480360381019080803590602001908201803590602001908080601f0160208091040260200160405190810160405280939291908181526020018383808284378201915050505050509192919290803590602001908201803590602001908080601f0160208091040260200160405190810160405280939291908181526020018383808284378201915050505050509192919290803590602001908201803590602001908080601f0160208091040260200160405190810160405280939291908181526020018383808284378201915050505050509192919290803573ffffffffffffffffffffffffffffffffffffffff1690602001909291905050506112ca565b005b34801561050f57600080fd5b50610544600480360381019080803573ffffffffffffffffffffffffffffffffffffffff16906020019092919050505061147b565b604051808273ffffffffffffffffffffffffffffffffffffffff1673ffffffffffffffffffffffffffffffffffffffff16815260200191505060405180910390f35b34801561059257600080fd5b506105b16004803603810190808035906020019092919050505061154a565b604051808273ffffffffffffffffffffffffffffffffffffffff1673ffffffffffffffffffffffffffffffffffffffff16815260200191505060405180910390f35b3480156105ff57600080fd5b50610634600480360381019080803573ffffffffffffffffffffffffffffffffffffffff169060200190929190505050611588565b604051808215151515815260200191505060405180910390f35b34801561065a57600080fd5b50610679600480360381019080803590602001909291905050506115a8565b6040518082815260200191505060405180910390f35b34801561069b57600080fd5b506106a46115cb565b005b3480156106b257600080fd5b506106e7600480360381019080803573ffffffffffffffffffffffffffffffffffffffff16906020019092919050505061174a565b604051808215151515815260200191505060405180910390f35b34801561070d57600080fd5b50610742600480360381019080803573ffffffffffffffffffffffffffffffffffffffff16906020019092919050505061176a565b604051808215151515815260200191505060405180910390f35b34801561076857600080fd5b5061077161178a565b604051808273ffffffffffffffffffffffffffffffffffffffff1673ffffffffffffffffffffffffffffffffffffffff16815260200191505060405180910390f35b3480156107bf57600080fd5b506107e260048036038101908080356000191690602001909291905050506117b0565b604051808215151515815260200191505060405180910390f35b34801561080857600080fd5b5061083d600480360381019080803573ffffffffffffffffffffffffffffffffffffffff1690602001909291905050506117d0565b604051808215151515815260200191505060405180910390f35b34801561086357600080fd5b50610882600480360381019080803590602001909291905050506117f0565b604051808781526020018673ffffffffffffffffffffffffffffffffffffffff1673ffffffffffffffffffffffffffffffffffffffff1681526020018573ffffffffffffffffffffffffffffffffffffffff1673ffffffffffffffffffffffffffffffffffffffff1681526020018473ffffffffffffffffffffffffffffffffffffffff1673ffffffffffffffffffffffffffffffffffffffff1681526020018315151515815260200182151515158152602001965050505050505060405180910390f35b34801561095357600080fd5b50610972600480360381019080803590602001909291905050506118b5565b604051808881526020018773ffffffffffffffffffffffffffffffffffffffff1673ffffffffffffffffffffffffffffffffffffffff1681526020018673ffffffffffffffffffffffffffffffffffffffff1673ffffffffffffffffffffffffffffffffffffffff1681526020018573ffffffffffffffffffffffffffffffffffffffff1673ffffffffffffffffffffffffffffffffffffffff168152602001848152602001831515151581526020018215151515815260200197505050505050505060405180910390f35b348015610a4a57600080fd5b50610a736004803603810190808035906020019092919080359060200190929190505050611980565b005b348015610a8157600080fd5b50610ad960048036038101908080359060200190820180359060200190808060200260200160405190810160405280939291908181526020018383602002808284378201915050505050509192919290505050611db8565b005b60008060000160009054906101000a900473ffffffffffffffffffffffffffffffffffffffff1690806001018054600181600116156101000203166002900480601f016020809104026020016040519081016040528092919081815260200182805460018160011615610100020316600290048015610b9b5780601f10610b7057610100808354040283529160200191610b9b565b820191906000526020600020905b815481529060010190602001808311610b7e57829003601f168201915b505050505090806002018054600181600116156101000203166002900480601f016020809104026020016040519081016040528092919081815260200182805460018160011615610100020316600290048015610c395780601f10610c0e57610100808354040283529160200191610c39565b820191906000526020600020905b815481529060010190602001808311610c1c57829003601f168201915b505050505090806003018054600181600116156101000203166002900480601f016020809104026020016040519081016040528092919081815260200182805460018160011615610100020316600290048015610cd75780601f10610cac57610100808354040283529160200191610cd7565b820191906000526020600020905b815481529060010190602001808311610cba57829003601f168201915b5050505050905084565b6000600c60009054906101000a900473ffffffffffffffffffffffffffffffffffffffff1673ffffffffffffffffffffffffffffffffffffffff163373ffffffffffffffffffffffffffffffffffffffff16141515610da8576040517f08c379a000000000000000000000000000000000000000000000000000000000815260040180806020018281038252601c8152602001807f5253504f2061757468656e7469636174696f6e2072657175697265640000000081525060200191505060405180910390fd5b600660008373ffffffffffffffffffffffffffffffffffffffff1673ffffffffffffffffffffffffffffffffffffffff16815260200190815260200160002060006101000a81549060ff02191690558190508073ffffffffffffffffffffffffffffffffffffffff166387395ddc6000336040518363ffffffff167c010000000000000000000000000000000000000000000000000000000002815260040180831515151581526020018273ffffffffffffffffffffffffffffffffffffffff1673ffffffffffffffffffffffffffffffffffffffff16815260200192505050600060405180830381600087803b158015610ea257600080fd5b505af1158015610eb6573d6000803e3d6000fd5b505050505050565b6000600c60009054906101000a900473ffffffffffffffffffffffffffffffffffffffff1673ffffffffffffffffffffffffffffffffffffffff163373ffffffffffffffffffffffffffffffffffffffff16141515610f85576040517f08c379a000000000000000000000000000000000000000000000000000000000815260040180806020018281038252601c8152602001807f5253504f2061757468656e7469636174696f6e2072657175697265640000000081525060200191505060405180910390fd5b6001600460008473ffffffffffffffffffffffffffffffffffffffff1673ffffffffffffffffffffffffffffffffffffffff16815260200190815260200160002060006101000a81548160ff02191690831515021790555060058290806001815401808255809150509060018203906000526020600020016000909192909190916101000a81548173ffffffffffffffffffffffffffffffffffffffff021916908373ffffffffffffffffffffffffffffffffffffffff160217905550506001600760008473ffffffffffffffffffffffffffffffffffffffff1673ffffffffffffffffffffffffffffffffffffffff16815260200190815260200160002060006101000a81548160ff0219169083151502179055506001600660008473ffffffffffffffffffffffffffffffffffffffff1673ffffffffffffffffffffffffffffffffffffffff16815260200190815260200160002060006101000a81548160ff021916908315150217905550600860008373ffffffffffffffffffffffffffffffffffffffff1673ffffffffffffffffffffffffffffffffffffffff16815260200190815260200160002060006101000a81549060ff02191690557f6cd925231fae3a68dd83317f0efc12f76504daec91ae67222db197d09f83355682604051808273ffffffffffffffffffffffffffffffffffffffff1673ffffffffffffffffffffffffffffffffffffffff16815260200191505060405180910390a18190508073ffffffffffffffffffffffffffffffffffffffff166387395ddc6001336040518363ffffffff167c010000000000000000000000000000000000000000000000000000000002815260040180831515151581526020018273ffffffffffffffffffffffffffffffffffffffff1673ffffffffffffffffffffffffffffffffffffffff16815260200192505050600060405180830381600087803b15801561125057600080fd5b505af1158015611264573d6000803e3d6000fd5b505050505050565b60058181548110151561127b57fe5b906000526020600020016000915054906101000a900473ffffffffffffffffffffffffffffffffffffffff1681565b600d6020528060005260406000206000915054906101000a900460ff1681565b6112d261264f565b600c60009054906101000a900473ffffffffffffffffffffffffffffffffffffffff1673ffffffffffffffffffffffffffffffffffffffff163373ffffffffffffffffffffffffffffffffffffffff16141515611397576040517f08c379a000000000000000000000000000000000000000000000000000000000815260040180806020018281038252601c8152602001807f5253504f2061757468656e7469636174696f6e2072657175697265640000000081525060200191505060405180910390fd5b6080604051908101604052808373ffffffffffffffffffffffffffffffffffffffff168152602001868152602001858152602001848152509050806000808201518160000160006101000a81548173ffffffffffffffffffffffffffffffffffffffff021916908373ffffffffffffffffffffffffffffffffffffffff160217905550602082015181600101908051906020019061143692919061268e565b50604082015181600201908051906020019061145392919061268e565b50606082015181600301908051906020019061147092919061268e565b509050505050505050565b6000600c60009054906101000a900473ffffffffffffffffffffffffffffffffffffffff1673ffffffffffffffffffffffffffffffffffffffff163373ffffffffffffffffffffffffffffffffffffffff16141515611542576040517f08c379a000000000000000000000000000000000000000000000000000000000815260040180806020018281038252601c8152602001807f5253504f2061757468656e7469636174696f6e2072657175697265640000000081525060200191505060405180910390fd5b819050919050565b60098181548110151561155957fe5b906000526020600020016000915054906101000a900473ffffffffffffffffffffffffffffffffffffffff1681565b60066020528060005260406000206000915054906101000a900460ff1681565b600f818154811015156115b757fe5b906000526020600020016000915090505481565b600660003373ffffffffffffffffffffffffffffffffffffffff1673ffffffffffffffffffffffffffffffffffffffff16815260200190815260200160002060009054906101000a900460ff1615151561168d576040517f08c379a00000000000000000000000000000000000000000000000000000000081526004018080602001828103825260208152602001807f506c616e746174696f6e20697320616c7265616479207265676973746572656481525060200191505060405180910390fd5b7f1cb1da47af71799f10f2ac89920e67ec04faa33416f9e5a5b6fad22cf5036f4633604051808273ffffffffffffffffffffffffffffffffffffffff1673ffffffffffffffffffffffffffffffffffffffff16815260200191505060405180910390a16001600860003373ffffffffffffffffffffffffffffffffffffffff1673ffffffffffffffffffffffffffffffffffffffff16815260200190815260200160002060006101000a81548160ff021916908315150217905550565b60076020528060005260406000206000915054906101000a900460ff1681565b60086020528060005260406000206000915054906101000a900460ff1681565b600c60009054906101000a900473ffffffffffffffffffffffffffffffffffffffff1681565b600e6020528060005260406000206000915054906101000a900460ff1681565b60046020528060005260406000206000915054906101000a900460ff1681565b600b818154811015156117ff57fe5b90600052602060002090600502016000915090508060000154908060020160009054906101000a900473ffffffffffffffffffffffffffffffffffffffff16908060030160009054906101000a900473ffffffffffffffffffffffffffffffffffffffff16908060040160009054906101000a900473ffffffffffffffffffffffffffffffffffffffff16908060040160149054906101000a900460ff16908060040160159054906101000a900460ff16905086565b600a818154811015156118c457fe5b90600052602060002090600602016000915090508060000154908060010160009054906101000a900473ffffffffffffffffffffffffffffffffffffffff16908060020160009054906101000a900473ffffffffffffffffffffffffffffffffffffffff16908060030160009054906101000a900473ffffffffffffffffffffffffffffffffffffffff16908060040154908060050160009054906101000a900460ff16908060050160019054906101000a900460ff16905087565b600061198a61270e565b6000600660003373ffffffffffffffffffffffffffffffffffffffff1673ffffffffffffffffffffffffffffffffffffffff16815260200190815260200160002060009054906101000a900460ff161515611a73576040517f08c379a00000000000000000000000000000000000000000000000000000000081526004018080602001828103825260258152602001807f4163636573732044656e6965642c206e6f207065726d697373696f6e2064657481526020017f656374656400000000000000000000000000000000000000000000000000000081525060400191505060405180910390fd5b6001600760003373ffffffffffffffffffffffffffffffffffffffff1673ffffffffffffffffffffffffffffffffffffffff16815260200190815260200160002060006101000a81548160ff0219169083151502179055925060e0604051908101604052808681526020013373ffffffffffffffffffffffffffffffffffffffff1681526020013373ffffffffffffffffffffffffffffffffffffffff1681526020016000800160009054906101000a900473ffffffffffffffffffffffffffffffffffffffff1673ffffffffffffffffffffffffffffffffffffffff1681526020018581526020018415158152602001600015158152509150600a82908060018154018082558091505090600182039060005260206000209060060201600090919290919091506000820151816000015560208201518160010160006101000a81548173ffffffffffffffffffffffffffffffffffffffff021916908373ffffffffffffffffffffffffffffffffffffffff16021790555060408201518160020160006101000a81548173ffffffffffffffffffffffffffffffffffffffff021916908373ffffffffffffffffffffffffffffffffffffffff16021790555060608201518160030160006101000a81548173ffffffffffffffffffffffffffffffffffffffff021916908373ffffffffffffffffffffffffffffffffffffffff1602179055506080820151816004015560a08201518160050160006101000a81548160ff02191690831515021790555060c08201518160050160016101000a81548160ff0219169083151502179055505050503390508073ffffffffffffffffffffffffffffffffffffffff16634e6367c66000800160009054906101000a900473ffffffffffffffffffffffffffffffffffffffff166001600a80549050036040518363ffffffff167c0100000000000000000000000000000000000000000000000000000000028152600401808373ffffffffffffffffffffffffffffffffffffffff1673ffffffffffffffffffffffffffffffffffffffff16815260200182815260200192505050600060405180830381600087803b158015611d9957600080fd5b505af1158015611dad573d6000803e3d6000fd5b505050505050505050565b6000806000611dc5612792565b60008060008751111515611e41576040517f08c379a00000000000000000000000000000000000000000000000000000000081526004018080602001828103825260178152602001807f596f75206d75737420696e636c75646520746f6b656e7300000000000000000081525060200191505060405180910390fd5b6000800160009054906101000a900473ffffffffffffffffffffffffffffffffffffffff1673ffffffffffffffffffffffffffffffffffffffff163373ffffffffffffffffffffffffffffffffffffffff16141515611f2e576040517f08c379a00000000000000000000000000000000000000000000000000000000081526004018080602001828103825260348152602001807f4f6e6c7920616374697665206d696c6c206f776e657220697320616c6c6f776581526020017f6420746f2063726561746520434f546f6b656e7300000000000000000000000081525060400191505060405180910390fd5b6001955060009450600093505b8651841015612220573373ffffffffffffffffffffffffffffffffffffffff16600a8886815181101515611f6b57fe5b90602001906020020151815481101515611f8157fe5b906000526020600020906006020160030160009054906101000a900473ffffffffffffffffffffffffffffffffffffffff1673ffffffffffffffffffffffffffffffffffffffff16141515612064576040517f08c379a00000000000000000000000000000000000000000000000000000000081526004018080602001828103825260318152602001807f54686973206973206e6f742074686520696e74656e6465642064657374696e6181526020017f74696f6e206f662074686520746f6b656e00000000000000000000000000000081525060400191505060405180910390fd5b600a878581518110151561207457fe5b9060200190602002015181548110151561208a57fe5b906000526020600020906006020160050160019054906101000a900460ff16151515612144576040517f08c379a00000000000000000000000000000000000000000000000000000000081526004018080602001828103825260258152602001807f5468697320746f6b656e2068617320616c7265616479206265656e2070726f6381526020017f657373656400000000000000000000000000000000000000000000000000000081525060400191505060405180910390fd5b600f878581518110151561215457fe5b906020019060200201519080600181540180825580915050906001820390600052602060002001600090919290919091505550600a878581518110151561219757fe5b906020019060200201518154811015156121ad57fe5b90600052602060002090600602016000015485019450600a87858151811015156121d357fe5b906020019060200201518154811015156121e957fe5b906000526020600020906006020160050160009054906101000a900460ff16151561221357600095505b8380600101945050611f3b565b6000600f8054905011156126465760e060405190810160405280868152602001600f80548060200260200160405190810160405280929190818152602001828054801561228c57602002820191906000526020600020905b815481526020019060010190808311612278575b505050505081526020016000800160009054906101000a900473ffffffffffffffffffffffffffffffffffffffff1673ffffffffffffffffffffffffffffffffffffffff1681526020013373ffffffffffffffffffffffffffffffffffffffff168152602001600073ffffffffffffffffffffffffffffffffffffffff1681526020018715158152602001600015158152509250600b8390806001815401808255809150509060018203906000526020600020906005020160009091929091909150600082015181600001556020820151816001019080519060200190612374929190612816565b5060408201518160020160006101000a81548173ffffffffffffffffffffffffffffffffffffffff021916908373ffffffffffffffffffffffffffffffffffffffff16021790555060608201518160030160006101000a81548173ffffffffffffffffffffffffffffffffffffffff021916908373ffffffffffffffffffffffffffffffffffffffff16021790555060808201518160040160006101000a81548173ffffffffffffffffffffffffffffffffffffffff021916908373ffffffffffffffffffffffffffffffffffffffff16021790555060a08201518160040160146101000a81548160ff02191690831515021790555060c08201518160040160156101000a81548160ff0219169083151502179055505050507f30ed1de7eab8b98406ab30ed28da3ce37a6b65508470b47af420d9e49ec7546e836060015184608001516001600b8054905003604051808473ffffffffffffffffffffffffffffffffffffffff1673ffffffffffffffffffffffffffffffffffffffff1681526020018373ffffffffffffffffffffffffffffffffffffffff1673ffffffffffffffffffffffffffffffffffffffff168152602001828152602001935050505060405180910390a1600091505b600f8054905082101561263757600a600f8381548110151561255f57fe5b906000526020600020015481548110151561257657fe5b9060005260206000209060060201905060018160050160016101000a81548160ff02191690831515021790555060008160030160006101000a81548173ffffffffffffffffffffffffffffffffffffffff021916908373ffffffffffffffffffffffffffffffffffffffff160217905550338160020160006101000a81548173ffffffffffffffffffffffffffffffffffffffff021916908373ffffffffffffffffffffffffffffffffffffffff1602179055508180600101925050612541565b600f60006126459190612863565b5b50505050505050565b608060405190810160405280600073ffffffffffffffffffffffffffffffffffffffff1681526020016060815260200160608152602001606081525090565b828054600181600116156101000203166002900490600052602060002090601f016020900481019282601f106126cf57805160ff19168380011785556126fd565b828001600101855582156126fd579182015b828111156126fc5782518255916020019190600101906126e1565b5b50905061270a9190612884565b5090565b60e06040519081016040528060008152602001600073ffffffffffffffffffffffffffffffffffffffff168152602001600073ffffffffffffffffffffffffffffffffffffffff168152602001600073ffffffffffffffffffffffffffffffffffffffff168152602001600081526020016000151581526020016000151581525090565b60e0604051908101604052806000815260200160608152602001600073ffffffffffffffffffffffffffffffffffffffff168152602001600073ffffffffffffffffffffffffffffffffffffffff168152602001600073ffffffffffffffffffffffffffffffffffffffff1681526020016000151581526020016000151581525090565b828054828255906000526020600020908101928215612852579160200282015b82811115612851578251825591602001919060010190612836565b5b50905061285f9190612884565b5090565b50805460008255906000526020600020908101906128819190612884565b50565b6128a691905b808211156128a257600081600090555060010161288a565b5090565b905600a165627a7a723058205472e1b34c0aa0dfc2cffc7f1f52ee5ea8616927bb006ac4f622ed0a1d82a86c002960806040526000600160146101000a81548160ff0219169083151502179055506000600160156101000a81548160ff0219169083151502179055506040805190810160405280600a81526020017f556e736574204e616d650000000000000000000000000000000000000000000081525060069080519060200190610085929190610194565b5034801561009257600080fd5b506040516060806200135e83398101806040528101908080519060200190929190805190602001909291908051906020019092919050505081600160006101000a81548173ffffffffffffffffffffffffffffffffffffffff021916908373ffffffffffffffffffffffffffffffffffffffff16021790555080600560006101000a81548173ffffffffffffffffffffffffffffffffffffffff021916908373ffffffffffffffffffffffffffffffffffffffff160217905550826000806101000a81548173ffffffffffffffffffffffffffffffffffffffff021916908373ffffffffffffffffffffffffffffffffffffffff160217905550505050610239565b828054600181600116156101000203166002900490600052602060002090601f016020900481019282601f106101d557805160ff1916838001178555610203565b82800160010185558215610203579182015b828111156102025782518255916020019190600101906101e7565b5b5090506102109190610214565b5090565b61023691905b8082111561023257600081600090555060010161021a565b5090565b90565b61111580620002496000396000f3006080604052600436106100d0576000357c0100000000000000000000000000000000000000000000000000000000900463ffffffff16806308536ed5146100d5578063093ecf701461013e57806323a9b7501461016d5780634146a110146101d657806348bcfa3e1461022d57806348cc641e146102965780634e6367c61461033c5780638052474d1461038957806387395ddc146104195780639aea423c14610468578063a30bf02c1461047f578063ccabd019146104d6578063d77d976714610505578063ef72bd1f14610588575b600080fd5b3480156100e157600080fd5b5061013c600480360381019080803590602001908201803590602001908080601f01602080910402602001604051908101604052809392919081815260200183838082843782019150505050505091929192905050506105bf565b005b34801561014a57600080fd5b506101536106c4565b604051808215151515815260200191505060405180910390f35b34801561017957600080fd5b506101d4600480360381019080803590602001908201803590602001908080601f01602080910402602001604051908101604052809392919081815260200183838082843782019150505050505091929192905050506106d7565b005b3480156101e257600080fd5b506101eb6107dc565b604051808273ffffffffffffffffffffffffffffffffffffffff1673ffffffffffffffffffffffffffffffffffffffff16815260200191505060405180910390f35b34801561023957600080fd5b50610294600480360381019080803590602001908201803590602001908080601f0160208091040260200160405190810160405280939291908181526020018383808284378201915050505050509192919290505050610802565b005b3480156102a257600080fd5b506102ab610907565b60405180806020018415151515815260200183151515158152602001828103825285818151815260200191508051906020019080838360005b838110156102ff5780820151818401526020810190506102e4565b50505050905090810190601f16801561032c5780820380516001836020036101000a031916815260200191505b5094505050505060405180910390f35b34801561034857600080fd5b50610387600480360381019080803573ffffffffffffffffffffffffffffffffffffffff169060200190929190803590602001909291905050506109d5565b005b34801561039557600080fd5b5061039e610a78565b6040518080602001828103825283818151815260200191508051906020019080838360005b838110156103de5780820151818401526020810190506103c3565b50505050905090810190601f16801561040b5780820380516001836020036101000a031916815260200191505b509250505060405180910390f35b34801561042557600080fd5b50610466600480360381019080803515159060200190929190803573ffffffffffffffffffffffffffffffffffffffff169060200190929190505050610b16565b005b34801561047457600080fd5b5061047d610c45565b005b34801561048b57600080fd5b50610494610e7a565b604051808273ffffffffffffffffffffffffffffffffffffffff1673ffffffffffffffffffffffffffffffffffffffff16815260200191505060405180910390f35b3480156104e257600080fd5b506104eb610ea0565b604051808215151515815260200191505060405180910390f35b34801561051157600080fd5b50610546600480360381019080803573ffffffffffffffffffffffffffffffffffffffff169060200190929190505050610eb3565b604051808273ffffffffffffffffffffffffffffffffffffffff1673ffffffffffffffffffffffffffffffffffffffff16815260200191505060405180910390f35b34801561059457600080fd5b506105bd6004803603810190808035906020019092919080359060200190929190505050610ee6565b005b600560009054906101000a900473ffffffffffffffffffffffffffffffffffffffff1673ffffffffffffffffffffffffffffffffffffffff163373ffffffffffffffffffffffffffffffffffffffff161415156106aa576040517f08c379a00000000000000000000000000000000000000000000000000000000081526004018080602001828103825260388152602001807f4f6e6c792061646d696e6973747261746f72206d6179206368616e676520746881526020017f652076616c7565206f6620746869732070726f7065727479000000000000000081525060400191505060405180910390fd5b80600690805190602001906106c0929190611044565b5050565b600160159054906101000a900460ff1681565b600560009054906101000a900473ffffffffffffffffffffffffffffffffffffffff1673ffffffffffffffffffffffffffffffffffffffff163373ffffffffffffffffffffffffffffffffffffffff161415156107c2576040517f08c379a00000000000000000000000000000000000000000000000000000000081526004018080602001828103825260388152602001807f4f6e6c792061646d696e6973747261746f72206d6179206368616e676520746881526020017f652076616c7565206f6620746869732070726f7065727479000000000000000081525060400191505060405180910390fd5b80600490805190602001906107d8929190611044565b5050565b600560009054906101000a900473ffffffffffffffffffffffffffffffffffffffff1681565b600560009054906101000a900473ffffffffffffffffffffffffffffffffffffffff1673ffffffffffffffffffffffffffffffffffffffff163373ffffffffffffffffffffffffffffffffffffffff161415156108ed576040517f08c379a00000000000000000000000000000000000000000000000000000000081526004018080602001828103825260388152602001807f4f6e6c792061646d696e6973747261746f72206d6179206368616e676520746881526020017f652076616c7565206f6620746869732070726f7065727479000000000000000081525060400191505060405180910390fd5b8060039080519060200190610903929190611044565b5050565b60606000806006600160149054906101000a900460ff16600160159054906101000a900460ff16828054600181600116156101000203166002900480601f0160208091040260200160405190810160405280929190818152602001828054600181600116156101000203166002900480156109c35780601f10610998576101008083540402835291602001916109c3565b820191906000526020600020905b8154815290600101906020018083116109a657829003601f168201915b50505050509250925092509250909192565b7f5cdbeeb76e60260c527738fff6709ccbc0a6db2e67575fa29b5a972eeb68cf84308383604051808473ffffffffffffffffffffffffffffffffffffffff1673ffffffffffffffffffffffffffffffffffffffff1681526020018373ffffffffffffffffffffffffffffffffffffffff1673ffffffffffffffffffffffffffffffffffffffff168152602001828152602001935050505060405180910390a15050565b60068054600181600116156101000203166002900480601f016020809104026020016040519081016040528092919081815260200182805460018160011615610100020316600290048015610b0e5780601f10610ae357610100808354040283529160200191610b0e565b820191906000526020600020905b815481529060010190602001808311610af157829003601f168201915b505050505081565b600560009054906101000a900473ffffffffffffffffffffffffffffffffffffffff1673ffffffffffffffffffffffffffffffffffffffff168173ffffffffffffffffffffffffffffffffffffffff16141515610c27576040517f08c379a00000000000000000000000000000000000000000000000000000000081526004018080602001828103825260438152602001807f6f6e6c79207468652061737369676e656420636f6e736f727469756d2061646d81526020017f696e6973747261746f722063616e20617070726f7665206120706c616e74617481526020017f696f6e000000000000000000000000000000000000000000000000000000000081525060600191505060405180910390fd5b81600160146101000a81548160ff0219169083151502179055505050565b600160149054906101000a900460ff16151515610cf0576040517f08c379a00000000000000000000000000000000000000000000000000000000081526004018080602001828103825260298152602001807f5468697320706c616e746174696f6e2068617320616c7265616479206265656e81526020017f20617070726f766564000000000000000000000000000000000000000000000081525060400191505060405180910390fd5b600160009054906101000a900473ffffffffffffffffffffffffffffffffffffffff1673ffffffffffffffffffffffffffffffffffffffff163373ffffffffffffffffffffffffffffffffffffffff16141515610ddb576040517f08c379a00000000000000000000000000000000000000000000000000000000081526004018080602001828103825260328152602001807f4f6e6c79206f776e6572206d6179207365656b207065726d697373696f6e207481526020017f6f20656e74657220636f6e736f727469756d000000000000000000000000000081525060400191505060405180910390fd5b6000809054906101000a900473ffffffffffffffffffffffffffffffffffffffff1673ffffffffffffffffffffffffffffffffffffffff16639aea423c6040518163ffffffff167c0100000000000000000000000000000000000000000000000000000000028152600401600060405180830381600087803b158015610e6057600080fd5b505af1158015610e74573d6000803e3d6000fd5b50505050565b600160009054906101000a900473ffffffffffffffffffffffffffffffffffffffff1681565b600160149054906101000a900460ff1681565b60076020528060005260406000206000915054906101000a900473ffffffffffffffffffffffffffffffffffffffff1681565b600160149054906101000a900460ff161515610f90576040517f08c379a00000000000000000000000000000000000000000000000000000000081526004018080602001828103825260258152602001807f4163636573732044656e6965642c206e6f207065726d697373696f6e2064657481526020017f656374656400000000000000000000000000000000000000000000000000000081525060400191505060405180910390fd5b6000809054906101000a900473ffffffffffffffffffffffffffffffffffffffff1673ffffffffffffffffffffffffffffffffffffffff1663ef72bd1f83836040518363ffffffff167c01000000000000000000000000000000000000000000000000000000000281526004018083815260200182815260200192505050600060405180830381600087803b15801561102857600080fd5b505af115801561103c573d6000803e3d6000fd5b505050505050565b828054600181600116156101000203166002900490600052602060002090601f016020900481019282601f1061108557805160ff19168380011785556110b3565b828001600101855582156110b3579182015b828111156110b2578251825591602001919060010190611097565b5b5090506110c091906110c4565b5090565b6110e691905b808211156110e25760008160009055506001016110ca565b5090565b905600a165627a7a7230582064ea1b48ee40c33400e6d0684959088581e0868fb23d62f4da1a01f0bbb61a960029a165627a7a7230582088b76425ac988ff59c076eddc4e9a9e41e402bf42ea114a9f0f8dcee35ee5e5a0029",
  "source": "pragma solidity ^0.4.0;\r\n\r\nimport './Consortium.sol';\r\nimport './Plantation.sol';\r\n\r\ncontract ConsortiumDeployer {\r\n    address[] public deployedConsortiums;\r\n    address[] public deployedPlantations;\r\n    mapping (address => bool) public rspoAdministrators;\r\n    address[] plantationsToReturn;\r\n   \r\n// plantationAddress => consortiumaddress\r\n    mapping (address => address) public plantationRelations;\r\n\r\n    constructor() public {\r\n        rspoAdministrators[msg.sender] = true;\r\n    }\r\n\r\n    function createConsortium() public {\r\n        require(rspoAdministrators[msg.sender], \"Only certified RSPO administrators may instantiate new consortiums\");\r\n        address newConsortium = new Consortium(msg.sender);\r\n        deployedConsortiums.push(newConsortium);\r\n    }\r\n    \r\n       function createPlantation(address _assignedConsortium, address administrator) public {\r\n        address newPlantation = new Plantation(_assignedConsortium, msg.sender, administrator);\r\n        plantationRelations[newPlantation] = _assignedConsortium;\r\n        deployedPlantations.push(newPlantation);\r\n    }\r\n\r\n\r\n    function getDeployedConsortiums() public view returns (address[]) {\r\n        return deployedConsortiums;\r\n    }\r\n\r\n     function getDeployedPlantations() public view returns (address[]) {\r\n        return deployedPlantations;\r\n    }\r\n\r\n    \r\n     function getDeployedPlantationsByConsortium(address consortiumFilterInstance) public returns (address[]) {\r\n         \r\n            delete plantationsToReturn;\r\n         //MAY NEED TO USE THIS FOR FILTER OPTION, INSTEAD DONE CLIENTSIDE\r\n      \r\n\r\n          for (uint i=0; i<deployedPlantations.length; i++) {\r\n\r\n              if(plantationRelations[deployedPlantations[i]] == consortiumFilterInstance){\r\n                  plantationsToReturn.push(deployedPlantations[i]);\r\n              }\r\n          }\r\n\r\n        return plantationsToReturn;\r\n    }\r\n}",
  "sourcePath": "C:\\Users\\MAG\\source\\repos\\Bachelor\\PalmChain\\Ethereum\\contracts\\ConsortiumDeployer.sol",
  "compiler": {
    "name": "solc",
    "version": "0.4.24+commit.e67f0147.Emscripten.clang"
  },
  "schemaVersion": "2.0.1",
  "updatedAt": "2018-11-17T14:52:07.633Z"
}