{
  "contractName": "Consortium",
  "abi": [
    {
      "constant": true,
      "inputs": [],
      "name": "activeMill",
      "outputs": [
        {
          "name": "associatedAddress",
          "type": "address"
        },
        {
          "name": "GPSLongitude",
          "type": "string"
        },
        {
          "name": "GPSLatitude",
          "type": "string"
        },
        {
          "name": "name",
          "type": "string"
        }
      ],
      "payable": false,
      "stateMutability": "view",
      "type": "function"
    },
    {
      "constant": true,
      "inputs": [
        {
          "name": "",
          "type": "bytes32"
        }
      ],
      "name": "COExists",
      "outputs": [
        {
          "name": "",
          "type": "bool"
        }
      ],
      "payable": false,
      "stateMutability": "view",
      "type": "function"
    },
    {
      "constant": true,
      "inputs": [
        {
          "name": "",
          "type": "address"
        }
      ],
      "name": "registeredPlantations",
      "outputs": [
        {
          "name": "",
          "type": "bool"
        }
      ],
      "payable": false,
      "stateMutability": "view",
      "type": "function"
    },
    {
      "constant": true,
      "inputs": [
        {
          "name": "",
          "type": "uint256"
        }
      ],
      "name": "tokensToInclude",
      "outputs": [
        {
          "name": "",
          "type": "uint256"
        }
      ],
      "payable": false,
      "stateMutability": "view",
      "type": "function"
    },
    {
      "constant": true,
      "inputs": [
        {
          "name": "",
          "type": "address"
        }
      ],
      "name": "certifiedPlantations",
      "outputs": [
        {
          "name": "",
          "type": "bool"
        }
      ],
      "payable": false,
      "stateMutability": "view",
      "type": "function"
    },
    {
      "constant": true,
      "inputs": [
        {
          "name": "",
          "type": "address"
        }
      ],
      "name": "pendingPlantationRequests",
      "outputs": [
        {
          "name": "associatedAddress",
          "type": "address"
        },
        {
          "name": "name",
          "type": "string"
        },
        {
          "name": "capacity",
          "type": "uint256"
        },
        {
          "name": "GPSLongitude",
          "type": "string"
        },
        {
          "name": "GPSLatitude",
          "type": "string"
        }
      ],
      "payable": false,
      "stateMutability": "view",
      "type": "function"
    },
    {
      "constant": true,
      "inputs": [],
      "name": "RSPOAdministrator",
      "outputs": [
        {
          "name": "",
          "type": "address"
        }
      ],
      "payable": false,
      "stateMutability": "view",
      "type": "function"
    },
    {
      "constant": true,
      "inputs": [
        {
          "name": "",
          "type": "bytes32"
        }
      ],
      "name": "FFBExists",
      "outputs": [
        {
          "name": "",
          "type": "bool"
        }
      ],
      "payable": false,
      "stateMutability": "view",
      "type": "function"
    },
    {
      "constant": true,
      "inputs": [
        {
          "name": "",
          "type": "address"
        }
      ],
      "name": "plantationPermit",
      "outputs": [
        {
          "name": "",
          "type": "address"
        }
      ],
      "payable": false,
      "stateMutability": "view",
      "type": "function"
    },
    {
      "constant": true,
      "inputs": [
        {
          "name": "",
          "type": "address"
        }
      ],
      "name": "plantations",
      "outputs": [
        {
          "name": "associatedAddress",
          "type": "address"
        },
        {
          "name": "name",
          "type": "string"
        },
        {
          "name": "capacity",
          "type": "uint256"
        },
        {
          "name": "GPSLongitude",
          "type": "string"
        },
        {
          "name": "GPSLatitude",
          "type": "string"
        }
      ],
      "payable": false,
      "stateMutability": "view",
      "type": "function"
    },
    {
      "constant": true,
      "inputs": [
        {
          "name": "",
          "type": "uint256"
        }
      ],
      "name": "COTokens",
      "outputs": [
        {
          "name": "weight",
          "type": "uint256"
        },
        {
          "name": "millOrigin",
          "type": "address"
        },
        {
          "name": "owner",
          "type": "address"
        },
        {
          "name": "newOwner",
          "type": "address"
        },
        {
          "name": "RSPOCertified",
          "type": "bool"
        },
        {
          "name": "processed",
          "type": "bool"
        }
      ],
      "payable": false,
      "stateMutability": "view",
      "type": "function"
    },
    {
      "constant": true,
      "inputs": [
        {
          "name": "",
          "type": "uint256"
        }
      ],
      "name": "FFBTokens",
      "outputs": [
        {
          "name": "weight",
          "type": "uint256"
        },
        {
          "name": "plantationOrigin",
          "type": "address"
        },
        {
          "name": "owner",
          "type": "address"
        },
        {
          "name": "newOwner",
          "type": "address"
        },
        {
          "name": "harvestTimeStamp",
          "type": "uint256"
        },
        {
          "name": "RSPOCertified",
          "type": "bool"
        },
        {
          "name": "processed",
          "type": "bool"
        }
      ],
      "payable": false,
      "stateMutability": "view",
      "type": "function"
    },
    {
      "inputs": [
        {
          "name": "RSPOAdmin",
          "type": "address"
        }
      ],
      "payable": false,
      "stateMutability": "nonpayable",
      "type": "constructor"
    },
    {
      "anonymous": false,
      "inputs": [
        {
          "indexed": false,
          "name": "owner",
          "type": "address"
        },
        {
          "indexed": false,
          "name": "newOwner",
          "type": "address"
        },
        {
          "indexed": false,
          "name": "index",
          "type": "uint256"
        }
      ],
      "name": "FFBTokenSubmitted",
      "type": "event"
    },
    {
      "anonymous": false,
      "inputs": [
        {
          "indexed": false,
          "name": "owner",
          "type": "address"
        },
        {
          "indexed": false,
          "name": "newOwner",
          "type": "address"
        },
        {
          "indexed": false,
          "name": "index",
          "type": "uint256"
        }
      ],
      "name": "COTokenSubmitted",
      "type": "event"
    },
    {
      "anonymous": false,
      "inputs": [
        {
          "indexed": false,
          "name": "plantationAddressOrigin",
          "type": "address"
        }
      ],
      "name": "PlantationSubmissionRequested",
      "type": "event"
    },
    {
      "anonymous": false,
      "inputs": [
        {
          "indexed": false,
          "name": "plantationAddressOrigin",
          "type": "address"
        }
      ],
      "name": "PlantationSubmissionApproved",
      "type": "event"
    },
    {
      "constant": false,
      "inputs": [
        {
          "name": "name",
          "type": "string"
        },
        {
          "name": "capacity",
          "type": "uint256"
        },
        {
          "name": "GPSLongitude",
          "type": "string"
        },
        {
          "name": "GPSLatitude",
          "type": "string"
        }
      ],
      "name": "requestPlantationSubscription",
      "outputs": [],
      "payable": false,
      "stateMutability": "nonpayable",
      "type": "function"
    },
    {
      "constant": false,
      "inputs": [
        {
          "name": "requestOrigin",
          "type": "address"
        }
      ],
      "name": "approvePlantationRequest",
      "outputs": [],
      "payable": false,
      "stateMutability": "nonpayable",
      "type": "function"
    },
    {
      "constant": false,
      "inputs": [
        {
          "name": "GPSLongitude",
          "type": "string"
        },
        {
          "name": "GPSLatitude",
          "type": "string"
        },
        {
          "name": "name",
          "type": "string"
        },
        {
          "name": "origin",
          "type": "address"
        }
      ],
      "name": "setMill",
      "outputs": [],
      "payable": false,
      "stateMutability": "nonpayable",
      "type": "function"
    },
    {
      "constant": false,
      "inputs": [
        {
          "name": "weight",
          "type": "uint256"
        },
        {
          "name": "harvestTimeStamp",
          "type": "uint256"
        }
      ],
      "name": "submitFFBToken",
      "outputs": [],
      "payable": false,
      "stateMutability": "nonpayable",
      "type": "function"
    },
    {
      "constant": false,
      "inputs": [
        {
          "name": "tokenIndexes",
          "type": "uint256[]"
        }
      ],
      "name": "consumeFFBTokens",
      "outputs": [],
      "payable": false,
      "stateMutability": "nonpayable",
      "type": "function"
    },
    {
      "constant": false,
      "inputs": [
        {
          "name": "plantation",
          "type": "address"
        }
      ],
      "name": "revokePlantationAccess",
      "outputs": [],
      "payable": false,
      "stateMutability": "nonpayable",
      "type": "function"
    },
    {
      "constant": true,
      "inputs": [
        {
          "name": "plantation",
          "type": "address"
        }
      ],
      "name": "getPlantationAtAddress",
      "outputs": [
        {
          "name": "",
          "type": "string"
        }
      ],
      "payable": false,
      "stateMutability": "view",
      "type": "function"
    }
  ],
  "bytecode": "0x608060405234801561001057600080fd5b506040516020806132d08339810180604052810190808051906020019092919050505080600b60006101000a81548173ffffffffffffffffffffffffffffffffffffffff021916908373ffffffffffffffffffffffffffffffffffffffff1602179055505061324c806100846000396000f300608060405260043610610107576000357c0100000000000000000000000000000000000000000000000000000000900463ffffffff16806307ddf8d31461010c5780630b4ac9a7146102a75780633e7177e3146102ea57806358c5e7431461032d5780635bbedc221461042c57806366687adf14610475578063747703c81461058a5780638628d9ee146106465780638e2e2274146106a1578063aa841b41146106e2578063ae33c5641461073d578063b1737de01461090b578063c03de0f914610962578063d77d9767146109ab578063df784abd14610a2e578063e4f713be14610bfc578063ed98c66714610cec578063ef72bd1f14610de3578063fa84d76314610e1a575b600080fd5b34801561011857600080fd5b50610121610e80565b604051808573ffffffffffffffffffffffffffffffffffffffff1673ffffffffffffffffffffffffffffffffffffffff168152602001806020018060200180602001848103845287818151815260200191508051906020019080838360005b8381101561019b578082015181840152602081019050610180565b50505050905090810190601f1680156101c85780820380516001836020036101000a031916815260200191505b50848103835286818151815260200191508051906020019080838360005b838110156102015780820151818401526020810190506101e6565b50505050905090810190601f16801561022e5780820380516001836020036101000a031916815260200191505b50848103825285818151815260200191508051906020019080838360005b8381101561026757808201518184015260208101905061024c565b50505050905090810190601f1680156102945780820380516001836020036101000a031916815260200191505b5097505050505050505060405180910390f35b3480156102b357600080fd5b506102e8600480360381019080803573ffffffffffffffffffffffffffffffffffffffff169060200190929190505050611086565b005b3480156102f657600080fd5b5061032b600480360381019080803573ffffffffffffffffffffffffffffffffffffffff16906020019092919050505061119d565b005b34801561033957600080fd5b5061042a600480360381019080803590602001908201803590602001908080601f016020809104026020016040519081016040528093929190818152602001838380828437820191505050505050919291929080359060200190929190803590602001908201803590602001908080601f0160208091040260200160405190810160405280939291908181526020018383808284378201915050505050509192919290803590602001908201803590602001908080601f0160208091040260200160405190810160405280939291908181526020018383808284378201915050505050509192919290505050611583565b005b34801561043857600080fd5b5061045b60048036038101908080356000191690602001909291905050506117e2565b604051808215151515815260200191505060405180910390f35b34801561048157600080fd5b50610588600480360381019080803590602001908201803590602001908080601f0160208091040260200160405190810160405280939291908181526020018383808284378201915050505050509192919290803590602001908201803590602001908080601f0160208091040260200160405190810160405280939291908181526020018383808284378201915050505050509192919290803590602001908201803590602001908080601f0160208091040260200160405190810160405280939291908181526020018383808284378201915050505050509192919290803573ffffffffffffffffffffffffffffffffffffffff169060200190929190505050611802565b005b34801561059657600080fd5b506105cb600480360381019080803573ffffffffffffffffffffffffffffffffffffffff1690602001909291905050506119b3565b6040518080602001828103825283818151815260200191508051906020019080838360005b8381101561060b5780820151818401526020810190506105f0565b50505050905090810190601f1680156106385780820380516001836020036101000a031916815260200191505b509250505060405180910390f35b34801561065257600080fd5b50610687600480360381019080803573ffffffffffffffffffffffffffffffffffffffff169060200190929190505050611b5c565b604051808215151515815260200191505060405180910390f35b3480156106ad57600080fd5b506106cc60048036038101908080359060200190929190505050611b7c565b6040518082815260200191505060405180910390f35b3480156106ee57600080fd5b50610723600480360381019080803573ffffffffffffffffffffffffffffffffffffffff169060200190929190505050611b9f565b604051808215151515815260200191505060405180910390f35b34801561074957600080fd5b5061077e600480360381019080803573ffffffffffffffffffffffffffffffffffffffff169060200190929190505050611bbf565b604051808673ffffffffffffffffffffffffffffffffffffffff1673ffffffffffffffffffffffffffffffffffffffff168152602001806020018581526020018060200180602001848103845288818151815260200191508051906020019080838360005b838110156107fe5780820151818401526020810190506107e3565b50505050905090810190601f16801561082b5780820380516001836020036101000a031916815260200191505b50848103835286818151815260200191508051906020019080838360005b83811015610864578082015181840152602081019050610849565b50505050905090810190601f1680156108915780820380516001836020036101000a031916815260200191505b50848103825285818151815260200191508051906020019080838360005b838110156108ca5780820151818401526020810190506108af565b50505050905090810190601f1680156108f75780820380516001836020036101000a031916815260200191505b509850505050505050505060405180910390f35b34801561091757600080fd5b50610920611ddd565b604051808273ffffffffffffffffffffffffffffffffffffffff1673ffffffffffffffffffffffffffffffffffffffff16815260200191505060405180910390f35b34801561096e57600080fd5b506109916004803603810190808035600019169060200190929190505050611e03565b604051808215151515815260200191505060405180910390f35b3480156109b757600080fd5b506109ec600480360381019080803573ffffffffffffffffffffffffffffffffffffffff169060200190929190505050611e23565b604051808273ffffffffffffffffffffffffffffffffffffffff1673ffffffffffffffffffffffffffffffffffffffff16815260200191505060405180910390f35b348015610a3a57600080fd5b50610a6f600480360381019080803573ffffffffffffffffffffffffffffffffffffffff169060200190929190505050611e56565b604051808673ffffffffffffffffffffffffffffffffffffffff1673ffffffffffffffffffffffffffffffffffffffff168152602001806020018581526020018060200180602001848103845288818151815260200191508051906020019080838360005b83811015610aef578082015181840152602081019050610ad4565b50505050905090810190601f168015610b1c5780820380516001836020036101000a031916815260200191505b50848103835286818151815260200191508051906020019080838360005b83811015610b55578082015181840152602081019050610b3a565b50505050905090810190601f168015610b825780820380516001836020036101000a031916815260200191505b50848103825285818151815260200191508051906020019080838360005b83811015610bbb578082015181840152602081019050610ba0565b50505050905090810190601f168015610be85780820380516001836020036101000a031916815260200191505b509850505050505050505060405180910390f35b348015610c0857600080fd5b50610c2760048036038101908080359060200190929190505050612074565b604051808781526020018673ffffffffffffffffffffffffffffffffffffffff1673ffffffffffffffffffffffffffffffffffffffff1681526020018573ffffffffffffffffffffffffffffffffffffffff1673ffffffffffffffffffffffffffffffffffffffff1681526020018473ffffffffffffffffffffffffffffffffffffffff1673ffffffffffffffffffffffffffffffffffffffff1681526020018315151515815260200182151515158152602001965050505050505060405180910390f35b348015610cf857600080fd5b50610d1760048036038101908080359060200190929190505050612139565b604051808881526020018773ffffffffffffffffffffffffffffffffffffffff1673ffffffffffffffffffffffffffffffffffffffff1681526020018673ffffffffffffffffffffffffffffffffffffffff1673ffffffffffffffffffffffffffffffffffffffff1681526020018573ffffffffffffffffffffffffffffffffffffffff1673ffffffffffffffffffffffffffffffffffffffff168152602001848152602001831515151581526020018215151515815260200197505050505050505060405180910390f35b348015610def57600080fd5b50610e186004803603810190808035906020019092919080359060200190929190505050612204565b005b348015610e2657600080fd5b50610e7e6004803603810190808035906020019082018035906020019080806020026020016040519081016040528093929190818152602001838360200280828437820191505050505050919291929050505061261a565b005b60008060000160009054906101000a900473ffffffffffffffffffffffffffffffffffffffff1690806001018054600181600116156101000203166002900480601f016020809104026020016040519081016040528092919081815260200182805460018160011615610100020316600290048015610f405780601f10610f1557610100808354040283529160200191610f40565b820191906000526020600020905b815481529060010190602001808311610f2357829003601f168201915b505050505090806002018054600181600116156101000203166002900480601f016020809104026020016040519081016040528092919081815260200182805460018160011615610100020316600290048015610fde5780601f10610fb357610100808354040283529160200191610fde565b820191906000526020600020905b815481529060010190602001808311610fc157829003601f168201915b505050505090806003018054600181600116156101000203166002900480601f01602080910402602001604051908101604052809291908181526020018280546001816001161561010002031660029004801561107c5780601f106110515761010080835404028352916020019161107c565b820191906000526020600020905b81548152906001019060200180831161105f57829003601f168201915b5050505050905084565b600b60009054906101000a900473ffffffffffffffffffffffffffffffffffffffff1673ffffffffffffffffffffffffffffffffffffffff163373ffffffffffffffffffffffffffffffffffffffff1614151561114b576040517f08c379a000000000000000000000000000000000000000000000000000000000815260040180806020018281038252601c8152602001807f5253504f2061757468656e7469636174696f6e2072657175697265640000000081525060200191505060405180910390fd5b600560008273ffffffffffffffffffffffffffffffffffffffff1673ffffffffffffffffffffffffffffffffffffffff16815260200190815260200160002060006101000a81549060ff021916905550565b600b60009054906101000a900473ffffffffffffffffffffffffffffffffffffffff1673ffffffffffffffffffffffffffffffffffffffff163373ffffffffffffffffffffffffffffffffffffffff16141515611262576040517f08c379a000000000000000000000000000000000000000000000000000000000815260040180806020018281038252601c8152602001807f5253504f2061757468656e7469636174696f6e2072657175697265640000000081525060200191505060405180910390fd5b600860008273ffffffffffffffffffffffffffffffffffffffff1673ffffffffffffffffffffffffffffffffffffffff168152602001908152602001600020600460008373ffffffffffffffffffffffffffffffffffffffff1673ffffffffffffffffffffffffffffffffffffffff1681526020019081526020016000206000820160009054906101000a900473ffffffffffffffffffffffffffffffffffffffff168160000160006101000a81548173ffffffffffffffffffffffffffffffffffffffff021916908373ffffffffffffffffffffffffffffffffffffffff1602179055506001820181600101908054600181600116156101000203166002900461136e929190612eb1565b5060028201548160020155600382018160030190805460018160011615610100020316600290046113a0929190612eb1565b50600482018160040190805460018160011615610100020316600290046113c8929190612eb1565b509050506001600660008373ffffffffffffffffffffffffffffffffffffffff1673ffffffffffffffffffffffffffffffffffffffff16815260200190815260200160002060006101000a81548160ff0219169083151502179055506001600560008373ffffffffffffffffffffffffffffffffffffffff1673ffffffffffffffffffffffffffffffffffffffff16815260200190815260200160002060006101000a81548160ff021916908315150217905550600860008273ffffffffffffffffffffffffffffffffffffffff1673ffffffffffffffffffffffffffffffffffffffff168152602001908152602001600020600080820160006101000a81549073ffffffffffffffffffffffffffffffffffffffff02191690556001820160006114f39190612f38565b600282016000905560038201600061150b9190612f38565b60048201600061151b9190612f38565b50507f6cd925231fae3a68dd83317f0efc12f76504daec91ae67222db197d09f83355681604051808273ffffffffffffffffffffffffffffffffffffffff1673ffffffffffffffffffffffffffffffffffffffff16815260200191505060405180910390a150565b61158b612f80565b600560003373ffffffffffffffffffffffffffffffffffffffff1673ffffffffffffffffffffffffffffffffffffffff16815260200190815260200160002060009054906101000a900460ff1615151561164d576040517f08c379a00000000000000000000000000000000000000000000000000000000081526004018080602001828103825260208152602001807f506c616e746174696f6e20697320616c7265616479207265676973746572656481525060200191505060405180910390fd5b60a0604051908101604052803373ffffffffffffffffffffffffffffffffffffffff1681526020018681526020018581526020018481526020018381525090507f1cb1da47af71799f10f2ac89920e67ec04faa33416f9e5a5b6fad22cf5036f4633604051808273ffffffffffffffffffffffffffffffffffffffff1673ffffffffffffffffffffffffffffffffffffffff16815260200191505060405180910390a180600860003373ffffffffffffffffffffffffffffffffffffffff1673ffffffffffffffffffffffffffffffffffffffff16815260200190815260200160002060008201518160000160006101000a81548173ffffffffffffffffffffffffffffffffffffffff021916908373ffffffffffffffffffffffffffffffffffffffff1602179055506020820151816001019080519060200190611793929190612fc6565b506040820151816002015560608201518160030190805190602001906117ba929190612fc6565b5060808201518160040190805190602001906117d7929190612fc6565b509050505050505050565b600c6020528060005260406000206000915054906101000a900460ff1681565b61180a613046565b600b60009054906101000a900473ffffffffffffffffffffffffffffffffffffffff1673ffffffffffffffffffffffffffffffffffffffff163373ffffffffffffffffffffffffffffffffffffffff161415156118cf576040517f08c379a000000000000000000000000000000000000000000000000000000000815260040180806020018281038252601c8152602001807f5253504f2061757468656e7469636174696f6e2072657175697265640000000081525060200191505060405180910390fd5b6080604051908101604052808373ffffffffffffffffffffffffffffffffffffffff168152602001868152602001858152602001848152509050806000808201518160000160006101000a81548173ffffffffffffffffffffffffffffffffffffffff021916908373ffffffffffffffffffffffffffffffffffffffff160217905550602082015181600101908051906020019061196e929190612fc6565b50604082015181600201908051906020019061198b929190612fc6565b5060608201518160030190805190602001906119a8929190612fc6565b509050505050505050565b6060600b60009054906101000a900473ffffffffffffffffffffffffffffffffffffffff1673ffffffffffffffffffffffffffffffffffffffff163373ffffffffffffffffffffffffffffffffffffffff16141515611a7a576040517f08c379a000000000000000000000000000000000000000000000000000000000815260040180806020018281038252601c8152602001807f5253504f2061757468656e7469636174696f6e2072657175697265640000000081525060200191505060405180910390fd5b600460008373ffffffffffffffffffffffffffffffffffffffff1673ffffffffffffffffffffffffffffffffffffffff1681526020019081526020016000206001018054600181600116156101000203166002900480601f016020809104026020016040519081016040528092919081815260200182805460018160011615610100020316600290048015611b505780601f10611b2557610100808354040283529160200191611b50565b820191906000526020600020905b815481529060010190602001808311611b3357829003601f168201915b50505050509050919050565b60056020528060005260406000206000915054906101000a900460ff1681565b600e81815481101515611b8b57fe5b906000526020600020016000915090505481565b60066020528060005260406000206000915054906101000a900460ff1681565b60086020528060005260406000206000915090508060000160009054906101000a900473ffffffffffffffffffffffffffffffffffffffff1690806001018054600181600116156101000203166002900480601f016020809104026020016040519081016040528092919081815260200182805460018160011615610100020316600290048015611c915780601f10611c6657610100808354040283529160200191611c91565b820191906000526020600020905b815481529060010190602001808311611c7457829003601f168201915b505050505090806002015490806003018054600181600116156101000203166002900480601f016020809104026020016040519081016040528092919081815260200182805460018160011615610100020316600290048015611d355780601f10611d0a57610100808354040283529160200191611d35565b820191906000526020600020905b815481529060010190602001808311611d1857829003601f168201915b505050505090806004018054600181600116156101000203166002900480601f016020809104026020016040519081016040528092919081815260200182805460018160011615610100020316600290048015611dd35780601f10611da857610100808354040283529160200191611dd3565b820191906000526020600020905b815481529060010190602001808311611db657829003601f168201915b5050505050905085565b600b60009054906101000a900473ffffffffffffffffffffffffffffffffffffffff1681565b600d6020528060005260406000206000915054906101000a900460ff1681565b60076020528060005260406000206000915054906101000a900473ffffffffffffffffffffffffffffffffffffffff1681565b60046020528060005260406000206000915090508060000160009054906101000a900473ffffffffffffffffffffffffffffffffffffffff1690806001018054600181600116156101000203166002900480601f016020809104026020016040519081016040528092919081815260200182805460018160011615610100020316600290048015611f285780601f10611efd57610100808354040283529160200191611f28565b820191906000526020600020905b815481529060010190602001808311611f0b57829003601f168201915b505050505090806002015490806003018054600181600116156101000203166002900480601f016020809104026020016040519081016040528092919081815260200182805460018160011615610100020316600290048015611fcc5780601f10611fa157610100808354040283529160200191611fcc565b820191906000526020600020905b815481529060010190602001808311611faf57829003601f168201915b505050505090806004018054600181600116156101000203166002900480601f01602080910402602001604051908101604052809291908181526020018280546001816001161561010002031660029004801561206a5780601f1061203f5761010080835404028352916020019161206a565b820191906000526020600020905b81548152906001019060200180831161204d57829003601f168201915b5050505050905085565b600a8181548110151561208357fe5b90600052602060002090600502016000915090508060000154908060020160009054906101000a900473ffffffffffffffffffffffffffffffffffffffff16908060030160009054906101000a900473ffffffffffffffffffffffffffffffffffffffff16908060040160009054906101000a900473ffffffffffffffffffffffffffffffffffffffff16908060040160149054906101000a900460ff16908060040160159054906101000a900460ff16905086565b60098181548110151561214857fe5b90600052602060002090600602016000915090508060000154908060010160009054906101000a900473ffffffffffffffffffffffffffffffffffffffff16908060020160009054906101000a900473ffffffffffffffffffffffffffffffffffffffff16908060030160009054906101000a900473ffffffffffffffffffffffffffffffffffffffff16908060040154908060050160009054906101000a900460ff16908060050160019054906101000a900460ff16905087565b600061220e613085565b600560003373ffffffffffffffffffffffffffffffffffffffff1673ffffffffffffffffffffffffffffffffffffffff16815260200190815260200160002060009054906101000a900460ff1615156122f5576040517f08c379a00000000000000000000000000000000000000000000000000000000081526004018080602001828103825260258152602001807f4163636573732044656e6965642c206e6f207065726d697373696f6e2064657481526020017f656374656400000000000000000000000000000000000000000000000000000081525060400191505060405180910390fd5b6001600660003373ffffffffffffffffffffffffffffffffffffffff1673ffffffffffffffffffffffffffffffffffffffff16815260200190815260200160002060006101000a81548160ff0219169083151502179055915060e0604051908101604052808581526020013373ffffffffffffffffffffffffffffffffffffffff1681526020013373ffffffffffffffffffffffffffffffffffffffff1681526020016000800160009054906101000a900473ffffffffffffffffffffffffffffffffffffffff1673ffffffffffffffffffffffffffffffffffffffff1681526020018481526020018315158152602001600015158152509050600981908060018154018082558091505090600182039060005260206000209060060201600090919290919091506000820151816000015560208201518160010160006101000a81548173ffffffffffffffffffffffffffffffffffffffff021916908373ffffffffffffffffffffffffffffffffffffffff16021790555060408201518160020160006101000a81548173ffffffffffffffffffffffffffffffffffffffff021916908373ffffffffffffffffffffffffffffffffffffffff16021790555060608201518160030160006101000a81548173ffffffffffffffffffffffffffffffffffffffff021916908373ffffffffffffffffffffffffffffffffffffffff1602179055506080820151816004015560a08201518160050160006101000a81548160ff02191690831515021790555060c08201518160050160016101000a81548160ff0219169083151502179055505050507f5cdbeeb76e60260c527738fff6709ccbc0a6db2e67575fa29b5a972eeb68cf84336000800160009054906101000a900473ffffffffffffffffffffffffffffffffffffffff16600160098054905003604051808473ffffffffffffffffffffffffffffffffffffffff1673ffffffffffffffffffffffffffffffffffffffff1681526020018373ffffffffffffffffffffffffffffffffffffffff1673ffffffffffffffffffffffffffffffffffffffff168152602001828152602001935050505060405180910390a150505050565b6000806000612627613109565b600080600087511115156126a3576040517f08c379a00000000000000000000000000000000000000000000000000000000081526004018080602001828103825260178152602001807f596f75206d75737420696e636c75646520746f6b656e7300000000000000000081525060200191505060405180910390fd5b6000800160009054906101000a900473ffffffffffffffffffffffffffffffffffffffff1673ffffffffffffffffffffffffffffffffffffffff163373ffffffffffffffffffffffffffffffffffffffff16141515612790576040517f08c379a00000000000000000000000000000000000000000000000000000000081526004018080602001828103825260348152602001807f4f6e6c7920616374697665206d696c6c206f776e657220697320616c6c6f776581526020017f6420746f2063726561746520434f546f6b656e7300000000000000000000000081525060400191505060405180910390fd5b6001955060009450600093505b8651841015612a82573373ffffffffffffffffffffffffffffffffffffffff16600988868151811015156127cd57fe5b906020019060200201518154811015156127e357fe5b906000526020600020906006020160030160009054906101000a900473ffffffffffffffffffffffffffffffffffffffff1673ffffffffffffffffffffffffffffffffffffffff161415156128c6576040517f08c379a00000000000000000000000000000000000000000000000000000000081526004018080602001828103825260318152602001807f54686973206973206e6f742074686520696e74656e6465642064657374696e6181526020017f74696f6e206f662074686520746f6b656e00000000000000000000000000000081525060400191505060405180910390fd5b600987858151811015156128d657fe5b906020019060200201518154811015156128ec57fe5b906000526020600020906006020160050160019054906101000a900460ff161515156129a6576040517f08c379a00000000000000000000000000000000000000000000000000000000081526004018080602001828103825260258152602001807f5468697320746f6b656e2068617320616c7265616479206265656e2070726f6381526020017f657373656400000000000000000000000000000000000000000000000000000081525060400191505060405180910390fd5b600e87858151811015156129b657fe5b906020019060200201519080600181540180825580915050906001820390600052602060002001600090919290919091505550600987858151811015156129f957fe5b90602001906020020151815481101515612a0f57fe5b9060005260206000209060060201600001548501945060098785815181101515612a3557fe5b90602001906020020151815481101515612a4b57fe5b906000526020600020906006020160050160009054906101000a900460ff161515612a7557600095505b838060010194505061279d565b6000600e805490501115612ea85760e060405190810160405280868152602001600e805480602002602001604051908101604052809291908181526020018280548015612aee57602002820191906000526020600020905b815481526020019060010190808311612ada575b505050505081526020016000800160009054906101000a900473ffffffffffffffffffffffffffffffffffffffff1673ffffffffffffffffffffffffffffffffffffffff1681526020013373ffffffffffffffffffffffffffffffffffffffff168152602001600073ffffffffffffffffffffffffffffffffffffffff1681526020018715158152602001600015158152509250600a8390806001815401808255809150509060018203906000526020600020906005020160009091929091909150600082015181600001556020820151816001019080519060200190612bd692919061318d565b5060408201518160020160006101000a81548173ffffffffffffffffffffffffffffffffffffffff021916908373ffffffffffffffffffffffffffffffffffffffff16021790555060608201518160030160006101000a81548173ffffffffffffffffffffffffffffffffffffffff021916908373ffffffffffffffffffffffffffffffffffffffff16021790555060808201518160040160006101000a81548173ffffffffffffffffffffffffffffffffffffffff021916908373ffffffffffffffffffffffffffffffffffffffff16021790555060a08201518160040160146101000a81548160ff02191690831515021790555060c08201518160040160156101000a81548160ff0219169083151502179055505050507f30ed1de7eab8b98406ab30ed28da3ce37a6b65508470b47af420d9e49ec7546e836060015184608001516001600a8054905003604051808473ffffffffffffffffffffffffffffffffffffffff1673ffffffffffffffffffffffffffffffffffffffff1681526020018373ffffffffffffffffffffffffffffffffffffffff1673ffffffffffffffffffffffffffffffffffffffff168152602001828152602001935050505060405180910390a1600091505b600e80549050821015612e99576009600e83815481101515612dc157fe5b9060005260206000200154815481101515612dd857fe5b9060005260206000209060060201905060018160050160016101000a81548160ff02191690831515021790555060008160030160006101000a81548173ffffffffffffffffffffffffffffffffffffffff021916908373ffffffffffffffffffffffffffffffffffffffff160217905550338160020160006101000a81548173ffffffffffffffffffffffffffffffffffffffff021916908373ffffffffffffffffffffffffffffffffffffffff1602179055508180600101925050612da3565b600e6000612ea791906131da565b5b50505050505050565b828054600181600116156101000203166002900490600052602060002090601f016020900481019282601f10612eea5780548555612f27565b82800160010185558215612f2757600052602060002091601f016020900482015b82811115612f26578254825591600101919060010190612f0b565b5b509050612f3491906131fb565b5090565b50805460018160011615610100020316600290046000825580601f10612f5e5750612f7d565b601f016020900490600052602060002090810190612f7c91906131fb565b5b50565b60a060405190810160405280600073ffffffffffffffffffffffffffffffffffffffff168152602001606081526020016000815260200160608152602001606081525090565b828054600181600116156101000203166002900490600052602060002090601f016020900481019282601f1061300757805160ff1916838001178555613035565b82800160010185558215613035579182015b82811115613034578251825591602001919060010190613019565b5b50905061304291906131fb565b5090565b608060405190810160405280600073ffffffffffffffffffffffffffffffffffffffff1681526020016060815260200160608152602001606081525090565b60e06040519081016040528060008152602001600073ffffffffffffffffffffffffffffffffffffffff168152602001600073ffffffffffffffffffffffffffffffffffffffff168152602001600073ffffffffffffffffffffffffffffffffffffffff168152602001600081526020016000151581526020016000151581525090565b60e0604051908101604052806000815260200160608152602001600073ffffffffffffffffffffffffffffffffffffffff168152602001600073ffffffffffffffffffffffffffffffffffffffff168152602001600073ffffffffffffffffffffffffffffffffffffffff1681526020016000151581526020016000151581525090565b8280548282559060005260206000209081019282156131c9579160200282015b828111156131c85782518255916020019190600101906131ad565b5b5090506131d691906131fb565b5090565b50805460008255906000526020600020908101906131f891906131fb565b50565b61321d91905b80821115613219576000816000905550600101613201565b5090565b905600a165627a7a72305820e44ed35e9b1a3a9c7d0dc7fa5bfb942005e42f9b21d5a2972360d315e2d5630f0029",
  "source": "pragma solidity ^0.4.0;\r\n\r\n\r\ncontract Consortium {\r\n    \r\n    struct FFBToken {\r\n\r\n        uint weight;\r\n        address plantationOrigin;\r\n        address owner;\r\n        address newOwner;\r\n        uint harvestTimeStamp;\r\n        bool RSPOCertified;\r\n        bool processed;\r\n    \r\n\r\n    }\r\n    \r\n    struct COToken {\r\n\r\n        uint weight;\r\n        uint[] containedFFB;\r\n        address millOrigin;\r\n        address owner;\r\n        address newOwner;\r\n        bool RSPOCertified;\r\n        bool processed;\r\n        \r\n    }\r\n    \r\n    struct Plantation {\r\n        address associatedAddress;\r\n        string name;\r\n        uint capacity;\r\n        string GPSLongitude;\r\n        string GPSLatitude;\r\n  \r\n\r\n        //Hash may be omitted in favor of address use\r\n     //   bytes32 plantationHash;\r\n        // Tokens? \r\n        \r\n    }\r\n    \r\n    struct Mill {\r\n        address associatedAddress;\r\n        string GPSLongitude;\r\n        string GPSLatitude;\r\n        \r\n        string name;\r\n\r\n        //Hash may be omitted in favor of address use\r\n     //   bytes32 millHash;\r\n    }\r\n    \r\n\r\n    //Events:\r\n    event FFBTokenSubmitted(address owner, address newOwner, uint index);\r\n\r\n    event COTokenSubmitted(address owner, address newOwner, uint index);\r\n\r\n    event PlantationSubmissionRequested(address plantationAddressOrigin);\r\n    event PlantationSubmissionApproved(address plantationAddressOrigin);\r\n\r\n   // event PlantationSubmissionRequested(address owner, address newOwner, uint index);\r\n    \r\n    Mill public activeMill;\r\n\r\n    mapping (address => Plantation) public plantations;\r\n    \r\n    mapping (address => bool) public registeredPlantations;\r\n\r\n    mapping (address => bool) public certifiedPlantations;\r\n\r\n    mapping (address => address) public plantationPermit;\r\n\r\n    mapping (address => Plantation) public pendingPlantationRequests;\r\n    \r\n    // mapping (bytes32 => FFBToken) public FFBTokens;\r\n\r\n    FFBToken[] public FFBTokens;\r\n\r\n   // mapping (bytes32 => COToken) public COTokens;\r\n   \r\n    COToken[] public COTokens;\r\n    \r\n    address public RSPOAdministrator;\r\n    \r\n    mapping (bytes32 => bool) public COExists;\r\n    \r\n    mapping (bytes32 => bool) public FFBExists;\r\n\r\n    uint[] public tokensToInclude;\r\n    \r\n    modifier onlyRSPOAdmin {\r\n        require(msg.sender == RSPOAdministrator, \"RSPO authentication required\");\r\n         _;\r\n    }\r\n    \r\n    constructor(address RSPOAdmin) public {\r\n        RSPOAdministrator = RSPOAdmin;\r\n    }\r\n    \r\n    // constructor() public {\r\n    //     RSPOAdministrator = msg.sender;\r\n    // }\r\n    \r\n    //Request addition of new Plantation to consortium\r\n    function requestPlantationSubscription(string name,\r\n        uint capacity,\r\n        string GPSLongitude,\r\n        string GPSLatitude\r\n      ) public {\r\n      \r\n                //msg.sender is assumed to be address of plantation\r\n        require(!registeredPlantations[msg.sender], \"Plantation is already registered\");\r\n\r\n        Plantation memory newPlantation = Plantation({\r\n            associatedAddress: msg.sender,\r\n            name: name,\r\n            capacity: capacity,\r\n            GPSLatitude:GPSLatitude,\r\n            GPSLongitude:GPSLongitude\r\n         \r\n        });\r\n        \r\n        emit PlantationSubmissionRequested(msg.sender);\r\n        \r\n        pendingPlantationRequests[msg.sender] = newPlantation;\r\n        \r\n    }\r\n    \r\n    function approvePlantationRequest(address requestOrigin) public onlyRSPOAdmin {\r\n        \r\n        //Index may be derived from planatation hash rather than passed with index\r\n        plantations[requestOrigin] = pendingPlantationRequests[requestOrigin];\r\n        certifiedPlantations[requestOrigin] = true;\r\n        registeredPlantations[requestOrigin] = true;\r\n        delete pendingPlantationRequests[requestOrigin];\r\n        emit PlantationSubmissionApproved(requestOrigin);\r\n        \r\n    }\r\n    \r\n    function setMill(string GPSLongitude,\r\n        string GPSLatitude,\r\n        \r\n        string name,\r\n        address origin) public onlyRSPOAdmin {\r\n            \r\n            Mill memory newMill = Mill({\r\n            name: name,\r\n            associatedAddress: origin,\r\n            GPSLatitude:GPSLatitude,\r\n            GPSLongitude:GPSLongitude\r\n        });\r\n        \r\n        activeMill = newMill;\r\n        \r\n    }\r\n    \r\n    \r\n    function submitFFBToken(\r\n        uint weight,\r\n        uint harvestTimeStamp\r\n        ) public {\r\n\r\n        //Find date lsning\r\n        //Assume call comes from plantation contract => msg.sender is valid\r\n        require(registeredPlantations[msg.sender], \"Access Denied, no permission detected\");\r\n        bool isCertified = certifiedPlantations[msg.sender] = true;  \r\n\r\n\r\n        FFBToken memory token = FFBToken({\r\n         weight: weight,\r\n         plantationOrigin: msg.sender,\r\n         owner: msg.sender,\r\n         newOwner: activeMill.associatedAddress,\r\n         harvestTimeStamp: harvestTimeStamp,\r\n         RSPOCertified: isCertified,\r\n         processed: false});\r\n\r\n        FFBTokens.push(token);\r\n\r\n        emit FFBTokenSubmitted(msg.sender, activeMill.associatedAddress, FFBTokens.length -1);\r\n       \r\n        }\r\n\r\n    \r\n    function consumeFFBTokens( uint[] tokenIndexes) public {\r\n        require(tokenIndexes.length > 0, \"You must include tokens\");\r\n\r\n        //Calculate token weight from FFB tokens\r\n        require(msg.sender == activeMill.associatedAddress, \"Only active mill owner is allowed to create COTokens\");\r\n        bool allTokensCertified = true;\r\n        uint coWeight = 0;\r\n        for (uint i=0; i<tokenIndexes.length; i++) {\r\n\r\n\r\n               require(FFBTokens[tokenIndexes[i]].newOwner == msg.sender, \"This is not the intended destination of the token\");\r\n               require(!FFBTokens[tokenIndexes[i]].processed, \"This token has already been processed\");\r\n                     \r\n                tokensToInclude.push(tokenIndexes[i]);\r\n                coWeight += FFBTokens[tokenIndexes[i]].weight;\r\n                if(!FFBTokens[tokenIndexes[i]].RSPOCertified){\r\n                 \r\n                    allTokensCertified = false;\r\n                }              \r\n                \r\n        }\r\n\r\n        if(tokensToInclude.length > 0){\r\n           \r\n           COToken memory token = COToken({\r\n             weight: coWeight,\r\n             containedFFB: tokensToInclude,\r\n             owner: msg.sender,\r\n             newOwner:  0,\r\n             millOrigin: activeMill.associatedAddress,\r\n             RSPOCertified: allTokensCertified,\r\n             processed: false\r\n    \r\n            });\r\n\r\n            COTokens.push(token);\r\n           emit COTokenSubmitted(token.owner, token.newOwner, COTokens.length-1);\r\n                 for (uint j=0; j<tokensToInclude.length; j++) {\r\n                 FFBToken storage tokenToUpdate =  FFBTokens[tokensToInclude[j]];\r\n                  tokenToUpdate.processed = true;\r\n                  tokenToUpdate.newOwner = 0;\r\n                  tokenToUpdate.owner = msg.sender;\r\n           \r\n                 }\r\n            delete tokensToInclude;\r\n\r\n        }\r\n\r\n\r\n\r\n    }\r\n\r\n    function revokePlantationAccess(address plantation) onlyRSPOAdmin public {\r\n        delete registeredPlantations[plantation];\r\n        \r\n    }\r\n\r\n    function getPlantationAtAddress(address plantation) onlyRSPOAdmin public view returns(string){\r\n        return plantations[plantation].name;\r\n        \r\n    }\r\n      \r\n}",
  "sourcePath": "C:\\Users\\MAG\\source\\repos\\Bachelor\\PalmChain\\Ethereum\\contracts\\Consortium.sol",
  "compiler": {
    "name": "solc",
    "version": "0.4.24+commit.e67f0147.Emscripten.clang"
  },
  "schemaVersion": "2.0.1",
  "updatedAt": "2018-11-15T09:40:38.044Z"
}