{
  "contractName": "Plantation",
  "abi": [
    {
      "constant": true,
      "inputs": [],
      "name": "RSPOAdministratorConsortium",
      "outputs": [
        {
          "name": "",
          "type": "address"
        }
      ],
      "payable": false,
      "stateMutability": "view",
      "type": "function"
    },
    {
      "constant": true,
      "inputs": [],
      "name": "Name",
      "outputs": [
        {
          "name": "",
          "type": "string"
        }
      ],
      "payable": false,
      "stateMutability": "view",
      "type": "function"
    },
    {
      "constant": true,
      "inputs": [],
      "name": "plantationOwner",
      "outputs": [
        {
          "name": "",
          "type": "address"
        }
      ],
      "payable": false,
      "stateMutability": "view",
      "type": "function"
    },
    {
      "constant": true,
      "inputs": [],
      "name": "pendingApproval",
      "outputs": [
        {
          "name": "",
          "type": "bool"
        }
      ],
      "payable": false,
      "stateMutability": "view",
      "type": "function"
    },
    {
      "constant": true,
      "inputs": [],
      "name": "approvedByConsortium",
      "outputs": [
        {
          "name": "",
          "type": "bool"
        }
      ],
      "payable": false,
      "stateMutability": "view",
      "type": "function"
    },
    {
      "constant": true,
      "inputs": [
        {
          "name": "",
          "type": "address"
        }
      ],
      "name": "plantationPermit",
      "outputs": [
        {
          "name": "",
          "type": "address"
        }
      ],
      "payable": false,
      "stateMutability": "view",
      "type": "function"
    },
    {
      "inputs": [
        {
          "name": "_consortiumOwnerAddress",
          "type": "address"
        },
        {
          "name": "origin",
          "type": "address"
        },
        {
          "name": "rspoAdmin",
          "type": "address"
        }
      ],
      "payable": false,
      "stateMutability": "nonpayable",
      "type": "constructor"
    },
    {
      "anonymous": false,
      "inputs": [
        {
          "indexed": false,
          "name": "owner",
          "type": "address"
        },
        {
          "indexed": false,
          "name": "newOwner",
          "type": "address"
        },
        {
          "indexed": false,
          "name": "index",
          "type": "uint256"
        }
      ],
      "name": "FFBTokenSubmitted",
      "type": "event"
    },
    {
      "constant": false,
      "inputs": [
        {
          "name": "name",
          "type": "string"
        }
      ],
      "name": "setPlantationName",
      "outputs": [],
      "payable": false,
      "stateMutability": "nonpayable",
      "type": "function"
    },
    {
      "constant": false,
      "inputs": [
        {
          "name": "GPSLongitudeParam",
          "type": "string"
        }
      ],
      "name": "setPlantationLongitude",
      "outputs": [],
      "payable": false,
      "stateMutability": "nonpayable",
      "type": "function"
    },
    {
      "constant": false,
      "inputs": [
        {
          "name": "GPSlatitudeParam",
          "type": "string"
        }
      ],
      "name": "setPlantationLatitude",
      "outputs": [],
      "payable": false,
      "stateMutability": "nonpayable",
      "type": "function"
    },
    {
      "constant": true,
      "inputs": [],
      "name": "getPlantationInformation",
      "outputs": [
        {
          "name": "",
          "type": "string"
        },
        {
          "name": "",
          "type": "bool"
        },
        {
          "name": "",
          "type": "bool"
        }
      ],
      "payable": false,
      "stateMutability": "view",
      "type": "function"
    },
    {
      "constant": false,
      "inputs": [],
      "name": "requestPlantationSubscription",
      "outputs": [],
      "payable": false,
      "stateMutability": "nonpayable",
      "type": "function"
    },
    {
      "constant": false,
      "inputs": [
        {
          "name": "approved",
          "type": "bool"
        },
        {
          "name": "origin",
          "type": "address"
        }
      ],
      "name": "setPlantationApproved",
      "outputs": [],
      "payable": false,
      "stateMutability": "nonpayable",
      "type": "function"
    },
    {
      "constant": false,
      "inputs": [
        {
          "name": "weight",
          "type": "uint256"
        },
        {
          "name": "harvestTimeStamp",
          "type": "uint256"
        }
      ],
      "name": "submitFFBToken",
      "outputs": [],
      "payable": false,
      "stateMutability": "nonpayable",
      "type": "function"
    },
    {
      "constant": false,
      "inputs": [
        {
          "name": "millAddress",
          "type": "address"
        },
        {
          "name": "index",
          "type": "uint256"
        }
      ],
      "name": "emitFFBEvent",
      "outputs": [],
      "payable": false,
      "stateMutability": "nonpayable",
      "type": "function"
    }
  ],
  "bytecode": "0x60806040526000600160146101000a81548160ff0219169083151502179055506000600560146101000a81548160ff0219169083151502179055506040805190810160405280600a81526020017f556e736574204e616d6500000000000000000000000000000000000000000000815250600690805190602001906200008792919062000198565b503480156200009557600080fd5b506040516060806200138783398101806040528101908080519060200190929190805190602001909291908051906020019092919050505081600160006101000a81548173ffffffffffffffffffffffffffffffffffffffff021916908373ffffffffffffffffffffffffffffffffffffffff16021790555080600560006101000a81548173ffffffffffffffffffffffffffffffffffffffff021916908373ffffffffffffffffffffffffffffffffffffffff160217905550826000806101000a81548173ffffffffffffffffffffffffffffffffffffffff021916908373ffffffffffffffffffffffffffffffffffffffff16021790555050505062000247565b828054600181600116156101000203166002900490600052602060002090601f016020900481019282601f10620001db57805160ff19168380011785556200020c565b828001600101855582156200020c579182015b828111156200020b578251825591602001919060010190620001ee565b5b5090506200021b91906200021f565b5090565b6200024491905b808211156200024057600081600090555060010162000226565b5090565b90565b61113080620002576000396000f3006080604052600436106100d0576000357c0100000000000000000000000000000000000000000000000000000000900463ffffffff16806308536ed5146100d557806323a9b7501461013e5780634146a110146101a757806348bcfa3e146101fe57806348cc641e146102675780634e6367c61461030d5780638052474d1461035a57806387395ddc146103ea5780639aea423c14610439578063a30bf02c14610450578063ad0b2b9f146104a7578063ccabd019146104d6578063d77d976714610505578063ef72bd1f14610588575b600080fd5b3480156100e157600080fd5b5061013c600480360381019080803590602001908201803590602001908080601f01602080910402602001604051908101604052809392919081815260200183838082843782019150505050505091929192905050506105bf565b005b34801561014a57600080fd5b506101a5600480360381019080803590602001908201803590602001908080601f01602080910402602001604051908101604052809392919081815260200183838082843782019150505050505091929192905050506106c4565b005b3480156101b357600080fd5b506101bc6107c9565b604051808273ffffffffffffffffffffffffffffffffffffffff1673ffffffffffffffffffffffffffffffffffffffff16815260200191505060405180910390f35b34801561020a57600080fd5b50610265600480360381019080803590602001908201803590602001908080601f01602080910402602001604051908101604052809392919081815260200183838082843782019150505050505091929192905050506107ef565b005b34801561027357600080fd5b5061027c6108f4565b60405180806020018415151515815260200183151515158152602001828103825285818151815260200191508051906020019080838360005b838110156102d05780820151818401526020810190506102b5565b50505050905090810190601f1680156102fd5780820380516001836020036101000a031916815260200191505b5094505050505060405180910390f35b34801561031957600080fd5b50610358600480360381019080803573ffffffffffffffffffffffffffffffffffffffff169060200190929190803590602001909291905050506109c2565b005b34801561036657600080fd5b5061036f610a65565b6040518080602001828103825283818151815260200191508051906020019080838360005b838110156103af578082015181840152602081019050610394565b50505050905090810190601f1680156103dc5780820380516001836020036101000a031916815260200191505b509250505060405180910390f35b3480156103f657600080fd5b50610437600480360381019080803515159060200190929190803573ffffffffffffffffffffffffffffffffffffffff169060200190929190505050610b03565b005b34801561044557600080fd5b5061044e610c32565b005b34801561045c57600080fd5b50610465610e82565b604051808273ffffffffffffffffffffffffffffffffffffffff1673ffffffffffffffffffffffffffffffffffffffff16815260200191505060405180910390f35b3480156104b357600080fd5b506104bc610ea8565b604051808215151515815260200191505060405180910390f35b3480156104e257600080fd5b506104eb610ebb565b604051808215151515815260200191505060405180910390f35b34801561051157600080fd5b50610546600480360381019080803573ffffffffffffffffffffffffffffffffffffffff169060200190929190505050610ece565b604051808273ffffffffffffffffffffffffffffffffffffffff1673ffffffffffffffffffffffffffffffffffffffff16815260200191505060405180910390f35b34801561059457600080fd5b506105bd6004803603810190808035906020019092919080359060200190929190505050610f01565b005b600560009054906101000a900473ffffffffffffffffffffffffffffffffffffffff1673ffffffffffffffffffffffffffffffffffffffff163373ffffffffffffffffffffffffffffffffffffffff161415156106aa576040517f08c379a00000000000000000000000000000000000000000000000000000000081526004018080602001828103825260388152602001807f4f6e6c792061646d696e6973747261746f72206d6179206368616e676520746881526020017f652076616c7565206f6620746869732070726f7065727479000000000000000081525060400191505060405180910390fd5b80600690805190602001906106c092919061105f565b5050565b600560009054906101000a900473ffffffffffffffffffffffffffffffffffffffff1673ffffffffffffffffffffffffffffffffffffffff163373ffffffffffffffffffffffffffffffffffffffff161415156107af576040517f08c379a00000000000000000000000000000000000000000000000000000000081526004018080602001828103825260388152602001807f4f6e6c792061646d696e6973747261746f72206d6179206368616e676520746881526020017f652076616c7565206f6620746869732070726f7065727479000000000000000081525060400191505060405180910390fd5b80600490805190602001906107c592919061105f565b5050565b600560009054906101000a900473ffffffffffffffffffffffffffffffffffffffff1681565b600560009054906101000a900473ffffffffffffffffffffffffffffffffffffffff1673ffffffffffffffffffffffffffffffffffffffff163373ffffffffffffffffffffffffffffffffffffffff161415156108da576040517f08c379a00000000000000000000000000000000000000000000000000000000081526004018080602001828103825260388152602001807f4f6e6c792061646d696e6973747261746f72206d6179206368616e676520746881526020017f652076616c7565206f6620746869732070726f7065727479000000000000000081525060400191505060405180910390fd5b80600390805190602001906108f092919061105f565b5050565b60606000806006600160149054906101000a900460ff16600560149054906101000a900460ff16828054600181600116156101000203166002900480601f0160208091040260200160405190810160405280929190818152602001828054600181600116156101000203166002900480156109b05780601f10610985576101008083540402835291602001916109b0565b820191906000526020600020905b81548152906001019060200180831161099357829003601f168201915b50505050509250925092509250909192565b7f5cdbeeb76e60260c527738fff6709ccbc0a6db2e67575fa29b5a972eeb68cf84308383604051808473ffffffffffffffffffffffffffffffffffffffff1673ffffffffffffffffffffffffffffffffffffffff1681526020018373ffffffffffffffffffffffffffffffffffffffff1673ffffffffffffffffffffffffffffffffffffffff168152602001828152602001935050505060405180910390a15050565b60068054600181600116156101000203166002900480601f016020809104026020016040519081016040528092919081815260200182805460018160011615610100020316600290048015610afb5780601f10610ad057610100808354040283529160200191610afb565b820191906000526020600020905b815481529060010190602001808311610ade57829003601f168201915b505050505081565b600560009054906101000a900473ffffffffffffffffffffffffffffffffffffffff1673ffffffffffffffffffffffffffffffffffffffff168173ffffffffffffffffffffffffffffffffffffffff16141515610c14576040517f08c379a00000000000000000000000000000000000000000000000000000000081526004018080602001828103825260438152602001807f6f6e6c79207468652061737369676e656420636f6e736f727469756d2061646d81526020017f696e6973747261746f722063616e20617070726f7665206120706c616e74617481526020017f696f6e000000000000000000000000000000000000000000000000000000000081525060600191505060405180910390fd5b81600160146101000a81548160ff0219169083151502179055505050565b600160149054906101000a900460ff16151515610cdd576040517f08c379a00000000000000000000000000000000000000000000000000000000081526004018080602001828103825260298152602001807f5468697320706c616e746174696f6e2068617320616c7265616479206265656e81526020017f20617070726f766564000000000000000000000000000000000000000000000081525060400191505060405180910390fd5b600160009054906101000a900473ffffffffffffffffffffffffffffffffffffffff1673ffffffffffffffffffffffffffffffffffffffff163373ffffffffffffffffffffffffffffffffffffffff16141515610dc8576040517f08c379a00000000000000000000000000000000000000000000000000000000081526004018080602001828103825260328152602001807f4f6e6c79206f776e6572206d6179207365656b207065726d697373696f6e207481526020017f6f20656e74657220636f6e736f727469756d000000000000000000000000000081525060400191505060405180910390fd5b6000809054906101000a900473ffffffffffffffffffffffffffffffffffffffff1673ffffffffffffffffffffffffffffffffffffffff16639aea423c6040518163ffffffff167c0100000000000000000000000000000000000000000000000000000000028152600401600060405180830381600087803b158015610e4d57600080fd5b505af1158015610e61573d6000803e3d6000fd5b505050506001600560146101000a81548160ff021916908315150217905550565b600160009054906101000a900473ffffffffffffffffffffffffffffffffffffffff1681565b600560149054906101000a900460ff1681565b600160149054906101000a900460ff1681565b60076020528060005260406000206000915054906101000a900473ffffffffffffffffffffffffffffffffffffffff1681565b600160149054906101000a900460ff161515610fab576040517f08c379a00000000000000000000000000000000000000000000000000000000081526004018080602001828103825260258152602001807f4163636573732044656e6965642c206e6f207065726d697373696f6e2064657481526020017f656374656400000000000000000000000000000000000000000000000000000081525060400191505060405180910390fd5b6000809054906101000a900473ffffffffffffffffffffffffffffffffffffffff1673ffffffffffffffffffffffffffffffffffffffff1663ef72bd1f83836040518363ffffffff167c01000000000000000000000000000000000000000000000000000000000281526004018083815260200182815260200192505050600060405180830381600087803b15801561104357600080fd5b505af1158015611057573d6000803e3d6000fd5b505050505050565b828054600181600116156101000203166002900490600052602060002090601f016020900481019282601f106110a057805160ff19168380011785556110ce565b828001600101855582156110ce579182015b828111156110cd5782518255916020019190600101906110b2565b5b5090506110db91906110df565b5090565b61110191905b808211156110fd5760008160009055506001016110e5565b5090565b905600a165627a7a72305820d05250644c373c346a15d598154bff3e6c3f600b77b4877585eafe037dbe1b050029",
  "source": "pragma solidity ^0.4.0;\r\n\r\nimport './Consortium.sol';\r\n\r\ncontract Plantation {\r\n\r\n    Consortium private consortium;\r\n    address public plantationOwner;\r\n    bool public approvedByConsortium = false;\r\n   // bool public certifiedByConsortium = false;\r\n    \r\n    uint capacity;\r\n    string GPSLongitude;\r\n    string GPSlatitude; \r\n    address public RSPOAdministratorConsortium;\r\n    bool public pendingApproval = false;\r\n    string public Name = \"Unset Name\";\r\n\r\n\r\n    event FFBTokenSubmitted(address owner, address newOwner, uint index);\r\n    mapping (address => address) public plantationPermit;\r\n\r\n\r\n    constructor(address _consortiumOwnerAddress, address origin, address rspoAdmin) public {\r\n    plantationOwner = origin;\r\n    RSPOAdministratorConsortium =rspoAdmin;\r\n    consortium = Consortium(_consortiumOwnerAddress);\r\n    }  \r\n\r\n    function setPlantationName(string name) public{\r\n        require(msg.sender == RSPOAdministratorConsortium, \"Only administrator may change the value of this property\");\r\n        Name = name;\r\n    }\r\n\r\n    \r\n    function setPlantationLongitude(string GPSLongitudeParam) public {\r\n        require(msg.sender == RSPOAdministratorConsortium, \"Only administrator may change the value of this property\");\r\n        GPSLongitude = GPSLongitudeParam;\r\n    }\r\n\r\n    \r\n    function setPlantationLatitude(string GPSlatitudeParam) public {\r\n        require(msg.sender == RSPOAdministratorConsortium, \"Only administrator may change the value of this property\");\r\n        GPSlatitude = GPSlatitudeParam;\r\n    }\r\n\r\n     function getPlantationInformation() public view returns (string, bool, bool) {\r\n        return (Name, approvedByConsortium, pendingApproval);\r\n    }\r\n\r\n\r\n    //Request addition of this plantation to consortium origin\r\n    function requestPlantationSubscription() public {\r\n      \r\n    require(!approvedByConsortium, \"This plantation has already been approved\");\r\n    require(msg.sender == plantationOwner, \"Only owner may seek permission to enter consortium\");\r\n        consortium.requestPlantationSubscription();\r\n        pendingApproval = true;\r\n    }\r\n\r\n    function setPlantationApproved(bool approved, address origin) public {\r\n\r\n        require(origin == RSPOAdministratorConsortium, \"only the assigned consortium administrator can approve a plantation\");\r\n\r\n        approvedByConsortium = approved;\r\n       \r\n    }\r\n\r\n\r\n        \r\n    function submitFFBToken(\r\n        uint weight,\r\n        uint harvestTimeStamp\r\n        \r\n        ) public {\r\n\r\n        //Find date løsning\r\n        //Assume call comes from plantation contract => msg.sender is valid\r\n        require(approvedByConsortium, \"Access Denied, no permission detected\");\r\n            consortium.submitFFBToken(weight, harvestTimeStamp);\r\n\r\n       \r\n        }\r\n\r\n\r\n    function emitFFBEvent(address millAddress, uint index) public {\r\n        emit FFBTokenSubmitted(this, millAddress, index);\r\n      \r\n    }\r\n       \r\n\r\n    \r\n}",
  "sourcePath": "C:\\Users\\MAG\\source\\repos\\Bachelor\\PalmChain\\Ethereum\\contracts\\Plantation.sol",
  "compiler": {
    "name": "solc",
    "version": "0.4.24+commit.e67f0147.Emscripten.clang"
  },
  "schemaVersion": "2.0.1",
  "updatedAt": "2018-11-19T16:09:32.895Z"
}